:02000002B0004C
:1040000000400B00CC510B00000006000C00050224
:084010000401A60F00000000EE
:04401800604E0B00EB
:10401C0009480A49884208B505D0094A824202D0AB
:10402C00121A00F065FE0748074A0021121A00F028
:10403C006DFE014808BD00BF4CE6032038510B0053
:10404C00B8E60320B8E60320EDE7032070B5074E71
:10405C00074C00F099FBA41BA4080025AC4200D12E
:10406C0070BD56F8043B98470135F7E7EC500B0050
:10407C0010510B0000F03EB808B500F04DF8BDE84B
:10408C00084000F039BB00F093B900F099B9007802
:10409C00B0FA80F0400970470123037070470EB4EA
:1040AC0003B503AB002153F8042B019300F0B5FAD0
:1040BC0002B05DF804EB03B07047000030B50A4D58
:1040CC002A6885B001320C462A60039000F060FC2F
:1040DC00064A039B0649002C08BF144600942A6824
:1040EC00FFF7DDFF05B030BDC8E60320744E0B00B2
:1040FC00794E0B0007B500F043F90022CDE9002200
:10410C0003490448012300F043F903B05DF804FBB4
:10411C00C9400B008E4E0B0044F6206000F0C0BA74
:10412C0008B50549054800F007FABDE80840044900
:10413C00044800F001BA00BFE24E0B00B8E60320C1
:10414C00944E0B00CCE6032008B5024B1B689B6811
:10415C00019308BD6802030008B5024B1B68DB68BD
:10416C00019308BD6802030008B5024B1B685B682D
:10417C00019308BD1802030008B5024B1B685B696C
:10418C00019308BD1802030008B5024B1B685B6C59
:10419C00019308BD4802030008B5024B1B685B691C
:1041AC00019308BD6402030008B5024B1B68DB6871
:1041BC00019308BD3C02030008B5024B1B681B6948
:1041CC00019308BD3C02030008B5024B1B685B69F8
:1041DC00019308BD3C02030008B5024B1B689B69A8
:1041EC00019308BD3C02030008B5024B1B68DB6958
:1041FC00019308BD3C02030008B5024B1B689B6A87
:10420C00019308BD3C02030008B5024B1B681B6CF4
:10421C00019308BD3C02030008B5024B1B681B68E8
:10422C00019308BD4C02030008B5024B1B681B69C7
:10423C00019308BD4C02030008B5024B1B685B6977
:10424C00019308BD4C02030008B5024B1B689B6927
:10425C00019308BD4C02030008B5024B1B68DB69D7
:10426C00019308BD4C02030008B5024B1B681B6A86
:10427C00019308BD4C02030008B5024B1B685B6838
:10428C00019308BD2002030008B5024B1B685B6953
:10429C00019308BD2002030008B5034B1B68D3F83B
:1042AC008830019308BD00002002030008B5034BC1
:1042BC001B68D3F89430019308BD00002002030062
:1042CC0008B5024B1B685B68019308BD40020300F4
:1042DC0008B5024B1B689B68019308BD40020300A4
:1042EC0008B5024B1B68DB68019308BD4002030054
:1042FC0008B5024B1B681B69019308BD4002030003
:10430C0008B5024B1B685B69019308BD40020300B2
:10431C0008B5024B1B689B69019308BD4002030062
:10432C0008B5024B1B68DB69019308BD4002030012
:10433C0008B5024B1B681B6A019308BD40020300C1
:10434C0008B5024B1B681B6B019308BD40020300B0
:10435C0008B5024B1B685B6B019308BD4002030060
:10436C0008B5024B1B681B6C019308BD400203008F
:10437C0008B5024B1B685B6C019308BD400203003F
:10438C0008B5024B1B68DB68019308BD44020300AF
:10439C0008B5024B1B685B6A019308BD440203001D
:1043AC0008B5024B1B68DB6B019308BD440203008C
:1043BC0008B5024B1B681B68019308BD1C02030067
:1043CC0008B5024B1B685B68019308BD1C02030017
:1043DC0008B5024B1B689B68019308BD1C020300C7
:1043EC0008B5024B1B685B6A019308BD1C020300F5
:1043FC0008B5024B1B681B6C019308BD1C02030023
:10440C0008B5024B1B685B6C019308BD1C020300D2
:10441C00002240681146FFF78BBF0022406811460E
:10442C00FFF796BF40680022FFF78ABF4068002262
:10443C0081F00101FFF774BF002340681A4619464A
:10444C00FFF766BF002340681A461946FFF758BFAE
:10445C00002240681146FFF74BBF0022406811460E
:10446C00FFF736BF406800220221FFF739BF002357
:10447C0040681A46FFF724BF024B03225A60024AD7
:10448C001A607047DCE60320144F0B00054B022228
:10449C001A60054B054A9A600020C3E90000FFF73B
:1044AC00EBBE00BFF0E60320E4E603200000FFFFB4
:1044BC0010B50446006808B1FFF782FF0023C4E979
:1044CC000133236010BD38B504460D460068013138
:1044DC00FFF77EFF10B1C4E90005012038BD10B50F
:1044EC000368044623B143688B4201D3012010BDFD
:1044FC002046FFF7E8FF0028F9D0A368002BF5D180
:10450C0022681370F2E737B50D4611460192044646
:10451C00FFF7E5FF019A28B92046FFF7C9FF2046AF
:10452C0003B030BDA2602946206800F0E1FB226890
:10453C00A3680021D154F2E7002313B5C0E900337E
:10454C0004468360037341B10846019100F014FCEA
:10455C00019902462046FFF7D6FF204602B010BD57
:10456C00024800230360FFF70FBE00BFF4E60320F0
:10457C00F8B506460D468F180024BD420CD03368A2
:10458C0015F8011B9B6830469847031E01DB1C4441
:10459C00F3E7002C08BF1C462046F8BD13B50446B3
:1045AC00084659B1019100F0E7FB23680199DB68DB
:1045BC000246204602B0BDE81040184702B010BDBC
:1045CC0003689B68184738B50D210546FFF7F8FFBF
:1045DC000A2104462846FFF7F3FF204438BD30B5C6
:1045EC008BB00023012A8DF8243098BF0A2209AC25
:1045FC000D46B1FBF2F101FB125303F0FF03092B43
:10460C0094BF30333733DBB2AA4204F8013DEFD903
:10461C002146FFF7C3FF0BB030BD2DE9F04186B04A
:10462C0000AF05460E46381D142114463B60FFF7BB
:10463C00D7FE13280ED8391D2846FFF7AFFF0446C6
:10464C001EB12846FFF7BFFF044420461837BD466D
:10465C00BDE8F08100F1080323F00703E846ADEB59
:10466C00030D2246411C3B686846FFF7B9FE6946BC
:10467C002846FFF793FF0446C546E1E7014B024A83
:10468C001A607047F8E60320484F0B00024B1A687B
:10469C00024B1A60704700BF4CE60320FCE6032077
:1046AC000021FFF7F1BD0000014B00229A6070471A
:1046BC0000E70320014B1860704700BF50E6032051
:1046CC0008B50B4B43B100F063F903681B699847BD
:1046DC00002801DDAFF30080064B43B100F0DCFA9B
:1046EC0003681B699847002801DDAFF3008008BD03
:1046FC00000000000000000008B5FFF7E1FFFFF725
:10470C003BFD014B186008BD58E703200548064ADD
:10471C00064908B5121A00F0EBFA054B054A1A6067
:10472C0008BD00BF00F4032004F4032034510B0037
:10473C0000F403201E1C279A07B5002300931A4689
:10474C006FF07701FFF7B2FD03B05DF804FB0000DA
:10475C0007B543880A2B08D0502B0BD1094B1B688B
:10476C004BB103B05DF804EB1847FFF7E5FF03B05E
:10477C005DF804FB002300931A466FF07701FFF7F6
:10478C0095FDF4E714E7032010B512480021FFF75C
:10479C0037FE114B1A68114B9A42114B0CBF012278
:1047AC0000221A7001D0FFF7B1FFFFF7DDFC0446C1
:1047BC0000F0B4FA0B4B13B12046AFF3008000218C
:1047CC000848FFF7EDFDBDE8104007480021FFF752
:1047DC0063BD00BFC1460B0000F403201E1C279ACA
:1047EC0010E70320000000005D470B00704710B578
:1047FC0018210446FFF749FC204610BDF0B5037D97
:10480C00062B8DB00E4600F104074FF0000412D0B9
:10481C0000F1080515F8011D0A223046FFF7DFFEEE
:10482C00AF42044419D0002CF4D02E213046FFF7AF
:10483C00C7FE0444EEE72F236A4639460A208DF85A
:10484C000040FFF7A9FC684600F096FA3368024670
:10485C00DB68694630469847044620460DB0F0BDEB
:10486C0010B5054B0446112240F8043B002100F022
:10487C004DFA204610BD00BF704F0B000346074A8F
:10488C0010B543F8042B01F1100251F8044B43F816
:10489C00044B9142F9D10A781A7010BD704F0B007D
:1048AC0010B59DF8084044EA032343EA024242EA69
:1048BC00016104234160037510BD000007B5064B70
:1048CC000360CB7800938B784A780978FFF7E8FF80
:1048DC0003B05DF804FB00BF704F0B0041747047D0
:1048EC007047704708B50021007CFFF7ADFC40EA2B
:1048FC00E07008BD08B50121007CFFF7A5FC40EA7B
:10490C00E07008BD08B5007CFFF796FC20EAE0706B
:10491C0008BD08B5007CFFF787FC20EAE07008BDF5
:10492C0013B50446007C0191FFF786FC0028019921
:10493C0001DC607C20B1207CFFF78EFC20EAE0706B
:10494C0002B010BD007CFFF78FBC10B514210446DB
:10495C00FFF79BFB204610BD10B54FF47A7304464D
:10496C0008460021C4E90113044B23600123207481
:10497C0063741146FFF750FC204610BD844F0B00AA
:10498C0010B514220446002100F0C0F9204610BDD9
:10499C0010B50F4C88B003A8FFF7F2FF2178BFF3D6
:1049AC005B8F11F001010FD120460191FFF76FFBD6
:1049BC00019948B103AA0748FFF7CEFF2046FFF73D
:1049CC006BFB054800F08EF9024808B010BD00BF23
:1049DC0018E703201CE70320ED480B0070474174D7
:1049EC00704708B5007CFFF707FC20EAE07008BDB3
:1049FC0008B5007CFFF7E0FB20EAE07008BD08B5C5
:104A0C00007CFFF7E9FB40EAE07008BD08B5007CCC
:104A1C00FFF7DAFB40EAE07008BD007CFFF7E4BB6F
:104A2C0037B5457C04462DB1207C03B0BDE8304041
:104A3C00FFF7BABB007C0191FFF7DEFB0028019960
:104A4C00F2DC284603B030BD10B514210446FFF744
:104A5C001CFB204610BD000010B54FF47A730446C1
:104A6C00084611460022C4E90123044B23600123AC
:104A7C0020746374FFF7C8FB204610BDB44F0B00C5
:104A8C00002240681146FFF733BC002240681146F3
:104A9C00FFF74EBC002240681146FFF759BC406836
:104AAC000022FFF74DBC4068002281F00101FFF7A6
:104ABC0037BC002340681A461946FFF729BC00236F
:104ACC0040681A461946FFF71BBC00224068114685
:104ADC00FFF7FEBB406800220221FFF701BC002358
:104AEC0040681A46FFF7ECBB024B04225A60024A9C
:104AFC001A60704730E70320E44F0B000023406836
:104B0C001A46FFF7DDBB406800220221FFF7E8BB25
:104B1C00002240681146FFF7DBBB002240681146BB
:104B2C00FFF7E6BB002340681A461946FFF7E8BBBF
:104B3C00002340681A461946FFF7EABB406800217B
:104B4C00FFF70EBC40680021FFF712BC4068002242
:104B5C0081F00101FFF7E4BB40680022FFF7F0BBD6
:104B6C00002240681146FFF7F3BB00224068114653
:104B7C00FFF7DEBB2DE9F04395B014460D46074612
:104B8C00FFF76EFE00211C220DA8009100F0BEF86C
:104B9C0040230C9320466B460CAA0021FFF7DCFA4D
:104BAC00044600284BD1024601216868FFF7A0FBA0
:104BBC000221804622466868FFF79AFB009E8146D8
:104BCC002146002E3BD0002939D17368022B03D02B
:104BDC000A2B11D0F669F4E7B8F1000FFAD071691D
:104BEC0006A8043107ADFFF769FE0FCD3C1D0FC4BD
:104BFC002B6823704146EDE7B9F1000FEAD07469D8
:104C0C00102201A800F082F806238DF8143001ADB3
:104C1C0004F108031834186859682A4603C208338B
:104C2C00A3421546F7D101A906A807ADFFF726FE4A
:104C3C000FCD3C1D0FC42B6823704946CAE7009862
:104C4C00FFF782FA384615B0BDE8F083024B034AF1
:104C5C001A6000225A60704738E7032020500B007E
:104C6C007047000038B5044614252A46002100F090
:104C7C004DF825804025074925812846258200F0DE
:104C8C002FF804496060284600F02AF8E0602046BE
:104C9C0038BD00BF54500B0030B50E4D2978BFF312
:104CAC005B8F11F0010487B011D12846FFF7EFF9A3
:104CBC0068B101A8FFF7D6FF01AA21460648FFF705
:104CCC00CBFE2846FFF7E8F9044800F00BF8024841
:104CDC0007B030BD40E7032044E703206D4C0B00C8
:104CEC00FFF7D1B9002301461A46184600F04CB81C
:104CFC000A44914200F1FF3300D1704710B511F80E
:104D0C00014B03F8014F9142F9D110BD0244034607
:104D1C00934200D1704703F8011BF9E738B5104BEB
:104D2C001D68AB6B0446B3B91820FFF741FB024674
:104D3C00A86320B90B4B0C484221FFF759FB0B49D8
:104D4C000B4BC0E900130B4B83600B2383810021B9
:104D5C000120C2E90401AB6B00221C615A6138BD11
:104D6C0050E6032055500B006C500B000E33CDABAE
:104D7C0034126DE6ECDE0500034613F8012B002A15
:104D8C00FBD1181A013870472DE9F843DFF8B880C9
:104D9C000646D8F800001F460D46914600F056F81E
:104DAC00254B1C6834B9254C1C60254B13B11B6872
:104DBC00C4F8883063681F2B07DDD8F8000000F0BA
:104DCC0047F84FF0FF30BDE8F8834EB3D4F88800B5
:104DDC0088B91C4B23B9D8F8000000F038F8F0E77C
:104DEC004FF48470FFF7E4FA0028F4D00023C0E9F4
:104DFC004033C4F88800636840F8239001229A403D
:104E0C0000EB8301D0F800311343C0F80031022EBF
:104E1C00C1F8807002BFD0F804311343C0F80431DC
:104E2C006368D8F800005A1C0233626044F82350BF
:104E3C0000F00EF80020C6E7E8E703205CE703204B
:104E4C0000000000BD430B00B4E603207047704720
:104E5C00704700001D400B0059400B0081400B00B7
:104E6C0085400B00000000004E554C4C0025643A68
:104E7C00206576656E743D257320646174613D25F3
:104E8C00730074656D70430068747470733A2F2FDF
:104E9C006170692E7061727469636C652E696F2F15
:104EAC0076312F646576696365732F653030666380
:104EBC006536383739613339663964613738383695
:104ECC003934342F74656D703F6163636573735F40
:104EDC00746F6B656E3D6361376538353061316475
:104EEC0066373633323631353134316231633165C0
:104EFC0035316339646538653334376461390000A2
:104F0C0000000000000000007B440B0071440B000B
:104F1C0067440B005D440B0051440B0045440B00EF
:104F2C00494B0B00514B0B0039440B0031440B0027
:104F3C0027440B001D440B00814B0B00617070006B
:104F4C0025592D256D2D25645425483A254D3A2596
:104F5C0053257A0061736374696D6500000000006D
:104F6C000000000009480B00F9470B00FB470B0041
:104F7C000000000000000000EF480B0057490B0038
:104F8C002D490B007D450B001F490B00F1480B0010
:104F9C0001490B0051490B0011490B00E9480B006A
:104FAC000000000000000000E9490B00554A0B000E
:104FBC002D4A0B007D450B00FD490B00194A0B00D7
:104FCC000B4A0B00274A0B00EB490B00EF490B0077
:104FDC000000000000000000EB4A0B00E14A0B004F
:104FEC00D74A0B008D4A0B00CB4A0B00BF4A0B0073
:104FFC00494B0B00514B0B00B34A0B00AB4A0B0057
:10500C00A14A0B00974A0B00814B0B0000000000DB
:10501C0000000000094B0B00134B0B001D4B0B0049
:10502C00274B0B00314B0B003D4B0B00494B0B003E
:10503C00514B0B00594B0B00654B0B006D4B0B0090
:10504C00774B0B00814B0B00005245454E54206DA5
:10505C00616C6C6F63207375636365656465640074
:10506C002F6D6E742F776F726B73706163652F7712
:10507C006F726B73706163652F4743432D31302D15
:10508C00706970656C696E652F6A656E6B696E739D
:10509C002D4743432D31302D706970656C696E65F9
:1050AC002D34385F32303230313132345F3136307A
:1050BC00363138303634312F7372632F6E65776C1E
:1050CC0069622F6E65776C69622F6C6962632F73EE
:1050DC0074646C69622F72616E642E630000000050
:1050EC002D410B0085440B0099440B006D450B00C2
:1050FC0089460B0099460B00B5460B00F54A0B0090
:04510C00594C0B00EF
:10511000040000001400000003000000474E55008A
:1051200085971B475FD22625B715E0FD68F1F78FFD
:04513000C11AB15798
:045134000000000077
:10513800604F0B0054E60320000000000000000050
:105148000000000000000000000000000000000057
:105158000000000000000000000000000000000047
:105168000000000000000000000000000000000037
:105178000000000000000000000000000000000027
:105188000000000000000000000000000000000017
:0C5198000000000000000000ECE7032015
:1051A400FFFFFFFF00000102030405060708090AC8
:1051B4000B0C0D0E0F101112131415161718191AC3
:0851C4001B1C1D1E1F2028000A
:0451CC0078563412CB
:04000003B000401CED
:00000001FF
