:02000002B0004C
:1040000000400B0090950B00000006000C0005021C
:084010000401A60F00000000EE
:0440180014850B0000
:1040200009480A49884208B505D0094A824202D0A7
:10403000121A04F0ABF90748074A0021121A04F0DB
:10404000B3F9014808BD00BFBCE00320C8900B00D5
:104050005CE5032060E50320F1E7032070B5074E1F
:10406000074C02F0DBFCA41BA4080025AC4200D1E5
:1040700070BD56F8043B98470135F7E770900B0088
:1040800094900B0000F0D4B908B500F059FABDE8DF
:10409000084002F07BBC01F077BF01F075BF01F072
:1040A0007BBF000008B5034A03490C2001F0C0FEA5
:1040B000FEE700BFF15A0B0028850B000078B0FA2C
:1040C00080F04009704701230370704770B50C1EE3
:1040D000064615460BDA0A2A09D12D2102F038FBD3
:1040E0006142EAB23046BDE8704002F04ABB214668
:1040F000F7E70EB403B503AB002153F8042B01938B
:1041000002F05DFB02B05DF804EB03B07047000005
:1041100038B584690A4B036005467CB16368013B8E
:1041200063605BB9236820469B689847A368013B9E
:10413000A3601BB923682046DB689847284638BD32
:10414000288E0B0010B50446FFF7E2FF20461C2125
:10415000FFF7A5FF204610BD2DE9F0418CB00546C4
:104160000F4668467749DDF8488014461E4602F03F
:10417000D6F9DFF828E27449DEF800307348744A53
:10418000DFF81CC2AB4219D10B68BB4216D10368E1
:10419000A34213D11368B34210D1DCF80030434579
:1041A0000CD102F059FD6B49FFF7A3FF00246846CC
:1041B00002F06AF920460CB0BDE8F081CEF800505C
:1041C0000F6004601660CCF80080002F00F0B5800E
:1041D0006149684602F0F6F9694608A802F0DFF97D
:1041E0000A22414604A802F0FFF904A908A802F037
:1041F00032FA5A4902F03BFA0146684602F0C0F929
:1042000004A802F041F908A802F03EF9694608A89E
:1042100002F0C5F90A22314604A802F0E5F904A922
:1042200008A802F018FA4E4902F021FA0146684641
:1042300002F0A6F904A802F027F908A802F024F970
:10424000694608A802F0ABF90A22214604A802F048
:10425000CBF904A908A802F0FEF9424902F007FAD6
:104260000146684602F08CF904A802F00DF908A88E
:1042700002F00AF93C493D480023502202F0A6FE14
:104280000446002893D002F0E7FC394902F06FFAA7
:1042900002F0E2FC009902F06AFA3649334802F073
:1042A00053FA3549314802F04FFA34492F4802F0A9
:1042B0004BFA0A222D482946FFF708FF30492B48C0
:1042C00002F055FA2F49294802F051FA2E492748A1
:1042D00002F03AFA2449254802F049FA2B492348CA
:1042E00002F032FA0A220299204802F04AFA1F48E4
:1042F00002F031FA26491D4802F039FA1B4802F053
:104300002AFA0099194802F032FA02F0A5FC214974
:1043100002F02DFA02F0A0FC1449044608A802F0AD
:1043200095FA0899204602F022FA08A802F0ACF8A3
:104330000E4803F001F8012439E71749684602F0F6
:1043400041F997E776860B0010E6032018E6032074
:1043500008E603203D850B0059850B006B850B009B
:1043600073850B0086850B0011870B0070E5032019
:1043700088850B009F850B00E8860B00A9850B0044
:10438000B2850B00C2850B00CD850B00D4850B00D8
:10439000E5850B000C860B007B850B000CE60320EB
:1043A00014E6032010B5044658B1012817D00021A7
:1043B000042003F05EF90021032003F05AF90121E3
:1043C00008E00121042003F054F92146032003F002
:1043D00050F90021BDE81040052003F04AB9002142
:1043E000F0E7000007B50121042003F031F90121B5
:1043F000032003F02DF90121052003F029F9032101
:10440000062003F025F90120FFF7CCFF0023B4229A
:10441000CDE900320E214FF416634FF408720348C1
:1044200001F0A8FF03B05DF804FB00BF88E603209D
:1044300030B595B0FFF7D6FF344C354D02F00CFC8B
:104440004FF4165102F0FCFB00231A46194660682F
:1044500001F042FD3822002106A803F0A5FF4C23FD
:1044600001932C4B02930A220023CDE90323194622
:1044700001AA6068059301F04FFD02F0EDFB2649AB
:10448000FFF737FE002360681A46194601F004FD65
:1044900000226068114601F007FD40B102F0DCFB2C
:1044A0002946FFF726FEFA2002F045FAF0E703F06E
:1044B00089F902F093FC1948762100F090FD184B21
:1044C000187028B902F0C8FB16497622FFF711FED2
:1044D0003C221548022101F031F81348012101F076
:1044E000B3FA0221104801F0AAFA0F4800F05AFF6F
:1044F0000D4800F0B3FF01F037FD20B102F0ACFB36
:104500000A49FFF7F6FD15B030BD00BF1CE70320D8
:1045100040860B0015860B0020860B0020E603204A
:10452000A4E6032042860B00E4E503206B860B0023
:10453000014600B15A21014801F0DFBE88E60320A0
:104540002DE9F0418448854C854F864D88B000F0B8
:1045500073FC10EE100A03F0D1FBC4E900017E48A1
:1045600000F09AFC9FED744B9FED753B9FED762B11
:104570009FED771B87ED000A94ED000B02F098F990
:1045800051EC100B03F0ACFE774C286001F0B8FA48
:104590002368C01AB0F57A7F30D901F0B1FAD5EDB1
:1045A000007A9FED727A724A2060002367EE877A64
:1045B0001360704C704A2360FDEEE77A1360FF23AE
:1045C000009341F6786220234FF4E15117EE900AF0
:1045D00002F062F9694B22681860694B19688A42D7
:1045E000684902D10C68A04208D01A60FF23086015
:1045F0000093012103460520FFF7AEFD624C01F058
:104600007FFA2368C01A47F23053984222D901F04A
:1046100077FA206028685D4C03F070FB02460B4679
:104620003868CDE9022303F069FBDDE90223CDE917
:104630000001574904A802F02FF804A9204601F010
:10464000B9FF04A801F020FF02F006FB22685149DF
:10465000FFF74FFDDFF868814F4E504C01F050FAE4
:10466000D8F80030C01AB0F5FA7F0ED9062003F052
:1046700019F850B101F044FA3378C8F8000083F01B
:10468000010333700BB10023237001F039FA444B5E
:104690001B68C01A0A282BD9286803F02FFB024692
:1046A0000B463868CDE9022303F028FB2778DDE9C3
:1046B000022357B3CDE900013A4904A801F0ECFF09
:1046C00004A9394801F076FF04A801F0DDFE37485F
:1046D00000F068FE35480522002101F0ADF9324BAB
:1046E00033491A683148FFF704FD304800F0B6FE40
:1046F000307890B1002323700220FFF753FE20781A
:1047000008B0BDE8F041FFF713BF3778CDE90001ED
:104710000FB12849D1E72849CFE795ED007ADFEDC1
:10472000277AB4EEE77AF1EE10FA55BF0123207034
:1047300023700120E1E700BF0000000000806A4014
:104740000000000000004040000000000000594050
:10475000000000000000000020E60320B0E6032077
:1047600084E60320B8E6032080E603200000C84268
:104770001CE603206CE6032068E60320A0E6032085
:10478000D4E00320D8E003209CE60320ACE503201E
:1047900077860B0081860B0098E60320DCE003207F
:1047A00064E603208F860B0060E50320E4E5032028
:1047B000E5860B00AD860B00CB860B000000964211
:1047C000A8E603201F4B002210B5C3E900221E4CAF
:1047D000A2F580329A60022001F03AFB21461B4884
:1047E00001F09DFE1A4A1B4B12681A601A4A1B48B8
:1047F00012685A601A4A12689A601A4A1268DA6095
:10480000194A12681A61194A12685A61184A1268DC
:104810009A6102F0DBFD174802F0D8FD0921164825
:1048200000F0AAFD154800F063F82146144801F095
:1048300076FE2146134801F072FEBDE81040124892
:1048400001F084BDBCE5032076860B0070E60320F2
:10485000A8E503208CE50320C8E0032070E50320D1
:10486000D0E00320C0E00320BCE00320C4E003202C
:10487000CCE00320C8E50320E4E5032020E6032084
:10488000ACE5032060E5032088E60320704710B5FF
:1048900010210446FFF703FC204610BD73B5044603
:1048A00008462279A36832B1A3B90B4902B0BDE82A
:1048B000704001F049BF094A267B094D0949647BD4
:1048C000012E18BF2946CDE900140749FFF711FC56
:1048D00002B070BD054AEFE72E870B0076860B000D
:1048E0002A870B0026870B0044870B001D870B00CF
:1048F0004FF0FF330361704713B50B4C2178BFF3C2
:104900005B8F11F001010BD120460191FFF7D6FB1F
:10491000019928B1054801F0B3FB2046FFF7D3FB0E
:10492000024802B010BD00BFBCE60320C0E6032071
:1049300008B5FFF7E1FFBDE8084001F0E7BB07B5A8
:104940000190FFF7D9FF019903B05DF804EB01F086
:10495000F7BB2DE9F04190F91330013305460F46BE
:1049600006D1FFF7C9FF3946BDE8F04101F0AEBC02
:10497000002407264FF0010895F91300002180B2AA
:1049800002F077FE95F9110008FA06F1394080B27D
:1049900002F06FFE95F91300012180B202F069FE6A
:1049A00095F91200640080B2E4B202F07BFE08B117
:1049B00044F00104013EDFD22046BDE8F081000052
:1049C0007FB590F91030013304460E46154613D1D9
:1049D0000179006802F034FA2068036831469B6868
:1049E00098472068036829469B689847206804B068
:1049F000BDE8704002F02FBA90F9133001330CD1AA
:104A0000164B009300238DF80430154B0293684633
:104A10000123ADF80C30FFF792FF94F9100000214C
:104A200080B202F026FE06F07F012046FFF791FFDC
:104A300029462046FFF78DFF94F91000012180B22E
:104A400002F017FE94F91330013304D104B0BDE82D
:104A50007040FFF76DBF04B070BD00BF6C870B00E6
:104A600020A10700F8B5DB0002F0070203F03803CD
:104A7000134343EA81139DF8186080F83C3090F8A6
:104A800040309DF81C509DF8207066F3471380F865
:104A90004030ED0090F8383007F0070705F0380592
:104AA00023F03F033D4304461D4380F8385006F091
:104AB0000702F221FFF784FF94F83820C2F3C20303
:104AC00002F007019B0043EA411343EAD212204659
:104AD000F521FFF775FF94F83C20C2F3C20302F002
:104AE00007019B0043EA411343EA92122046F42156
:104AF000BDE8F840FFF764BF30B590F910300133DE
:104B000085B004460D4618D10179006802F098F985
:104B10002068036829469B689847206802F09BF943
:104B200021792068012202F088F9206803685B6916
:104B30009847C5B2284605B030BD90F9133001330F
:104B40000CD1154B009300238DF80430134B0293C6
:104B500068460123ADF80C30FFF7F1FE94F9100020
:104B6000002180B202F085FD45F080012046FFF76C
:104B7000F0FE00212046FFF7ECFE054694F91000F8
:104B8000012180B202F075FD94F913300133D1D1C7
:104B9000FFF7CEFECEE700BF6C870B0020A1070019
:104BA00008B5F321FFF7A8FF00F0010008BD0000E1
:104BB00030B590F91030013385B004460D461FD151
:104BC0000179006802F03CF92068036829469B6877
:104BD0009847206802F03FF921792068022202F00C
:104BE0002CF9206803685B699847054620680368CC
:104BF0005B69984740EA052085B2284605B030BD7C
:104C000090F9133001330CD1184B009300238DF829
:104C10000430174B029368460123ADF80C30FFF7C0
:104C20008EFE94F91000002180B202F022FD45F0C2
:104C300080012046FFF78DFE00212046FFF789FE08
:104C4000002105462046FFF784FE40EA052085B294
:104C500094F91000012180B202F00BFD94F9133099
:104C60000133CAD1FFF764FEC7E700BF6C870B00B2
:104C700020A1070008B5FFF79BFF40BA80B208BD2E
:104C800038B588210446FFF7F5FF8A21A082204627
:104C9000FFF7F0FF8C21E0822046FFF7EBFF8E212B
:104CA00020832046FFF7E6FF902160832046FFF730
:104CB000E1FF9221A0832046FFF7DCFF9421E083EF
:104CC0002046FFF7D7FF962120842046FFF7D2FF2A
:104CD000982160842046FFF7CDFF9A21A0842046CA
:104CE000FFF7C8FF9C21E0842046FFF7C3FF9E2109
:104CF00020852046FFF7BEFFA12160852046FFF7F3
:104D0000FBFEE12184F82C002046FFF7B3FFE321EE
:104D1000E0852046FFF7F0FEE42184F830002046CD
:104D2000FFF7EAFEE52105462046FFF7E5FE00F025
:104D30000F0343EA05106086E6212046FFF7DCFEFC
:104D4000E52105462046FFF7D7FEC0F3071343EAE7
:104D50000510A086E7212046FFF7CEFE84F8360036
:104D600038BD000030B590F91030013385B00446ED
:104D70000D4623D10179006802F062F820680368CB
:104D800029469B689847206802F065F821792068D9
:104D9000032202F052F8206803685B699847050215
:104DA000206803685B699847284305022068036808
:104DB0005B6998470543284605B030BD90F913302C
:104DC00001330CD11A4B009300238DF80430194B9A
:104DD000029368460123ADF80C30FFF7B0FD94F95B
:104DE0001000002180B202F044FC45F08001204612
:104DF000FFF7AFFD00212046FFF7ABFD00210502C4
:104E00002046FFF7A6FD2843050200212046FFF7B4
:104E1000A0FD054394F91000012180B202F029FCA5
:104E200094F913300133C6D1FFF782FDC3E700BF09
:104E30006C870B0020A1070010B5FA210446FFF78C
:104E400091FFB0F5000F1FD0A18A9FED117A4B00A2
:104E5000C1EB2022C3EBE011B4F91630594302FB39
:104E600002F3B4F918201B1353439B1303EBE12304
:104E7000E36003EB830380331B1207EE903AF8EEF6
:104E8000E77A87EE870A10BD9FED020AFBE700BFB5
:104E90000000C8420000C07F38B50446FFF7CCFFD1
:104EA000FD212046FFF784FEB0F5004F38D0E168C1
:104EB000B4F93420A1F59635B4F932100905C1EBE7
:104EC000803305FB123303F58043DA1394F8303056
:104ED00094F936106B43DB126943891203F50043E2
:104EE0004B439B12B4F92E1003F500134B4303F50B
:104EF00000539B135343DA1394F82C105243D211EE
:104F00004A43A3EB221323EAE373B3F1C85FA8BFBC
:104F10004FF0C8531B1300EE103ABAEECB0A38BD5F
:104F20009FED010AFBE700BF0000C07F30B50446DB
:104F300090F91000421C85B019D1206801F04EFF95
:104F4000D0212046FFF7D8FD6028A06045D120463B
:104F5000B622E021FFF734FD4FF4967001F0EBFC30
:104F60002046FFF71DFE054628B36420F6E7012121
:104F700080B202F07EFB94F91000012180B202F0B1
:104F800067FB94F91300431C04D1FFF7B5FC01F053
:104F900081F8D5E7012180B202F05AFB94F91100A3
:104FA000012180B202F054FB94F91200002180B27A
:104FB00002F04EFBC4E72046FFF762FE0523009394
:104FC0001A4603212046CDE90155FFF74BFD642029
:104FD00001F0B1FC012005B030BD0020FBE710B5A9
:104FE0000171044602F0EEFB20602046BDE810404F
:104FF000FFF79CBFF0B5457EBDF81440022D69D087
:10500000032D00F09980012D6CD10589D2432A44EB
:1050100012B2002A5DDBB0F90850954259DD002933
:10502000BEBF5B181BB20021B0F90A00CD18854243
:10503000C4BF431A1BB2002B4BDDC1F3C400DFF821
:1050400020C102EBC01211F00701DBB20CEB020031
:105050001AD0C1F10805404EEDB2AB42775D3FBFBB
:10506000A5EB030EFF2646FA0EF637401CF8026049
:10507000012C0CBF3E43BE43AB420CF8026028D368
:1050800008390B44DBB28030072B19D9012C4FF0C3
:10509000FF3518BF0025EDB200F180011A46083A2D
:1050A000D2B2072A01F8805C01F18001F7D8A3F1A0
:1050B0000802C2F3C402013200EBC21003F007037E
:1050C0003BB1264AD25C0378012C0CBF13439343B7
:1050D0000370F0BD4589D2432A44CD180189491B8C
:1050E00012B209B2002AF4DBB0F90A509542F0DDA1
:1050F0000029BEBF5B181BB20021B0F90870CE18A2
:10510000BE42C4BF6B1A1BB2002BE2DDD01080255B
:1051100010FB05111248014402F0070001228240F1
:10512000012CD2B20B440CD18B42D2D011F8010B1E
:10513000104301F8010CF7E7CD184189491B09B26A
:1051400067E7D243D2B28B42C3D011F8010B1040B3
:1051500001F8010CF7E700BFE5E00320DDE00320E4
:10516000EDE00320F0B5457EBDF81440022D34D0AB
:10517000032D00F09B80012D37D1D5180289521BD9
:1051800012B20029C0F29180B0F90A508D4240F36A
:105190008C80002ABEBF9B181BB20022B0F9087099
:1051A000D618BE42C4BFAB1A1BB2002B7DDDC8109F
:1051B000802510FB05224548024401F0070001212B
:1051C0008140012CC9B2134475D19A426DD012F8B6
:1051D000010B084302F8010CF7E70589C94329448C
:1051E000D5184289521B09B212B200295DDBB0F911
:1051F00008508D4259DD002ABEBF9B181BB2002209
:10520000B0F90A00D5188542C4BF831A1BB2002B1F
:105210004BDDC2F3C400DFF8B4C001EBC01112F0E3
:105220000702DBB20CEB01001AD0C2F10805284ED0
:10523000EDB2AB42775D3FBFA5EB030EFF2646FA0A
:105240000EF637401CF80160012C0CBF3E43BE43F4
:10525000AB420CF8016028D3083A1344DBB280302B
:10526000072B19D9012C4FF0FF3518BF0025EDB2DF
:1052700000F180011A46083AD2B2072A01F8805C90
:1052800001F18001F7D8A3F10802C2F3C402013290
:1052900000EBC21003F007033BB10E4AD25C037867
:1052A000012C0CBF134393430370F0BD4589C943E0
:1052B000294409B265E7C943C9B29A42F5D012F848
:1052C000010B084002F8010CF7E700BFEDE00320F6
:1052D000E5E00320DDE0032070470000F8B50D1E77
:1052E000064614461F462DDB00F0B3FBA84229DD1D
:1052F000002C27DB304600F0AFFBA04222DD304619
:1053000000F0A5FB02281ED0032825D0012804D1D7
:105310003389E2431A442C4615B2002C2246B8BF0A
:10532000E21DD210802112FB01550E49012204F02A
:1053300007044B5702FA04F464B297420CBF2343AC
:10534000A3434B55F8BD318972890139E4434D1BA4
:1053500014442DB224B2E0E77389013B5B1B254660
:105360001CB2DAE7EDE0032010B524210446FEF775
:1053700096FE204610BD000038B5402204460D467A
:10538000802100F08BFA064B2360FF2384F8213044
:1053900063774FF6FF73E38384F82050204638BDCF
:1053A00080870B0002484FF48062002102F0FCBFAE
:1053B000EDE0032007B590F8223043B10191FFF7EB
:1053C0009BFA019903B05DF804EB00F07FBF0B4638
:1053D000817F407F012203B05DF804EB02F075B9D4
:1053E00038B590F91D30013304460D461DD090F9B3
:1053F0002100012180B202F03CF994F91F00002144
:1054000080B202F036F994F92100002180B202F056
:1054100030F929462046FFF7CDFF94F921000121FC
:10542000BDE8384080B202F024B902F0CBF994F91B
:105430001B1001F009FD02F0C5F9036800219B680B
:10544000984702F0BFF9036829469B68984702F025
:10545000B9F9BDE8384001F0FEBC0000F8B52121E3
:105460000446FFF7BDFF00212046FFF7B9FF7F216B
:105470002046FFF7B5FF22212046FFF7B1FF0021AC
:105480002046FFF7ADFF07212046FFF7A9FF94F95B
:105490001D30294F01332AD094F92100012180B217
:1054A00002F0E7F894F91F00012180B202F0E1F860
:1054B00094F92100002180B202F0DBF8012000F015
:1054C00017FB4FF48065013D17F8011B2046ADB274
:1054D000FFF770FF002DF6D1012000F009FB94F9D1
:1054E00021000121BDE8F84080B202F0C2B80025D9
:1054F00002F068F994F91B1001F0A6FC02F062F9C1
:10550000036840219B68984705F11006B6B202F087
:1055100059F90368795D9B6898476B1C9DB2AE4250
:10552000F5D102F04FF901F096FCB6F5806F00D18D
:10553000F8BD3546DCE700BFEDE0032038B590F953
:105540001D300177013304460D46C27600F0C98054
:1055500090F91F00012180B202F07AF894F921003D
:10556000012180B202F074F894F82230002B00F090
:10557000A68094F92100012180B202F07AF8FFF7A9
:10558000BBF9012100F09AFDFFF7B6F9102100F0F8
:1055900077FEFFF7B1F9002100F0A4FDFFF7ACF9A9
:1055A00000F078FD94F92000012180B202F050F85B
:1055B00094F92000012180B202F05BF8012001F093
:1055C000BAF994F92000002180B202F052F80A20C2
:1055D00001F0B1F994F92000012180B202F049F8FC
:1055E0002046AE21FFF7FCFE2046D521FFF7F8FE4E
:1055F00020468021FFF7F4FE2046A821FFF7F0FEA9
:1056000020463F21FFF7ECFE2046D321FFF7E8FEBE
:1056100020460021FFF7E4FE20464021FFF7E0FE90
:105620008D212046FFF7DCFE012D0CBF1021142137
:105630002046FFF7D5FE20462021FFF7D1FE204669
:105640000021FFF7CDFE2046A121FFF7C9FE20462D
:10565000C821FFF7C5FE2046DA21FFF7C1FE20462C
:105660001221FFF7BDFE81212046FFF7B9FE012D73
:105670000CBF9F21CF212046FFF7B2FED921204643
:10568000FFF7AEFE012D0CBF2221F1212046FFF7CE
:10569000A7FE2046DB21FFF7A3FE20464021FFF7AF
:1056A0009FFE2046A421FFF79BFE2046A621FFF780
:1056B00097FE2046AF21BDE83840FFF791BE94F930
:1056C0001D00012180B201F0C3FF94F91E000121E9
:1056D00080B201F0BDFF94F82230002B3FF462AF9E
:1056E00047E702F06FF801F079FB5BE72DE9F04F37
:1056F00085B01F46BDF93880BDF83C30A8EB0209E3
:10570000A7EB010AB9F1000FB8BFC9F10009BAF15E
:10571000000FB8BFCAF1000AD14583460C461546B2
:1057200004DD3A462C4647460D469046BC4205DD10
:105730002A464546904622463C4617463E1BB2B294
:105740000092A8EB050282EAE271A1EBE271C6F3D6
:10575000C03202FA86F64545B4BF01224FF0FF324F
:10576000019176100292BC421CDCDBF8002003930E
:10577000D145D2F81080C7BF294622462A46214685
:105780005846C047019A039BB61AB1B236B2002EF2
:1057900005DA029A1544009A56182DB236B2013431
:1057A00024B2E0E705B0BDE8F08F2DE9F347BDF87E
:1057B0002C800768BDF92890CDF800800446FF6969
:1057C00016468A461D46B8472368CDF8008009F181
:1057D000FF323244DF6951462B46204612B2B847A9
:1057E0002368CDF800809F6932464B4651462046DB
:1057F000B8476B1E03EB0A012368CDF828809D692A
:1058000032464B4609B22046AC4602B0BDE8F047EE
:10581000604737B5013B13440468BDF81850019543
:105820001BB2009364690B46A04703B030BD37B587
:10583000BDF818500468CDE90025013B0B446469AC
:105840001BB2A04703B030BD2DE9F347BDF9289046
:10585000BDF82C80054692460C46CE18B4420BDAB1
:105860002B68CDF800809F6921464B46524628465A
:105870000134B84724B2F1E702B0BDE8F08713B5B0
:1058800002680191B0F90E100091546AB0F90C3021
:1058900000221146A04702B010BD704730B54281CA
:1058A000C2814FF0FF320024054D42610122446065
:1058B00005600181818104610283827630BD00BF71
:1058C000B48C0B002DE9F04F2DED028B8DB0074607
:1058D0000491BDF860100591BDF864100691B0F90F
:1058E0000C1004989DF86850814252DDB7F90E10F3
:1058F00091424EDD062111FB0504002C49DD02EB2F
:10590000C504002C45DD03EB83030B9393B207938F
:1059100008339BB2089100240993052C1CBF2C4B23
:105920000B9A079E16BF1B1900239B5C0393049AD6
:10593000ABB20A9304FB05F313FA82F31BB204EB38
:10594000020A08EE103AB0460FFA85F90FFA8AFA01
:10595000039BDB072FD5012D3B681FD1D3F810B077
:10596000059B32B251463846D847039B5B080393E8
:105970000A9B01369844099BB6B2B3421FFA88F8D5
:10598000E6D1089B013B013413F0FF0364B2089396
:10599000C3D10DB0BDEC028BBDE8F08F059ACDE907
:1059A000009218EE101AD3F824B00FFA88F24B4682
:1059B0003846D847D9E7DDE905239342D5D0012DF4
:1059C0003B6803D1D3F810B0069BCAE7069AE6E716
:1059D000B0870B0030B50A2985B0044607D1027E96
:1059E000638A03EBC20363820023238221E00D2933
:1059F0001FD0037E0293C38A0193838A0093B0F978
:105A000012200B46B0F91010FFF75CFF207E238AAE
:105A100000EB400103EB4103A17E1BB2024623824F
:105A200039B1B4F90C106FF0050505FB00118B427C
:105A3000D6DC012005B030BD0182428270470129C9
:105A400038BF012101767047C18281827047407E54
:105A50007047B0F90C007047B0F90E0070470000B5
:105A600008B5024B1B689B68019308BD68020300E0
:105A700008B5024B1B68DB68019308BD6802030090
:105A800008B5024B1B685B68019308BD2C0203003C
:105A900008B5024B1B689B68019308BD2C020300EC
:105AA00008B5024B1B68DB68019308BD2C0203009C
:105AB00008B5024B1B681B69019308BD2C0203004B
:105AC00008B5024B1B685B69019308BD2C020300FB
:105AD00008B5024B1B685B69019308BD6C020300AB
:105AE00008B5024B1B685B68019308BD18020300F0
:105AF00008B5024B1B68DB68019308BD1802030060
:105B000008B5024B1B685B69019308BD18020300CE
:105B100008B5024B1B685B6C019308BD480203008B
:105B200008B5024B1B685B69019308BD6402030062
:105B300008B5024B1B681B6A019308BD6402030091
:105B400008B5024B1B689B6A019308BD6402030001
:105B500008B5024B1B68DB68019308BD3C020300DB
:105B600008B5024B1B681B69019308BD3C0203008A
:105B700008B5024B1B685B69019308BD3C0203003A
:105B800008B5024B1B689B69019308BD3C020300EA
:105B900008B5024B1B68DB69019308BD3C0203009A
:105BA00008B5024B1B681B6A019308BD3C02030049
:105BB00008B5024B1B689B6A019308BD3C020300B9
:105BC00008B5024B1B681B6C019308BD3C02030027
:105BD00008B5024B1B68DB68019308BD280203006F
:105BE00008B5024B1B689B69019308BD280203009E
:105BF00008B5024B1B68DB69019308BD280203004E
:105C000008B5024B1B681B6A019308BD28020300FC
:105C100008B5024B1B685B6A019308BD28020300AC
:105C200008B5024B1B689B6A019308BD280203005C
:105C300008B5024B1B68DB6A019308BD280203000C
:105C400008B5024B1B681B6B019308BD28020300BB
:105C500008B5024B1B685B6B019308BD280203006B
:105C600008B5024B1B681B6C019308BD280203009A
:105C700008B5024B1B681B6D019308BD2802030089
:105C800008B5024B1B689B69019308BD38020300ED
:105C900008B5024B1B68DB69019308BD380203009D
:105CA00008B5024B1B681B6A019308BD380203004C
:105CB00008B5024B1B689B6A019308BD38020300BC
:105CC00008B5024B1B681B6B019308BD380203002B
:105CD00008B5024B1B689B6B019308BD380203009B
:105CE00008B5024B1B681B68019308BD3002030016
:105CF00008B5024B1B689B68019308BD3002030086
:105D000008B5024B1B68DB68019308BD3002030035
:105D100008B5024B1B681B69019308BD30020300E4
:105D200008B5024B1B685B69019308BD3002030094
:105D300008B5024B1B68DB69019308BD3002030004
:105D400008B5024B1B681B6A019308BD30020300B3
:105D500008B5024B1B685B6A019308BD3002030063
:105D600008B5024B1B68DB6B019308BD30020300D2
:105D700008B5024B1B681B6C019308BD3002030081
:105D800008B5024B1B685B6C019308BD3002030031
:105D900008B5024B1B681B69019308BD2402030070
:105DA00008B5024B1B685B69019308BD2402030020
:105DB00008B5024B1B689B69019308BD24020300D0
:105DC00008B5024B1B681B68019308BD4C02030019
:105DD00008B5024B1B685B68019308BD4C020300C9
:105DE00008B5024B1B681B69019308BD4C020300F8
:105DF00008B5024B1B685B69019308BD4C020300A8
:105E000008B5024B1B689B69019308BD4C02030057
:105E100008B5024B1B68DB69019308BD4C02030007
:105E200008B5024B1B681B6A019308BD4C020300B6
:105E300008B5024B1B685B6B019308BD6002030051
:105E400008B5024B1B681B6D019308BD600203007F
:105E500008B5024B1B685B68019308BD2002030074
:105E600008B5024B1B685B69019308BD2002030063
:105E700008B5034B1B68D3F88830019308BD0000B8
:105E80002002030008B5034B1B68D3F8943001933C
:105E900008BD00002002030008B5024B1B685B68C8
:105EA000019308BD4002030008B5024B1B689B68C4
:105EB000019308BD4002030008B5024B1B68DB6874
:105EC000019308BD4002030008B5024B1B681B6923
:105ED000019308BD4002030008B5024B1B685B69D3
:105EE000019308BD4002030008B5024B1B689B6983
:105EF000019308BD4002030008B5024B1B68DB6933
:105F0000019308BD4002030008B5024B1B681B6AE1
:105F1000019308BD4002030008B5024B1B689B6A51
:105F2000019308BD4002030008B5024B1B681B6BC0
:105F3000019308BD4002030008B5024B1B685B6B70
:105F4000019308BD4002030008B5024B1B681B6C9F
:105F5000019308BD4002030008B5024B1B685B6C4F
:105F6000019308BD4002030008B5024B1B685B6942
:105F7000019308BD4402030008B5024B1B68DB6BAC
:105F8000019308BD4402030008B5024B1B681B685F
:105F9000019308BD1C02030008B5024B1B685B6837
:105FA000019308BD1C02030008B5024B1B689B68E7
:105FB000019308BD1C02030008B5024B1B685B6A15
:105FC000019308BD1C02030008B5024B1B68DB6B84
:105FD000019308BD1C02030008B5024B1B681B6C33
:105FE000019308BD1C02030008B5024B1B685B6CE3
:105FF000019308BD1C020300002240681146FFF710
:1060000083BF002240681146FFF796BF4068002218
:10601000FFF78ABF4068002281F00101FFF76CBFE3
:10602000002340681A461946FFF75EBF0023406808
:106030001A461946FFF750BF002240681146FFF785
:1060400043BF002240681146FFF72EBF4068002280
:106050000221FFF731BF002340681A46FFF71CBF3B
:10606000024B03225A60024A1A607047C8E60320B6
:10607000EC8C0B000021FFF783BE0021FFF778BEF8
:1060800010B5044608462170FFF752FE00236360F6
:10609000204610BD13B504460078FFF7EEFF58B94F
:1060A000207801904FF6FF71FFF71AFE019802B0B9
:1060B000BDE81040FFF7DEBF02B010BD13B50446C7
:1060C00000780191FFF7D9FF019948B92078019034
:1060D000FFF70EFE019802B0BDE81040FFF7CABFFF
:1060E00002B010BD13B5044600780191FFF7C5FF5B
:1060F000019948B920780190FFF702FE019802B09B
:10610000BDE81040FFF7B6BF02B010BD0078FFF742
:10611000B1BF0000400830B51860002418688842FC
:10612000E5B206D90134082C02D040081860F5E722
:106130000725024B5B5D137030BD00BF208D0B0047
:106140002DE9F04306468FB000780C46FFF795FF27
:1061500000281BDB35781422002109A802F024F95D
:106160000B23002209A92846ADF82430FFF7F0FDE3
:106170009DF82D3013B19DF82C5055B10027B9462C
:10618000B846012523795DB1C3B100200FB0BDE849
:10619000F083DDF830809DF834909DF83570F1E79C
:1061A000002B35D1A368434508D18DF820908DF898
:1061B0002170BDF82020A3899A42E6D00023A1686F
:1061C0008DF80F300A9804AB0DF10F02FFF7A2FF14
:1061D000217985B989B9A36843450ED38DF82090FC
:1061E0008DF82170BDF82020A3899A4205D1049B27
:1061F000434502D1C9E70029F9D100230193637B0C
:1062000000939DF80F20237B3078FFF7A9FDBCE7B2
:10621000CDE900552B462A460121F5E72DE9F0414D
:1062200088B000230446007802930E461746FFF715
:1062300024FF054600BB94F800800146142203A801
:1062400002F0B2F80B232A4603A94046ADF80C3001
:10625000FFF77EFD04988DF8075002AB0DF10702A1
:1062600007FB06F1FFF756FF20789DF80710FFF7B0
:106270004FFD2078FFF7FEFE029808B0BDE8F081E0
:1062800038B5044600780D46FFF7F7FE0346D0B94F
:10629000616899B10C4A12F8010B854202D00133B2
:1062A000082BF8D10133DBB20122D9402046FFF799
:1062B000B5FF2078BDE83840FFF7DCBE20782946DE
:1062C000FFF726FDF5E738BD208D0B0008B50078F7
:1062D000FFF726FDC0B208BDB0F90020531C0BD05B
:1062E000438880888B4203D88842034628BF0B46E8
:1062F000194690B2FFF75CBD704713B504460846D7
:10630000B4F90610B4F90820884210DB9042A8BF07
:106310001046A3880093638800F0BEFAE168014448
:1063200089B2204602B0BDE81040FFF7D5BF08464D
:10633000EFE70000044A4FF41663C0E90023B423DA
:1063400003810023C3607047FFFF200208B5FFF7F9
:10635000F1FF08BD10B50446B0F90000431C07D09A
:1063600080B2FFF71DFD2046FFF7E4FF012010BDBE
:106370000020FCE72DE9F0410D46044602212846A5
:1063800090461F46FFF77CFB022803D000263046CC
:10639000BDE8F081284601F01DF906460028F5D039
:1063A000B4F90030013302D02046FFF7D3FFBDF926
:1063B0001830E380BDF91C302580A4F80280A78046
:1063C00023812846FFF7E4FCE1E70000054B0222A9
:1063D0001A60054B054A9A600020C3E90000FFF7E8
:1063E00037BD00BFDCE60320D0E603200000FFFF3E
:1063F00010B5044602F020F80138231820468342E5
:1064000006D90278197800F8011B03F80129F6E78C
:1064100010BD70B50C46911E22291DD8254630B9F5
:10642000234430229D4210D205F8012BFAE7B0FB3D
:10643000F2F602FB1600C1B2092894BF3031573181
:10644000C9B205F8011B3046E9E7002320462B704E
:10645000FFF7CEFF204670BD0020FCE738B5031ED5
:106460000C4615460EDAB3F1004F4FF02D0214BF63
:106470005842184601230A702A461944FFF7C9FFFB
:10648000204638BD0123F9E710B504460068FFF740
:1064900083FD204610BD10B50446006808B1FFF723
:1064A0007BFD0023C4E90133236010BD38B50446E9
:1064B0000D4600680131FFF777FD10B1C4E9000512
:1064C000012038BD10B50368044623B143688B42F0
:1064D00001D3012010BD2046FFF7E8FF0028F9D0C6
:1064E000A368002BF5D122681370F2E737B50D468B
:1064F000114601920446FFF7E5FF019A28B92046AC
:10650000FFF7C9FF204603B030BDA26029462068CE
:1065100001F03CFF2268A3680021D154F2E7002378
:1065200013B5C0E9003304468360037341B10846E4
:10653000019101F081FF019902462046FFF7D6FF45
:10654000204602B010BD38B5054600680C4668B15B
:106550006A688B689A4207D3096801F065FFA368EF
:10656000AB600023A36038BDFFF716FD23682B60E6
:1065700063686B60A368AB600023C4E90033F1E794
:10658000884210B5044605D00B682BB18A681946BD
:10659000FFF7ACFF204610BDFFF77DFFFAE710B50F
:1065A00000230446C0E9003383600373FFF7E8FF6C
:1065B000204610BD884210B5044601D0FFF7C3FF46
:1065C000204610BD13B5044659B10846019101F0AB
:1065D00033FF019902462046FFF788FF204602B0AC
:1065E00010BDFFF758FFF9E710B504468AB0002345
:1065F000C4E90033A3602373084601A9FFF72EFF07
:1066000001A92046FFF7DEFF20460AB010BD70B595
:1066100005460E4609B9002070BD6AB1846814446D
:106620002146FFF74FFF0028F5D02868AB683146B8
:10663000184401F0F9FEAC600120EDE707B5002336
:106640008DF80410012201A98DF80530FFF7DFFF56
:1066500003B05DF804FB10B58A6809680446FFF7CB
:10666000D6FF10B92046FFF716FF204610BD13B520
:10667000044629B92046FFF70EFF204602B010BDA0
:106680000846019101F0D8FE019902462046FFF725
:10669000BEFF0028EED0F0E70EB470B587B00BADAA
:1066A000044655F8042B01922B46052104A80395B6
:1066B000FFF782FC0B4906462046FFF730FF3146C4
:1066C0002046FFF7FFFE206830B1019A03952B4664
:1066D000711CFFF771FCA060204607B0BDE8704058
:1066E00003B0704776860B00024800230360FFF773
:1066F0000FBA00BFE0E60320F8B506460D468F1836
:106700000024BD420CD0336815F8011B9B6830464D
:106710009847031E01DB1C44F3E7002C08BF1C460E
:106720002046F8BD13B50446084659B1019101F061
:1067300083FE23680199DB680246204602B0BDE86B
:106740001040184702B010BD08B5FFF7EBFF08BDB9
:1067500003689B68184738B50D210546FFF7F8FF19
:106760000A2104462846FFF7F3FF204438BD38B518
:106770000546FFF7D7FF04462846FFF7ECFF204405
:1067800038BD30B58BB00023012A8DF8243098BF76
:106790000A2209AC0D46B1FBF2F101FB125303F0E2
:1067A000FF03092B94BF30333733DBB2AA4204F81E
:1067B000013DEFD92146FFF7B5FF0BB030BD2DE904
:1067C000F04186B000AF05460E46381D1421144630
:1067D0003B60FFF7F1FB13280ED8391D2846FFF761
:1067E000A1FF04461EB12846FFF7B5FF044420462A
:1067F0001837BD46BDE8F08100F1080323F0070318
:10680000E846ADEB030D2246411C3B686846FFF7A6
:10681000D3FB69462846FFF785FF0446C546E1E7F6
:1068200010B50446FFF76CF9E060236820465B6909
:106830009847002808DAFFF763F9E368C01AA368ED
:106840009842F2D34FF0FF3010BD000038B50D462E
:1068500007490446FFF763FE2846FFF7E1FF0028DB
:1068600004DBC1B22046FFF7E9FEF5E7204638BD5C
:1068700076860B00014B024A1A607047E4E603205B
:10688000308D0B00024B1A68024B1A60704700BF34
:10689000F0E40320E8E603208A4210B507D0441A4A
:1068A0000298C01A4443501A94FBF0F0184410BDEB
:1068B0002DE9F04F55EC114B57EC126B85B011EEF2
:1068C000102A12EE100A2B4639468DED020B8DED83
:1068D000004B5BEC13AB01F0D1FC9DED020B38BB20
:1068E00051EC100B22462B4601F0A8F85246804688
:1068F00089465B46DDE9000101F0A0F802460B463F
:106900004046494601F052FA2246804689462B46C7
:106910003046394601F092F802460B464046494659
:1069200001F06EFB52465B4601F08AF841EC100B19
:1069300005B0BDE8F08F0021FFF792BA014B0022AD
:106940009A607047ECE60320014B1860704700BF67
:10695000F4E4032008B50B4B43B100F07DF9036864
:106960001B699847002801DDAFF30080064B43B157
:1069700000F0E8FE03681B699847002801DDAFF3CB
:10698000008008BD000000000000000008B5FFF70F
:10699000E1FFFFF7B5F8014B186008BD44E703209D
:1069A0000548064A064908B5121A01F0EFFC054BE6
:1069B000054A1A6008BD00BF00F4032004F4032058
:1069C000C4900B0000F403201E1C279A07B5002377
:1069D00000931A466FF07701FFF754FA03B05DF8A1
:1069E00004FB000007B543880A2B08D0502B0BD1BD
:1069F000094B1B684BB103B05DF804EB1847FFF778
:106A0000E5FF03B05DF804FB002300931A466FF026
:106A10007701FFF737FAF4E700E7032010B51248D3
:106A20000021FFF7E1FA114B1A68114B9A42114B02
:106A30000CBF012200221A7001D0FFF7B1FFFFF74F
:106A40004FF8044601F0B8FC0B4B13B12046AFF3EE
:106A5000008000210848FFF78FFABDE81040074882
:106A60000021FFF705BA00BF49690B0000F40320BD
:106A70001E1C279AFCE6032000000000E5690B00BD
:106A8000704710B518210446FDF709FB204610BDDC
:106A9000F0B5037D062B8DB00E4600F104074FF0D4
:106AA000000412D000F1080515F8011D0A22304635
:106AB000FFF767FEAF42044419D0002CF4D02E211A
:106AC0003046FFF745FE0444EEE72F236A46394679
:106AD0000A208DF80040FFF723F8684601F0ACFC6F
:106AE00033680246DB6869463046984704462046CC
:106AF0000DB0F0BD10B5054B0446112240F8043B23
:106B0000002101F051FC204610BD00BF588D0B0044
:106B10000346074A10B543F8042B01F1100251F85F
:106B2000044B43F8044B9142F9D10A781A7010BD16
:106B3000588D0B00037D042B04D14068003818BF2A
:106B400001207047062B07D143683BB983682BB9F6
:106B5000C3681BB90069F1E7002070470120704746
:106B600010B59DF8084044EA032343EA024242EA92
:106B7000016104234160037510BD000007B5064B99
:106B80000360CB7800938B784A780978FFF7E8FFA9
:106B900003B05DF804FB00BF588D0B0041747047D3
:106BA0007047704708B50021007CFFF729F940EADB
:106BB000E07008BD08B50121007CFFF721F940EA2B
:106BC000E07008BD08B5007CFFF712F920EAE0701C
:106BD00008BD08B5007CFFF703F920EAE07008BDA6
:106BE00013B50446007C0191FFF702F900280199D2
:106BF00001DC607C20B1207CFFF70AF920EAE0701C
:106C000002B010BD007CFFF70BB910B5142104468B
:106C1000FDF745FA204610BD10B54FF47A730446CF
:106C200008460021C4E90113044B236001232074AA
:106C300063741146FFF7C4F8204610BD6C8D0B003D
:106C4000007C0022FFF7C4B810B5142204460021CE
:106C500001F0AAFB204610BD10B50F4C88B003A868
:106C6000FFF7F2FF2178BFF35B8F11F001010FD125
:106C700020460191FDF722FA019948B103AA07487D
:106C8000FFF7CAFF2046FDF71EFA054801F078FB22
:106C9000024808B010BD00BF04E7032008E7032046
:106CA000A16B0B0070474174704708B5007CFEF77C
:106CB0007FFF20EAE07008BD08B5007CFEF750FFBA
:106CC00020EAE07008BD08B5007CFEF759FF40EAF5
:106CD000E07008BD08B5007CFEF74AFF40EAE070AE
:106CE00008BD007CFEF754BF37B5457C04462DB186
:106CF000207C03B0BDE83040FEF72ABF007C019144
:106D0000FEF756FF00280199F2DC284603B030BD9B
:106D100010B514210446FDF7C2F9204610BD00004D
:106D200010B54FF47A730446084611460022C4E9B0
:106D30000123044B2360012320746374FEF740FF9A
:106D4000204610BD9C8D0B007047F8B506461546D1
:106D50000C468F18BC4206D0336814F8011B9B68A0
:106D600030469847F6E72846F8BD007C0022FEF73B
:106D700047BF007C0021FEF74BBF007C0021FEF7DF
:106D80004FBF007C0021FEF753BF007C0021FEF7BF
:106D900057BF10B514210446FDF781F9204610BDF8
:106DA00038B5044615464FF47A730022C4E901232E
:106DB000094B2174084623602946FEF751FFBF3076
:106DC00008D16B69DB0705D56868FFF7E5F8E86867
:106DD000FFF7E2F8204638BDCC8D0B000023007C85
:106DE0001A461946FEF7F4BE7FB500221423CDE9FA
:106DF0000122ADF804300B788DF808304B6803930E
:106E0000CB680493007C0B7A059301A9FEF730FF51
:106E100007B05DF804FB1FB5003B8DF800104FF084
:106E20006401039118BF0123694601928DF808306F
:106E3000FFF7DAFF05B05DF804FB0123FFF7EBBFB6
:106E4000007C0022FEF7CCBEC9B2FFF7F9BF007C80
:106E50000022FEF7CDBE0121FFF7F9BF13B503688D
:106E60008DF80710DC6B01224FF0FF330DF10701A5
:106E7000A04702B010BD10B40368DC6B4FF0FF33C5
:106E8000A4465DF8044B604713B5134602688DF8BD
:106E90000710D46B0DF107010122A04702B010BD0D
:106EA00010B54369B3F88620B3F884309A4204469B
:106EB00008D06369B3F88420511CA3F884101344EC
:106EC000187910BD03681B6998470028F1D14FF06D
:106ED000FF30F6E7704743691868C043C00F70473A
:106EE00070470000064B994210B500F10C0405D024
:106EF000084600F08DFC002808BF0024204610BD85
:106F0000288D0B0010B5AC210446FDF7C8F82046CB
:106F100010BDAC21FDF7C3B82DE9F0414FF00008DA
:106F200086B01C46C0F8048005460E46174641460A
:106F3000102202A801F038FA631C09D04FF47A73CA
:106F4000B4FBF3F203FB1244CDE902285C43049442
:106F5000686910230093006802AB41F2050240F615
:106F6000FF71FEF78DFE002807DAFFF72DF80368A2
:106F70006B60002006B0BDE8F081686900230068FE
:106F80003A463146FEF79CFE031EEEDB1846F1E75B
:106F900030B587B0044601AD6846FFF7EFFD0FCD71
:106FA00004340FC42B68237007B030BD70B54D6931
:106FB000054B04468C3544F8043B06460FCD0FC400
:106FC0002B682370304670BD588D0B002DE9F043BF
:106FD0009846036893B00D460024DB6A06461746C0
:106FE000984728466B46224621460094FEF740FD0E
:106FF0000546002863D1009B002B4BD05B69002B1A
:1070000048D006A8FFF776FD009B5C696378022BE9
:1070100004D1211D06A8FFF7BBFF26E00A2B24D1CF
:107020001122294601A801F0BFF9A368002B38D02E
:1070300004F108030DF1040C18341868596862460D
:1070400003C20833A3429446F7D1062301A90CA832
:107050008DF81430FFF75CFD0DF1340CBCE80F0027
:1070600007AC0FC4DCF80030237006A8FFF762FD00
:1070700080B1336807ADD3F82090124B0C930FCD3D
:107080000DAC0FC42B6823703A4643460CA930461A
:10709000C84705460098FEF7E3FC284613B0BDE854
:1070A000F083E368002BC3D14FF6FF70D4F8109043
:1070B000FEF73EFD8145BBD104F11401AAE7254648
:1070C000E8E700BF588D0B0038B543691A68002AFD
:1070D000054610DAB3F88620B3F884309A420AD114
:1070E00003681B699847044628B92B682846DB6A61
:1070F0009847204638BD0120FCE710B54369B3F836
:107100008620B3F884309A42044605D06369B3F808
:1071100084201344187910BD03681B699847002820
:10712000F4D14FF0FF30F6E7F8B543691746B3F8EE
:107130008620B3F884309A4205460E4616D0696917
:10714000B1F88430B1F88640E41ABC4228BF3C460E
:10715000043322461944304601F018F96A69B2F83E
:1071600084302344A2F884302046F8BD03681B69AC
:1071700098470028E3D14FF0FF34F5E74269002338
:10718000A2F884304269A2F8863070472DE9F041B8
:107190001F4603680C46DB6A8AB0054616469847C8
:1071A000237DD5F81480042B0CBF02200A20062270
:1071B0000121FEF78DFDC8F800006B691B68002BEC
:1071C00008DA2B682846DB6A0024984720460AB074
:1071D000BDE8F0812846FFF7D1FFB7B1002303A92E
:1071E000F8B20393ADF81030FEF772FC0028E8D136
:1071F000686906230093006803AB41F20B0240F676
:10720000FF71FEF73DFD0028DBD11C22002103A801
:1072100001F0CAF8237D042B1DD14FF407733046CB
:10722000ADF80C30FEF78CFCADF80E006068FEF790
:107230007FFC04906B691C22186803A9FEF730FDDF
:107240000028BED104340FCC6D698C350FC523687E
:107250002B700124BAE740F61C233046ADF80C3001
:10726000FEF76EFC05AEADF80E00231D04F1140709
:1072700018685968324603C20833BB421646F7D134
:10728000D8E7000030B54269B2F886308BB00446CA
:107290002BB1B2F884209A4201D1FFF76FFF6169E8
:1072A0000868002818DBB1F886507F2D14D8043107
:1072B0000823C5F180022944FEF7FAFC002813DDFB
:1072C0006369B3F886200AB9A3F884206369B3F828
:1072D00086201044A3F886006369B3F88600B3F8EB
:1072E0008430C01A0BB030BDFEF76EFE03680B2B66
:1072F000F2D0FEF769FE03680B2BEDD020230025AA
:10730000CDE90235FEF760FE03680193084B094999
:10731000009302AA2B463220FEF792FD636918689B
:10732000FEF7B6FC63694FF0FF321A60D4E700BF86
:10733000F38D0B00EC8D0B0010B543690446186803
:10734000002801DBFEF7A4FC63694FF0FF321A60EE
:107350006069112200218C3001F026F82046BDE83A
:107360001040FFF70BBF10B5002304460160C0F8C2
:1073700084308830FFF7BEFB204610BD73B5002374
:107380004FF47A72C0E901320E4A03610260436130
:107390000446AC200191FCF77EFE051E05F10C06AB
:1073A00008D00123C5E90133074B01992B60304612
:1073B000FFF7D9FF2046C4E90565FFF7DFFE02B0FD
:1073C00070BD00BF288E0B000C8E0B0010B54FF067
:1073D000FF310446FFF7D2FF204610BD10B504462A
:1073E0000068002801DBFEF753FC204610BD0C307E
:1073F000FFF7F4BF002240681146FEF765BD00228A
:1074000040681146FEF780BD002240681146FEF735
:1074100093BD40680022FEF787BD4068002281F0DE
:107420000101FEF769BD002340681A461946FEF7C0
:107430005BBD002340681A461946FEF74DBD002289
:1074400040681146FEF730BD406800220221FEF779
:1074500033BD002340681A46FEF71EBD024B0422CE
:107460005A60024A1A6070471CE70320748E0B00B2
:10747000002340681A46FEF70FBD40680022022133
:10748000FEF71ABD002240681146FEF70DBD00222E
:1074900040681146FEF718BD002340681A46194699
:1074A000FEF71ABD002340681A461946FEF71CBDB8
:1074B00040680021FEF748BD40680021FEF74CBD42
:1074C0004068002281F00101FEF716BD40680022ED
:1074D000FEF72ABD002240681146FEF72DBD0022AE
:1074E00040681146FEF710BD2DE9F04395B01446F3
:1074F0000D460746FFF7FEFA00211C220DA8009159
:1075000000F052FF40230C9320466B460CAA00214A
:10751000FEF7AEFA044600284BD102460121686806
:10752000FEF7D2FC0221804622466868FEF7CCFCBA
:10753000009E81462146002E3BD0002939D1736838
:10754000022B03D00A2B11D0F669F4E7B8F1000F33
:10755000FAD0716906A8043107ADFFF70FFB0FCD14
:107560003C1D0FC42B6823704146EDE7B9F1000FB5
:10757000EAD07469102201A800F016FF06238DF8E6
:10758000143001AD04F108031834186859682A460C
:1075900003C20833A3421546F7D101A906A807ADD7
:1075A000FFF7B6FA0FCD3C1D0FC42B682370494678
:1075B000CAE70098FEF754FA384615B0BDE8F083E4
:1075C000024B034A1A6000225A60704724E70320E6
:1075D000B08E0B00232813B502D9002002B010BDD5
:1075E000A0F10B03022B1AD8174C2178BFF35B8F45
:1075F00011F001010BD120460191FCF75FFD0199CB
:1076000028B11248FEF73CFD2046FCF75CFD0F4B0D
:107610001878FEF795FB0028DFD10120DEE701286E
:1076200009D800F0CFF80021007CFEF711FB80F0B4
:107630000100C0B2D2E709380128EED800F082F884
:10764000007CFEF7ADFAF2E7BCE60320C0E60320BB
:10765000232838B504460D460AD8FF2908D0FFF77D
:10766000B9FF28B129462046BDE83840FEF710BAD8
:1076700038BD38B504460D46FEF712FAFF2810D083
:10768000062804D84D2323FA00F0C30709D4204666
:10769000FFF7A0FF28B129462046BDE83840FEF795
:1076A00007BA38BD10B50446FEF7FAF9031FDBB27E
:1076B000012B08D92046FFF78DFF20B12046BDE8F9
:1076C0001040FEF7FDB9002010BD2DE9F0419046B5
:1076D0001F46072406460D46C4F10701B8F1000F06
:1076E00012D147FA01F101F001013046FFF7C1FF65
:1076F00001212846FFF7BDFF00212846FFF7B9FF0B
:10770000013CE9D2BDE8F08147FA04F1EBE77047AC
:1077100038B5044614252A46002100F045FE258090
:107720004025074925812846258200F06FF8044945
:107730006060284600F06AF8E060204638BD00BF6F
:10774000E48E0B0030B50E4D2978BFF35B8F11F03E
:10775000010487B011D12846FCF7B0FC68B101A83C
:10776000FFF7D6FF01AA21460648FFF7D9FA2846B7
:10777000FCF7A9FC044800F003FE024807B030BD46
:107780002CE7032030E703200F770B007047000041
:1077900038B50A4B036001230446436108492020A1
:1077A00000F034F8202560600549A560284600F007
:1077B0002DF8C4E90305204638BD00BF18000100BC
:1077C000E48E0B0030B50E4D2978BFF35B8F11F0BE
:1077D000010487B011D12846FCF770FC68B16846F7
:1077E000FFF7D6FF6A4621460648FFF7D9FA284632
:1077F000FCF769FC044800F0C3FD024807B030BD47
:1078000048E703204CE703208D770B00FCF745BCCD
:10781000014900F0F9B800BF008F0B007FB50024CC
:107820001023CDE90234036815469E6912686B4641
:10783000CDE90044B0479DF8043003F00603062B61
:1078400003BF009B2B600120204604B070BD009850
:10785000904214BF012006207047000010B5034B72
:107860000360044600F0CDF8204610BD408F0B00A9
:1078700010B50446FFF7F2FF20460821FCF70FFC85
:10788000204610BD2DE9F0411F46DDE90834DDF842
:10789000188098450646154607D1079900F0B4F8B8
:1078A00018B165710020BDE8F0813946304600F01E
:1078B000ABF80028F6D00123C4F800802571A3712D
:1078C000F0E738B515461C4600F09EF820B10823B5
:1078D000E36006232560237138BD73B505460C4669
:1078E00001921E4600F090F850B9032E08D8236884
:1078F000019A5B692946204602B0BDE870401847EE
:1079000002B070BD10B5034B03600446FFF7A6FF3D
:10791000204610BDA08F0B0010B50446FFF7F2FF04
:1079200020460C21FCF7BBFB204610BDF7B5089F95
:10793000974205460E4614460AD0A8680268089782
:10794000156A31462246AC4603B0BDE8F0406047B8
:107950001946019300F058F8019B0028EDD006204D
:1079600003B0F0BD2DE9F14F0D461946DDE90A4B94
:10797000DDE90CA681461746984600F045F890B11F
:10798000002D3460377109DB61198A450CBF06216F
:107990000121B171002001B0BDE8F08F0235F9D1AD
:1079A0000123B371F6E7544506D15946484600F025
:1079B0002BF808B17771EDE7D9F808000368CDE935
:1079C0000CA6CDE90A4BDC693A4643462946A44653
:1079D00001B0BDE8F04F60472DE9F04107460C4685
:1079E00015461E46FFF76DFF48B9B86803689F69E2
:1079F0002A4633462146BC46BDE8F0416047BDE813
:107A0000F081704700207047814208B50ED0406871
:107A100003782A2B0CD049680B782A2B08BF013138
:107A200000F0F8FCB0FA80F0400908BD0120FCE746
:107A30000020FAE781F0004102E000BF83F000433C
:107A400030B54FEA41044FEA430594EA050F08BFF9
:107A500090EA020F1FBF54EA000C55EA020C7FEABD
:107A6000645C7FEA655C00F0E2804FEA5454D4EB3A
:107A70005555B8BF6D420CDD2C4480EA020281EA04
:107A8000030382EA000083EA010180EA020281EA3C
:107A90000303362D88BF30BD11F0004F4FEA01318E
:107AA0004FF4801C4CEA113102D0404261EB41019D
:107AB00013F0004F4FEA03334CEA133302D0524223
:107AC00063EB430394EA050F00F0A780A4F10104DF
:107AD000D5F1200E0DDB02FA0EFC22FA05F2801819
:107AE00041F1000103FA0EF2801843FA05F35941FF
:107AF0000EE0A5F120050EF1200E012A03FA0EFC7E
:107B000028BF4CF0020C43FA05F3C01851EBE371A7
:107B100001F0004507D54FF0000EDCF1000C7EEBC4
:107B200000006EEB0101B1F5801F1BD3B1F5001F02
:107B30000CD349085FEA30004FEA3C0C04F1010421
:107B40004FEA445212F5800F80F09A80BCF1004F4A
:107B500008BF5FEA500C50F1000041EB045141EACC
:107B6000050130BD5FEA4C0C404141EB0101013C95
:107B700028BFB1F5801FE9D291F0000F04BF014684
:107B80000020B1FA81F308BF2033A3F10B03B3F156
:107B900020020CDA0C3208DD02F1140CC2F10C02E6
:107BA00001FA0CF021FA02F10CE002F11402D8BF44
:107BB000C2F1200C01FA02F120FA0CFCDCBF41EA10
:107BC0000C019040E41AA2BF01EB0451294330BDDF
:107BD0006FEA04041F3C1CDA0C340EDC04F11404BC
:107BE000C4F1200220FA04F001FA02F340EA030093
:107BF00021FA04F345EA030130BDC4F10C04C4F1D9
:107C0000200220FA02F001FA04F340EA03002946B8
:107C100030BD21FA04F0294630BD94F0000F83F402
:107C2000801306BF81F480110134013D4EE77FEAE5
:107C3000645C18BF7FEA655C29D094EA050F08BF31
:107C400090EA020F05D054EA000C04BF1946104612
:107C500030BD91EA030F1EBF0021002030BD5FEA56
:107C6000545C05D14000494128BF41F0004130BD7E
:107C700014F580043CBF01F5801130BD01F00045D2
:107C800045F0FE4141F470014FF0000030BD7FEA45
:107C9000645C1ABF194610467FEA655C1CBF0B4640
:107CA000024650EA013406BF52EA033591EA030F57
:107CB00041F4002130BD00BF90F0000F04BF00214F
:107CC000704730B54FF4806404F132044FF0000582
:107CD0004FF0000150E700BF90F0000F04BF0021FB
:107CE000704730B54FF4806404F1320410F0004561
:107CF00048BF40424FF000013EE700BF42004FEA5C
:107D0000E2014FEA31014FEA02701FBF12F07F43D8
:107D100093F07F4F81F06051704732F07F4208BF8F
:107D2000704793F07F4F04BF41F40021704730B596
:107D30004FF4607401F0004521F000411CE700BFE2
:107D400050EA010208BF704730B54FF000050AE065
:107D500050EA010208BF704730B511F0004502D566
:107D6000404261EB41014FF4806404F132045FEA68
:107D7000915C3FF4D8AE4FF003025FEADC0C18BF11
:107D800003325FEADC0C18BF033202EBDC02C2F103
:107D9000200300FA03FC20FA02F001FA03FE40EA95
:107DA0000E0021FA02F11444BDE600BF70B54FF099
:107DB000FF0C4CF4E06C1CEA11541DBF1CEA135577
:107DC00094EA0C0F95EA0C0F00F0DEF82C4481EADF
:107DD000030621EA4C5123EA4C5350EA013518BFFF
:107DE00052EA033541F4801143F4801338D0A0FBEC
:107DF00002CE4FF00005E1FB02E506F00042E0FB99
:107E000003E54FF00006E1FB03569CF0000F18BF9E
:107E10004EF0010EA4F1FF04B6F5007F64F5407446
:107E200004D25FEA4E0E6D4146EB060642EAC621D9
:107E300041EA55514FEAC52040EA5E504FEACE2E46
:107E4000B4F1FD0C88BFBCF5E06F1ED8BEF1004F49
:107E500008BF5FEA500E50F1000041EB045170BDC5
:107E600006F0004646EA010140EA020081EA030109
:107E7000B4EB5C04C2BFD4EB0C0541EA045170BD05
:107E800041F480114FF0000E013C00F3AB8014F17F
:107E9000360FDEBF002001F0004170BDC4F10004C8
:107EA000203C35DA0C341BDC04F11404C4F1200549
:107EB00000FA05F320FA04F001FA05F240EA0200A4
:107EC00001F0004221F0004110EBD37021FA04F6DA
:107ED00042EB06015EEA430E08BF20EAD37070BD94
:107EE000C4F10C04C4F1200500FA04F320FA05F0F3
:107EF00001FA04F240EA020001F0004110EBD370F5
:107F000041F100015EEA430E08BF20EAD37070BD64
:107F1000C4F1200500FA05F24EEA020E20FA04F33D
:107F200001FA05F243EA020321FA04F001F00041EC
:107F300021FA04F220EA020000EBD3705EEA430E5D
:107F400008BF20EAD37070BD94F0000F0FD101F08C
:107F50000046400041EB010111F4801F08BF013CC5
:107F6000F7D041EA060195F0000F18BF704703F003
:107F70000046520043EB030313F4801F08BF013D8A
:107F8000F7D043EA0603704794EA0C0F0CEA135546
:107F900018BF95EA0C0F0CD050EA410618BF52EA00
:107FA0004306D1D181EA030101F000414FF0000006
:107FB00070BD50EA410606BF1046194652EA430614
:107FC00019D094EA0C0F02D150EA013613D195EA88
:107FD0000C0F05D152EA03361CBF104619460AD1D0
:107FE00081EA030101F0004141F0FE4141F47001DA
:107FF0004FF0000070BD41F0FE4141F4780170BDCA
:1080000070B54FF0FF0C4CF4E06C1CEA11541DBF2E
:108010001CEA135594EA0C0F95EA0C0F00F0A7F830
:10802000A4EB050481EA030E52EA03354FEA01315D
:1080300000F088804FEA03334FF0805545EA131370
:1080400043EA12634FEA022245EA111545EA106538
:108050004FEA00260EF000419D4208BF964244F1CF
:10806000FD0404F5407402D25B084FEA3202B61AEE
:1080700065EB03055B084FEA32024FF480104FF4C2
:10808000002CB6EB020E75EB030E22BFB61A754636
:1080900040EA0C005B084FEA3202B6EB020E75EBC9
:1080A000030E22BFB61A754640EA5C005B084FEA31
:1080B0003202B6EB020E75EB030E22BFB61A7546FE
:1080C00040EA9C005B084FEA3202B6EB020E75EB09
:1080D000030E22BFB61A754640EADC0055EA060ECA
:1080E00018D04FEA051545EA16754FEA06164FEA0D
:1080F000C30343EA52734FEAC2025FEA1C1CC0D1B9
:1081000011F4801F0BD141EA00014FF000004FF045
:10811000004CB6E711F4801F04BF01430020B4F106
:10812000FD0C88BFBCF5E06F3FF6AFAEB5EB030CBE
:1081300004BFB6EB020C5FEA500C50F1000041EBBB
:10814000045170BD0EF0004E4EEA113114EB5C0488
:10815000C2BFD4EB0C0541EA045170BD41F480115B
:108160004FF0000E013C90E645EA060E8DE60CEA63
:10817000135594EA0C0F08BF95EA0C0F3FF43BAF80
:1081800094EA0C0F0AD150EA01347FF434AF95EA37
:108190000C0F7FF425AF104619462CE795EA0C0F1B
:1081A00006D152EA03353FF4FDAE1046194622E7E8
:1081B00050EA410618BF52EA43067FF4C5AE50EAC2
:1081C00041047FF40DAF52EA43057FF4EBAE12E7B2
:1081D0004FF0FF3C06E000BF4FF0010C02E000BF93
:1081E0004FF0010C4DF804CD4FEA410C7FEA6C5C76
:1081F0004FEA430C18BF7FEA6C5C1BD001B050EA19
:10820000410C0CBF52EA430C91EA030F02BF90EA03
:10821000020F0020704710F1000F91EA030F58BFC2
:10822000994208BF90422CBFD8176FEAE37040F024
:10823000010070474FEA410C7FEA6C5C02D150EAC2
:10824000013C07D14FEA430C7FEA6C5CD6D152EA7D
:10825000033CD3D05DF8040B704700BF8446104642
:1082600062468C461946634600E000BF01B5FFF741
:10827000B7FF002848BF10F1000F01BD4DF808ED11
:10828000FFF7F4FF0CBF012000205DF808FB00BFE2
:108290004DF808EDFFF7EAFF34BF012000205DF83C
:1082A00008FB00BF4DF808EDFFF7E0FF94BF012089
:1082B00000205DF808FB00BF4DF808EDFFF7CEFF8A
:1082C00094BF012000205DF808FB00BF4DF808EDC9
:1082D000FFF7C4FF34BF012000205DF808FB00BF9A
:1082E0004FEA4102B2F1E04324BFB3F5001CDCF1D8
:1082F000FE5C0DD901F0004C4FEAC0024CEA507010
:10830000B2F1004F40EB830008BF20F0010070473E
:1083100011F0804F21D113F13872BCBF01F0004041
:10832000704741F480114FEA5252C2F11802C2F173
:10833000200C10FA0CF320FA02F018BF40F00100F4
:108340004FEAC1234FEAD32303FA0CFC40EA0C00A6
:1083500023FA02F34FEA4303CCE77FEA625307D1E3
:1083600050EA01331EBF4FF0FE4040F4400070471A
:1083700001F0004040F0FE4040F40000704700BFB4
:10838000002301461A46184600F05EB80A4491429E
:1083900000F1FF3300D1704710B511F8014B03F81D
:1083A000014F9142F9D110BD02440346934200D1DE
:1083B000704703F8011BF9E738B5104B1D68AB6B2C
:1083C0000446B3B91820FDF7DFFD0246A86320B9C3
:1083D0000B4B0C484221FDF7FFFD0B490B4BC0E94D
:1083E00000130B4B83600B23838100210120C2E922
:1083F0000401AB6B00221C615A6138BDF4E4032018
:10840000D98F0B00F08F0B000E33CDAB34126DE61D
:10841000ECDE050010F8012B11F8013B012A28BF02
:108420009A42F7D0D01A7047034611F8012B03F88F
:10843000012B002AF9D17047034613F8012B002ABB
:10844000FBD1181A013870472DE9F843DFF8B880DE
:108450000646D8F800001F460D46914600F056F833
:10846000254B1C6834B9254C1C60254B13B11B6887
:10847000C4F8883063681F2B07DDD8F8000000F0CF
:1084800047F84FF0FF30BDE8F8834EB3D4F88800CA
:1084900088B91C4B23B9D8F8000000F038F8F0E791
:1084A0004FF48470FDF770FD0028F4D00023C0E97C
:1084B0004033C4F88800636840F8239001229A4052
:1084C00000EB8301D0F800311343C0F80031022ED5
:1084D000C1F8807002BFD0F804311343C0F80431F2
:1084E0006368D8F800005A1C0233626044F82350D5
:1084F00000F00EF80020C6E7ECE7032060E7032059
:1085000000000000895F0B0058E5032070477047AA
:108510007047000021400B005D400B0085400B00C0
:1085200089400B000000000043616C6C206F6E20DE
:1085300070757265207669727475616C004E6F207B
:108540004368616E6765202D2043616E63656C6CC6
:10855000696E6720434D440A007B226F6E223A7495
:108560007275652C22736174223A002C2262726942
:10857000223A002C22687565223A007B226F6E2217
:108580003A66616C73657D0053656E64696E672041
:10859000436F6D6D616E6420746F20487565005087
:1085A0005554202F6170692F002F6C6967687473B0
:1085B0002F002F737461746520485454502F312E4E
:1085C00031006B6565702D616C69766500486F736D
:1085D000743A2000436F6E74656E742D4C656E673F
:1085E00074683A2000436F6E74656E742D54797010
:1085F000653A20746578742F706C61696E3B6368AE
:1086000061727365743D5554462D380046726F6D26
:108610002048756500496F544E6574776F726B0022
:1086200041626F757420746F20617474656D70742D
:1086300020746F20636F6E6E6563742E2E2E0A0099
:108640002E00424D453238302061742061646472DE
:1086500065737320307825303258206661696C6507
:108660006420746F20737461727400436F6E6E6562
:1086700063746564210A00252E32663B252E32661E
:10868000004E6F74206C6976653A2025730A0043AA
:108690006C6F7365642E2E2E0A543A20252E326696
:1086A000460A52483A252E3266252520004F70652D
:1086B0006E28736868290A543A20252E3266460AC5
:1086C00052483A252E3266252520004F70656E21CE
:1086D0000A543A20252E3266460A52483A252E324E
:1086E00066252520002573004D516C5A7A69524F3A
:1086F00030576169354D734D486C6C387841554140
:10870000517177383551727238744D33374633545E
:10871000003139322E3136382E312E3500646566FF
:1087200061756C7420004D5342004C5342003C5321
:10873000504953657474696E67732064656661752A
:108740006C743E003C53504953657474696E677392
:108750002025732575202573204D4F444525753EF2
:108760000000000000000000000000009D480B0019
:108770008D480B008F480B00000000000000000037
:10878000D9520B0069530B00D5590B00F9660B0049
:10879000DD520B00ED560B0065510B00F54F0B0041
:1087A000AB570B0049580B007F580B009B580B0030
:1087B00000000000003E5B4F5B3E3E6B4F6B3E1C7B
:1087C0003E7C3E1C183C7E3C181C577D571C1C5E92
:1087D0007F5E1C00183C1800FFE7C3E7FF00182469
:1087E0001800FFE7DBE7FF30483A060E2629792913
:1087F00026407F050507407F05253F5A3CE73C5A48
:108800007F3E1C1C08081C1C3E7F14227F22145F24
:108810005F005F5F06097F017F006689956A60607F
:1088200060606094A2FFA29408047E040810207E79
:10883000201008082A1C08081C2A08081E101010FE
:10884000100C1E0C1E0C30383E3830060E3E0E0644
:10885000000000000000005F000000070007001497
:108860007F147F14242A7F2A122313086462364956
:108870005620500008070300001C2241000041223E
:108880001C002A1C7F1C2A08083E08080080703043
:1088900000080808080800006060002010080402B2
:1088A0003E5149453E00427F4000724949494621B8
:1088B00041494D331814127F1027454545393C4A2C
:1088C0004949314121110907364949493646494943
:1088D000291E00001400000040340000000814228B
:1088E00041141414141400412214080201590906F9
:1088F0003E415D594E7C1211127C7F494949363EFA
:10890000414141227F4141413E7F494949417F09DF
:108910000909013E414151737F0808087F00417FEA
:1089200041002040413F017F081422417F404040E8
:10893000407F021C027F7F0408107F3E4141413E80
:108940007F090909063E4151215E7F091929462602
:108950004949493203017F01033F4040403F1F2006
:1089600040201F3F4038403F6314081463030478DD
:1089700004036159494D43007F41414102040810FD
:1089800020004141417F0402010204404040404038
:10899000000307080020545478407F2844443838A6
:1089A00044444428384444287F3854545418000818
:1089B0007E090218A4A49C787F0804047800447DF2
:1089C00040002040403D007F1028440000417F408F
:1089D000007C047804787C080404783844444438E3
:1089E000FC1824241818242418FC7C0804040848C3
:1089F0005454542404043F44243C4040207C1C2014
:108A000040201C3C4030403C44281028444C90906E
:108A1000907C4464544C44000836410000007700C8
:108A200000004136080002010204023C2623263CD5
:108A30001EA1A161123A4040207A38545455592160
:108A4000555579412154547841215554784020544A
:108A50005579400C1E527212395555555939545496
:108A6000545939555454580000457C410002457D05
:108A7000420001457C40F0292429F0F0282528F007
:108A80007C545545002054547C547C0A097F49325B
:108A9000494949323248484832324A4848303A41D6
:108AA00041217A3A42402078009DA0A07D3944447B
:108AB00044393D4040403D3C24FF2424487E494306
:108AC000662B2FFC2F2BFF0929F620C0887E090377
:108AD00020545479410000447D413048484A32389E
:108AE0004040227A007A0A0A727D0D19317D2629CA
:108AF000292F28262929292630484D4020380808C2
:108B0000080808080808382F10C8ACBA2F102834F5
:108B1000FA00007B000008142A142222142A1408E8
:108B2000AA005500AAAA55AA55AA000000FF0010E5
:108B30001010FF00141414FF001010FF00FF10109D
:108B4000F010F0141414FC001414F700FF0000FFE0
:108B500000FF1414F404FC141417101F10101F103D
:108B60001F1414141F00101010F0000000001F103C
:108B70001010101F10101010F010000000FF101047
:108B800010101010101010FF10000000FF14000053
:108B9000FF00FF00001F10170000FC04F41414175E
:108BA00010171414F404F40000FF00F71414141444
:108BB000141414F700F7141414171410101F101FB6
:108BC000141414F4141010F010F000001F101F0003
:108BD00000001F14000000FC140000F010F0101042
:108BE000FF10FF141414FF141010101F00000000D9
:108BF000F010FFFFFFFFFFF0F0F0F0F0FFFFFF00CD
:108C000000000000FFFF0F0F0F0F0F3844443844DF
:108C10007C2A2A3E147E02020606027E027E02633F
:108C2000554941633844443C04407E201E200602DE
:108C30007E020299A5E7A5991C2A492A1C4C7201BB
:108C4000724C304A4D4D303048784830BC625A46FC
:108C50003D3E494949007E0101017E2A2A2A2A2AED
:108C600044445F444440514A444040444A514000D7
:108C700000FF0103E080FF000008086B6B0836125C
:108C8000362436060F090F060000181800000010E1
:108C900010003040FF0101001F01011E00191D17C7
:108CA00012003C3C3C3C00000000000000000000C2
:108CB000000000000000000000000000D5590B007B
:108CC000F9660B00A5400B00ED560B0013580B0086
:108CD0002F580B00AB570B0049580B007F580B0067
:108CE0009B580B00000000000000000057600B00C4
:108CF0004D600B0043600B0039600B002D600B00D2
:108D000021600B00B1740B00B9740B0015600B00EF
:108D10000D600B0003600B00F95F0B00E9740B00A2
:108D20000008101820283038000000000000000063
:108D30006170700025592D256D2D25645425483A04
:108D4000254D3A2553257A0061736374696D65007A
:108D50000000000000000000916A0B00816A0B0017
:108D6000836A0B000000000000000000A36B0B00F2
:108D70000B6C0B00E16B0B00F9660B00D36B0B0067
:108D8000A56B0B00B56B0B00056C0B00C56B0B00E6
:108D90009D6B0B000000000000000000A56C0B00A4
:108DA000116D0B00E96C0B00F9660B00B96C0B0040
:108DB000D56C0B00C76C0B00E36C0B00A76C0B00B1
:108DC000AB6C0B000000000000000000496D0B00C0
:108DD000936D0B006B6D0B004B6D0B00736D0B00F7
:108DE0007B6D0B00836D0B008B6D0B0077697269D7
:108DF0006E670072656376206572726F72203D2027
:108E0000256400000000000000000000E16E0B007F
:108E1000056F0B00EF730B00136F0B00E56E0B007B
:108E2000000000000000000011410B0045410B0054
:108E30005D6E0B00776E0B0085720B00A16E0B0050
:108E4000FB700B00D56E0B008D710B00CD6F0B000E
:108E500029710B0039730B00C9700B00D76E0B0022
:108E6000896E0B00196F0B00AD6F0B000000000046
:108E70000000000053740B0049740B003F740B009A
:108E8000F5730B0033740B0027740B00B1740B00E7
:108E9000B9740B001B740B0013740B0009740B00E6
:108EA000FF730B00E9740B000000000000000000DD
:108EB00071740B007B740B0085740B008F740B00B6
:108EC00099740B00A5740B00B1740B00B9740B00FE
:108ED000C1740B00CD740B00D5740B00DF740B0054
:108EE000E9740B0000537431395F53705F6D616B2F
:108EF000655F7368617265645F746167000000009C
:108F0000408F0B00E58E0B00A08F0B00148F0B0021
:108F1000C48F0B004E31305F5F6378786162697691
:108F20003131375F5F636C6173735F747970655F54
:108F3000696E666F4500000000000000088F0B009E
:108F40005D780B0071780B00057A0B00057A0B0039
:108F5000DB780B001D780B00C3780B0085780B00C5
:108F60004F780B00A08F0B00708F0B00088F0B0049
:108F70004E31305F5F637878616269763132305F9D
:108F80005F73695F636C6173735F747970655F6948
:108F90006E666F450000000000000000648F0B004B
:108FA00005790B0019790B00057A0B00057A0B0087
:108FB000DB780B001D780B00D9790B0065790B006D
:108FC0002D790B00408F0B00CC8F0B00537439743C
:108FD0007970655F696E666F005245454E54206D2D
:108FE000616C6C6F632073756363656564656400B1
:108FF0002F6D6E742F776F726B73706163652F774F
:109000006F726B73706163652F4743432D31302D51
:10901000706970656C696E652F6A656E6B696E73D9
:109020002D4743432D31302D706970656C696E6535
:109030002D34385F32303230313132345F313630B6
:10904000363138303634312F7372632F6E65776C5A
:1090500069622F6E65776C69622F6C6962632F732A
:1090600074646C69622F72616E642E63000000008C
:10907000C5470B0061600B00CD630B00E9660B0078
:1090800075680B0085680B003D690B005D740B0073
:10909000C1750B000000000000000000000000008F
:1090A000040000001400000003000000474E5500BB
:1090B000BDE91D118AE4843BED8B2BDA28F79BDD9B
:0490C000B634304E44
:0490C40000000000A8
:1090C800C8AF0000E45700008CB900008813000006
:1090D80050C3000010270000FFFFFFFFFFFFFFFF46
:1090E80001000103070F1F3F7F0080C0E0F0F8FC7C
:1090F800FE0000000000000000000000000000006A
:109108000000000000000000000000000000000057
:109118000000000000000000000000000000000047
:109128000000000000000000000000000000000037
:1091380080808000000000000000000000000000A7
:1091480000008080C0C00000000000000000000097
:109158000000000000000000000000000000000007
:1091680000000000000000000000000000000000F7
:1091780000000000000000000000000000000000E7
:10918800000000000080C0E0F0F8FCF8E0000000FB
:1091980000000000000000000000000000008080C7
:1091A80080808000808000000000808080808000B7
:1091B800FFFFFF00000000808080800000808000AA
:1091C8000080FFFF80800080800080808080008099
:1091D800800000000000808000008C8E84000080E9
:1091E800F8F8F8800000000000000000000000000F
:1091F80000F0F0F0F0F0F0F0F0F0F0F0F0E0E0C0A7
:109208008000E0FCFEFFFFFF7FFFFFFFFFFF000085
:10921800000000000000000000000000FEFFC70181
:1092280001010183FFFF00007CFEC70101010183EA
:10923800FFFFFF0038FEC78301010183C7FFFF005E
:109248000001FFFF010100FFFF0701010100007F8E
:10925800FF80000000FFFF7F0000FFFFFF0000010C
:10926800FFFFFF01000000000000000000000000F8
:1092780000030F3F7F7FFFFFFFFFFFFFFFE7C7C729
:109288008F8F9FBFFFFFC3C0F0FFFFFFFFFFFCFCF6
:10929800FCFCFCFCFCFCF8F8F0F0E0C00001030367
:1092A8000303030103030000000001030303030198
:1092B800010301000000010303030301010303008C
:1092C800000003030000000303000000000000008A
:1092D8000103030303030100000001030100000070
:1092E800030301000000000000000000000000006F
:1092F8000000000080C0E0F0F9FFFFFFFFFF3F1F04
:109308000F87C7F7FFFF1F1F3DFCF8F8F8F87C7DB3
:10931800FFFFFFFFFFFFFFFF7F3F0F070030300019
:109328000000000000000000000000000000000035
:109338000000000000FEFEFC00000000000000002D
:109348000000000000000000000000000000E0C075
:1093580000000000000000000000003030000000A5
:1093680000000000000000000000000000000000F5
:109378000000C0FEFFFFFFFFFFFFFFFFFF7F7F3FF3
:109388001F0F071F7FFFFFF8F8FFFFFFFFFFFEF823
:10939800E0000000010000000000000000FEFE00E8
:1093A8000000FCFEFC0C06060EFCF80000F0F81CA1
:1093B8000E0606060CFFFFFF0000FEFE0000000080
:1093C800FCFEFC00183C7E66E6CE84000006FFFF2B
:1093D8000606FCFEFC0C0606060000FEFE0000C0A9
:1093E800F8FC4E4646464E7C7840183C76E6CECC95
:1093F80080000000000000000000000000000000E5
:10940800000000000001070F1F1F3F3F3F3F1F0FD5
:10941800030000000000000000000000000F0F0023
:1094280000000F0F0F000000000F0F000003070ED1
:109438000C18180C060F0F0F0000010F0E0C180C5B
:109448000F070100040E0C180C0F070000000F0F87
:1094580000000F0F0F0000000000000F0F000000B9
:1094680007070C0C181C0C060600040E0C180C0F31
:1094780007000000000000000000000000000000DD
:1094880000000000000000000000000000000000D4
:1094980000000000000000000000000000000000C4
:1094A80000000000000000000000000000000000B4
:1094B80000000000000000000000000000000000A4
:1094C8000000000000000000000000000000000094
:1094D8000000000000000000000000000000000084
:1094E8000000000000000000000000000000000074
:1094F80000000000488D0B00F8E403200000000085
:109508000000000000000000000000000000000053
:109518000000000000000000000000000000000043
:109528000000000000000000000000000000000033
:109538000000000000000000000000000000000023
:109548000000000000000000000000000000000013
:10955800000000000000000000000000F0E7032009
:10956800FFFFFFFF00000102030405060708090AC0
:109578000B0C0D0E0F101112131415161718191ABB
:089588001B1C1D1E1F20280002
:0495900078563412C3
:04000003B0004020E9
:00000001FF
