:02000002B0004C
:1040000000400B00B08A0B00000006000C00050207
:084010000401A60F00000000EE
:04401800C47C0B0059
:1040200009480A49884208B505D0094A824202D0A7
:10403000121A03F06FFD0748074A0021121A03F015
:1040400077FD014808BD00BF84E1032008860B000E
:1040500004E6032004E60320EDE7032070B5074ED5
:10406000074C02F0E3F9A41BA4080025AC4200D1E0
:1040700070BD56F8043B98470135F7E7B8850B004B
:10408000DC850B0000F076B808B500F0B1F8BDE8AB
:10409000084002F083B901F043BD01F041BD01F0D9
:1040A00047BD000008B5034A03490C2001F07CFC21
:1040B000FEE700BFE9560B00D87C0B000078B0FA91
:1040C00080F0400970470123037070470EB403B5B8
:1040D00003AB002153F8042B019302F0A2F802B0C5
:1040E0005DF804EB03B0704710B5044658B10128E1
:1040F00017D00021042002F08EFF0021032002F0DF
:104100008AFF012108E00121042002F084FF2146FA
:10411000032002F080FF0021BDE81040052002F0DE
:104120007ABF0021F0E7000007B50121042002F06A
:1041300061FF0121032002F05DFF0121052002F053
:1041400059FF0321062002F055FF0023B422CDE9D8
:1041500000320E214FF416634FF40872044801F048
:10416000DDFE012003B05DF804EBFFF7BDBF00BF2B
:1041700098E6032008B5FFF7D7FF02F0F7FC4FF4ED
:10418000165102F0E7FC01F0ABFC02F0EDFF02F08B
:10419000C3FD1048762100F026FD28B902F0E6FCA8
:1041A0000D497622FFF792FF3C220C48022100F0D5
:1041B000C9FF0A48012101F04BFA0848022101F029
:1041C00042FA064800F0F2FEBDE80840034800F05D
:1041D00049BF00BF48E60320ED7C0B0024E6032026
:1041E000014600B15A21014801F05BBE98E6032068
:1041F000F0B57B487B4C7C4F7C4E7D4D8BB000F006
:104200001FFC774884ED000A00F04AFC206887ED27
:10421000000A03F037F99FED6A4B9FED6B3B9FED72
:104220006C2B9FED6D1B41EC100B02F049F851EC2B
:10423000100B03F019FC6F4C306001F05DFA23683D
:10424000C01A47F23053984241D901F055FA2B7801
:104250002060002B00F0918002F088FC6649FFF797
:1042600035FF02F083FC0446306803F00BF90B467F
:10427000024662492046FFF729FF2B783BBB306896
:1042800003F000F902460B4606A85D4901F008FF5D
:104290005C4B069A1B788DF800305B493C2304A8E0
:1042A00002F022FA059C7CB16368013B63605BB954
:1042B000236820469B689847A368013BA3601BB90D
:1042C00023682046DB68984706A801F065FE4F4C3E
:1042D00001F012FA2368C01AB0F5FA7F0AD9062055
:1042E00002F0B2FE30B12B7883F001032B7001F0A5
:1042F00003FA20602878464C002849D00023237018
:104300000220FFF7F1FE01F0F7F9424B1B68C01ADB
:104310000A282CD9306803F0B5F802460B463868F5
:10432000CDE9022303F0AEF82678DDE90223002E62
:104330003CD0CDE90001384906A801F0B1FE06A93C
:10434000364801F0A5FE06A801F026FE344800F02C
:104350002DFE33480522002101F072F92F4B31491F
:104360001A682F48FFF7B2FE2D4800F07BFE207838
:104370000BB0BDE8F040FFF733BF01F0B9FB18B94F
:1043800002F0F4FB28496AE702F0F0FB274966E7F0
:1043900096ED007ADFED267AB4EEE77AF1EE10FAC8
:1043A00055BF0123207023700120AAE72D78CDE9A5
:1043B00000010DB11F49BFE71F49BDE7AFF3008002
:1043C0000000000000806A40000000000000404043
:1043D0000000000000005940000000000000000044
:1043E00048E60320B0E6032094E60320B4E6032069
:1043F000A8E60320ACE60320167D0B005D7D0B00D4
:10440000637D0B0020E60320687D0B008CE6032013
:1044100084E1032090E603206E7D0B0004E6032078
:1044200024E60320C47D0B00277D0B004A7D0B0092
:10443000000096428C7D0B00AA7D0B0008B50E4B48
:10444000022018700D4B0022C3E90022A2F5803231
:104450009A6001F0B1FA0921094800F091FD09487C
:1044600000F04AF80849094801F0E1FDBDE80840BC
:10447000074801F03FBD00BF20E6032014E60320FB
:1044800024E6032048E60320627D0B0004E60320B7
:1044900098E60320704710B510210446FFF7FFFD92
:1044A000204610BD73B5044608462279A36832B190
:1044B000A3B90B4902B0BDE8704001F081BE094AC2
:1044C000267B094D0949647B012E18BF2946CDE999
:1044D00000140749FFF7FAFD02B070BD054AEFE787
:1044E000D87D0B00627D0B00D47D0B00D07D0B00CE
:1044F000EE7D0B00C77D0B004FF0FF33036170476B
:1045000013B50B4C2178BFF35B8F11F001010BD178
:1045100020460191FFF7D2FD019928B1054801F02D
:1045200083FB2046FFF7CFFD024802B010BD00BF5D
:10453000B8E60320BCE6032008B5FFF7E1FFBDE8BD
:10454000084001F0B7BB07B50190FFF7D9FF01990B
:1045500003B05DF804EB01F0C7BB2DE9F04190F921
:104560001330013305460F4606D1FFF7C9FF394620
:10457000BDE8F04101F07EBC002407264FF00108A1
:1045800095F91300002180B202F045FD95F9110064
:1045900008FA06F1394080B202F03DFD95F91300AA
:1045A000012180B202F037FD95F91200640080B25B
:1045B000E4B202F049FD08B144F00104013EDFD24B
:1045C0002046BDE8F08100007FB590F9103001333E
:1045D00004460E46154613D10179006802F0CEFB61
:1045E0002068036831469B6898472068036829461D
:1045F0009B689847206804B0BDE8704002F0C9BBD2
:1046000090F9133001330CD1164B009300238DF831
:104610000430154B029368460123ADF80C30FFF7C8
:1046200092FF94F91000002180B202F0F4FC06F031
:104630007F012046FFF791FF29462046FFF78DFFB7
:1046400094F91000012180B202F0E5FC94F91330D6
:10465000013304D104B0BDE87040FFF76DBF04B072
:1046600070BD00BF147E0B0020A10700F8B5DB0071
:1046700002F0070203F03803134343EA81139DF865
:10468000186080F83C3090F840309DF81C509DF840
:10469000207066F3471380F84030ED0090F8383012
:1046A00007F0070705F0380523F03F033D430446B4
:1046B0001D4380F8385006F00702F221FFF784FF0F
:1046C00094F83820C2F3C20302F007019B0043EACA
:1046D000411343EAD2122046F521FFF775FF94F803
:1046E0003C20C2F3C20302F007019B0043EA4113DE
:1046F00043EA92122046F421BDE8F840FFF764BF78
:1047000030B590F91030013385B004460D4618D10C
:104710000179006802F032FB2068036829469B6833
:104720009847206802F035FB21792068012202F0C9
:1047300022FB206803685B699847C5B2284605B02C
:1047400030BD90F9133001330CD1154B0093002389
:104750008DF80430134B029368460123ADF80C30FA
:10476000FFF7F1FE94F91000002180B202F053FC33
:1047700045F080012046FFF7F0FE00212046FFF7BC
:10478000ECFE054694F91000012180B202F043FCD2
:1047900094F913300133D1D1FFF7CEFECEE700BF3D
:1047A000147E0B0020A1070008B5F321FFF7A8FF36
:1047B00000F0010008BD000030B590F91030013361
:1047C00085B004460D461FD10179006802F0D6FA83
:1047D0002068036829469B689847206802F0D9FA48
:1047E00021792068022202F0C6FA206803685B691A
:1047F00098470546206803685B69984740EA0520AA
:1048000085B2284605B030BD90F9133001330CD184
:10481000184B009300238DF80430174B0293684621
:104820000123ADF80C30FFF78EFE94F91000002143
:1048300080B202F0F0FB45F080012046FFF78DFECC
:1048400000212046FFF789FE002105462046FFF79C
:1048500084FE40EA052085B294F91000012180B25F
:1048600002F0D9FB94F913300133CAD1FFF764FE8B
:10487000C7E700BF147E0B0020A1070008B5FFF7B3
:104880009BFF40BA80B208BD38B588210446FFF7C7
:10489000F5FF8A21A0822046FFF7F0FF8C21E082FD
:1048A0002046FFF7EBFF8E2120832046FFF7E6FF2F
:1048B000902160832046FFF7E1FF9221A0832046EC
:1048C000FFF7DCFF9421E0832046FFF7D7FF962116
:1048D00020842046FFF7D2FF982160842046FFF70E
:1048E000CDFF9A21A0842046FFF7C8FF9C21E084D9
:1048F0002046FFF7C3FF9E2120852046FFF7BEFF1D
:10490000A12160852046FFF7FBFEE12184F82C0001
:104910002046FFF7B3FFE321E0852046FFF7F0FED6
:10492000E42184F830002046FFF7EAFEE521054641
:104930002046FFF7E5FE00F00F0343EA051060860E
:10494000E6212046FFF7DCFEE52105462046FFF77D
:10495000D7FEC0F3071343EA0510A086E7212046DF
:10496000FFF7CEFE84F8360038BD000030B590F970
:104970001030013385B004460D4623D1017900681B
:1049800002F0FCF92068036829469B689847206874
:1049900002F0FFF921792068032202F0ECF9206887
:1049A00003685B6998470502206803685B6998475C
:1049B00028430502206803685B6998470543284639
:1049C00005B030BD90F9133001330CD11A4B009370
:1049D00000238DF80430194B029368460123ADF88B
:1049E0000C30FFF7B0FD94F91000002180B202F006
:1049F00012FB45F080012046FFF7AFFD0021204665
:104A0000FFF7ABFD002105022046FFF7A6FD284376
:104A1000050200212046FFF7A0FD054394F9100090
:104A2000012180B202F0F7FA94F913300133C6D1B4
:104A3000FFF782FDC3E700BF147E0B0020A1070033
:104A400010B5FA210446FFF791FFB0F5000F1FD013
:104A5000A18A9FED117A4B00C1EB2022C3EBE0113C
:104A6000B4F91630594302FB02F3B4F918201B13B2
:104A700053439B1303EBE123E36003EB8303803396
:104A80001B1207EE903AF8EEE77A87EE870A10BD20
:104A90009FED020AFBE700BF0000C8420000C07F94
:104AA00038B50446FFF7CCFFFD212046FFF784FE12
:104AB000B0F5004F38D0E168B4F93420A1F596354F
:104AC000B4F932100905C1EB803305FB123303F54D
:104AD0008043DA1394F8303094F936106B43DB12CC
:104AE0006943891203F500434B439B12B4F92E101E
:104AF00003F500134B4303F500539B135343DA13A1
:104B000094F82C105243D2114A43A3EB221323EA08
:104B1000E373B3F1C85FA8BF4FF0C8531B1300EE97
:104B2000103ABAEECB0A38BD9FED010AFBE700BF91
:104B30000000C07F30B5044690F91000421C85B0DB
:104B400019D1206802F0E8F8D0212046FFF7D8FDFF
:104B50006028A06045D12046B622E021FFF734FD51
:104B60004FF4967001F0EFFB2046FFF71DFE05465F
:104B700028B36420F6E7012180B202F04CFA94F9E0
:104B80001000012180B202F035FA94F91300431CA1
:104B900004D1FFF7B5FC01F051F8D5E7012180B24F
:104BA00002F028FA94F91100012180B202F022FAF1
:104BB00094F91200002180B202F01CFAC4E72046EA
:104BC000FFF762FE052300931A4603212046CDE934
:104BD0000155FFF74BFD642001F0B5FB012005B046
:104BE00030BD0020FBE710B50171044602F0BCFAAD
:104BF00020602046BDE81040FFF79CBFF0B5457E21
:104C0000BDF81440022D69D0032D00F09980012DCC
:104C10006CD10589D2432A4412B2002A5DDBB0F977
:104C20000850954259DD0029BEBF5B181BB2002118
:104C3000B0F90A00CD188542C4BF431A1BB2002B3D
:104C40004BDDC1F3C400DFF820C102EBC01211F04C
:104C50000701DBB20CEB02001AD0C1F10805404E8F
:104C6000EDB2AB42775D3FBFA5EB030EFF2646FAE0
:104C70000EF637401CF80260012C0CBF3E43BE43C9
:104C8000AB420CF8026028D308390B44DBB2803009
:104C9000072B19D9012C4FF0FF3518BF0025EDB2B5
:104CA00000F180011A46083AD2B2072A01F8805C66
:104CB00001F18001F7D8A3F10802C2F3C402013266
:104CC00000EBC21003F007033BB1264AD25C037825
:104CD000012C0CBF134393430370F0BD4589D243AD
:104CE0002A44CD180189491B12B209B2002AF4DB0B
:104CF000B0F90A509542F0DD0029BEBF5B181BB227
:104D00000021B0F90870CE18BE42C4BF6B1A1BB2A6
:104D1000002BE2DDD010802510FB05111248014464
:104D200002F0070001228240012CD2B20B440CD1C8
:104D30008B42D2D011F8010B104301F8010CF7E7B8
:104D4000CD184189491B09B267E7D243D2B28B42E1
:104D5000C3D011F8010B104001F8010CF7E700BFB8
:104D60008DE1032085E1032095E10320F0B5457E28
:104D7000BDF81440022D34D0032D00F09B80012D8E
:104D800037D1D5180289521B12B20029C0F2918086
:104D9000B0F90A508D4240F38C80002ABEBF9B18A8
:104DA0001BB20022B0F90870D618BE42C4BFAB1ABD
:104DB0001BB2002B7DDDC810802510FB0522454865
:104DC000024401F0070001218140012CC9B21344C3
:104DD00075D19A426DD012F8010B084302F8010C0C
:104DE000F7E70589C9432944D5184289521B09B2FE
:104DF00012B200295DDBB0F908508D4259DD002A5E
:104E0000BEBF9B181BB20022B0F90A00D51885421C
:104E1000C4BF831A1BB2002B4BDDC2F3C400DFF802
:104E2000B4C001EBC01112F00702DBB20CEB0100C1
:104E30001AD0C2F10805284EEDB2AB42775D3FBFF4
:104E4000A5EB030EFF2646FA0EF637401CF801606C
:104E5000012C0CBF3E43BE43AB420CF8016028D38B
:104E6000083A1344DBB28030072B19D9012C4FF0DC
:104E7000FF3518BF0025EDB200F180011A46083A4F
:104E8000D2B2072A01F8805C01F18001F7D8A3F1C2
:104E90000802C2F3C402013200EBC21003F00703A0
:104EA0003BB10E4AD25C0378012C0CBF13439343F1
:104EB0000370F0BD4589C943294409B265E7C94378
:104EC000C9B29A42F5D012F8010B084002F8010C61
:104ED000F7E700BF95E103208DE1032085E1032082
:104EE00070470000F8B50D1E064614461F462DDB20
:104EF00000F0B3FBA84229DD002C27DB304600F090
:104F0000AFFBA04222DD304600F0A5FB02281ED0F8
:104F1000032825D0012804D13389E2431A442C46C2
:104F200015B2002C2246B8BFE21DD210802112FB20
:104F300001550E49012204F007044B5702FA04F40C
:104F400064B297420CBF2343A3434B55F8BD31894C
:104F500072890139E4434D1B14442DB224B2E0E7B9
:104F60007389013B5B1B25461CB2DAE795E1032000
:104F700010B524210446FFF792F8204610BD00002A
:104F800038B5402204460D46802100F08BFA064BCE
:104F90002360FF2384F8213063774FF6FF73E383A8
:104FA00084F82050204638BD287E0B0002484FF47C
:104FB0008062002102F0BCBD95E1032007B590F8A6
:104FC000223043B10191FFF79BFA019903B05DF8DC
:104FD00004EB00F04FBF0B46817F407F012203B0FE
:104FE0005DF804EB02F043B838B590F91D30013399
:104FF00004460D461DD090F92100012180B202F037
:105000000AF894F91F00002180B202F004F894F924
:105010002100002180B201F0FEFF29462046FFF763
:10502000CDFF94F921000121BDE8384080B201F0A4
:10503000F2BF02F099F894F91B1001F0A3FE02F000
:1050400093F8036800219B68984702F08DF8036885
:1050500029469B68984702F087F8BDE8384001F080
:1050600098BE0000F8B521210446FFF7BDFF0021DE
:105070002046FFF7B9FF7F212046FFF7B5FF222129
:105080002046FFF7B1FF00212046FFF7ADFF0721C3
:105090002046FFF7A9FF94F91D30294F01332AD08C
:1050A00094F92100012180B201F0B5FF94F91F00AD
:1050B000012180B201F0AFFF94F92100002180B2FC
:1050C00001F0A9FF012000F00FFB4FF48065013DC6
:1050D00017F8011B2046ADB2FFF770FF002DF6D187
:1050E000012000F001FB94F921000121BDE8F84006
:1050F00080B201F090BF002502F036F894F91B1041
:1051000001F040FE02F030F8036840219B689847A8
:1051100005F11006B6B202F027F80368795D9B68C6
:1051200098476B1C9DB2AE42F5D102F01DF801F01C
:1051300030FEB6F5806F00D1F8BD3546DCE700BF24
:1051400095E1032038B590F91D300177013304460D
:105150000D46C27600F0C98090F91F00012180B28F
:1051600001F048FF94F92100012180B201F042FFD3
:1051700094F82230002B00F0A68094F92100012140
:1051800080B201F048FFFFF7BBF9012100F06AFD92
:10519000FFF7B6F9102100F047FEFFF7B1F9002143
:1051A00000F074FDFFF7ACF900F048FD94F9200021
:1051B000012180B201F01EFF94F92000012180B28C
:1051C00001F029FF012001F0BEF894F92000002130
:1051D00080B201F020FF0A2001F0B5F894F9200018
:1051E000012180B201F017FF2046AE21FFF7FCFE3F
:1051F0002046D521FFF7F8FE20468021FFF7F4FE78
:105200002046A821FFF7F0FE20463F21FFF7ECFEE5
:105210002046D321FFF7E8FE20460021FFF7E4FEF9
:1052200020464021FFF7E0FE8D212046FFF7DCFEFF
:10523000012D0CBF102114212046FFF7D5FE20467A
:105240002021FFF7D1FE20460021FFF7CDFE2046AA
:10525000A121FFF7C9FE2046C821FFF7C5FE204661
:10526000DA21FFF7C1FE20461221FFF7BDFE8121A2
:105270002046FFF7B9FE012D0CBF9F21CF2120460C
:10528000FFF7B2FED9212046FFF7AEFE012D0CBF7D
:105290002221F1212046FFF7A7FE2046DB21FFF760
:1052A000A3FE20464021FFF79FFE2046A421FFF7E2
:1052B0009BFE2046A621FFF797FE2046AF21BDE8C2
:1052C0003840FFF791BE94F91D00012180B201F032
:1052D00091FE94F91E00012180B201F08BFE94F83A
:1052E0002230002B3FF462AF47E701F03DFF01F0B1
:1052F00013FD5BE72DE9F04F85B01F46BDF93880FF
:10530000BDF83C30A8EB0209A7EB010AB9F1000F88
:10531000B8BFC9F10009BAF1000FB8BFCAF1000A5D
:10532000D14583460C46154604DD3A462C46474691
:105330000D469046BC4205DD2A464546904622462B
:105340003C4617463E1BB2B20092A8EB050282EA29
:10535000E271A1EBE271C6F3C03202FA86F645456E
:10536000B4BF01224FF0FF32019176100292BC428D
:105370001CDCDBF800200393D145D2F81080C7BFB6
:10538000294622462A4621465846C047019A039B91
:10539000B61AB1B236B2002E05DA029A1544009A56
:1053A00056182DB236B2013424B2E0E705B0BDE89C
:1053B000F08F2DE9F347BDF82C800768BDF92890E0
:1053C000CDF800800446FF6916468A461D46B84758
:1053D0002368CDF8008009F1FF323244DF6951467D
:1053E0002B46204612B2B8472368CDF800809F694B
:1053F00032464B4651462046B8476B1E03EB0A0126
:105400002368CDF828809D6932464B4609B2204674
:10541000AC4602B0BDE8F047604737B5013B1344E6
:105420000468BDF8185001951BB2009364690B46DF
:10543000A04703B030BD37B5BDF818500468CDE9BA
:105440000025013B0B4464691BB2A04703B030BD8B
:105450002DE9F347BDF92890BDF82C80054692460A
:105460000C46CE18B4420BDA2B68CDF800809F6949
:1054700021464B46524628460134B84724B2F1E74C
:1054800002B0BDE8F08713B502680191B0F90E10C3
:105490000091546AB0F90C3000221146A04702B0C6
:1054A00010BD704730B54281C2814FF0FF320024F9
:1054B000054D4261012244600560018181810461E2
:1054C0000283827630BD00BF5C830B002DE9F04F74
:1054D0002DED028B8DB007460491BDF8601005914B
:1054E000BDF864100691B0F90C1004989DF868504E
:1054F000814252DDB7F90E1091424EDD062111FBBB
:105500000504002C49DD02EBC504002C45DD03EB4E
:1055100083030B9393B2079308339BB20891002443
:105520000993052C1CBF2C4B0B9A079E16BF1B1909
:1055300000239B5C0393049AABB20A9304FB05F32C
:1055400013FA82F31BB204EB020A08EE103AB046DB
:105550000FFA85F90FFA8AFA039BDB072FD5012D85
:105560003B681FD1D3F810B0059B32B25146384684
:10557000D847039B5B0803930A9B01369844099B19
:10558000B6B2B3421FFA88F8E6D1089B013B01345A
:1055900013F0FF0364B20893C3D10DB0BDEC028BCE
:1055A000BDE8F08F059ACDE9009218EE101AD3F8F5
:1055B00024B00FFA88F24B463846D847D9E7DDE9E0
:1055C00005239342D5D0012D3B6803D1D3F810B009
:1055D000069BCAE7069AE6E7587E0B0030B50A2913
:1055E00085B0044607D1027E638A03EBC20363825F
:1055F0000023238221E00D291FD0037E0293C38A5A
:105600000193838A0093B0F912200B46B0F9101071
:10561000FFF75CFF207E238A00EB400103EB410390
:10562000A17E1BB20246238239B1B4F90C106FF08F
:10563000050505FB00118B42D6DC012005B030BD0D
:10564000018242827047012938BF012101767047EB
:10565000C18281827047407E7047B0F90C0070476C
:10566000B0F90E007047000008B5024B1B689B683C
:10567000019308BD6802030008B5024B1B68DB6894
:10568000019308BD6802030008B5024B1B685B6804
:10569000019308BD2C02030008B5024B1B689B68F0
:1056A000019308BD2C02030008B5024B1B68DB68A0
:1056B000019308BD2C02030008B5024B1B681B694F
:1056C000019308BD2C02030008B5024B1B685B69FF
:1056D000019308BD2C02030008B5024B1B685B68F0
:1056E000019308BD1802030008B5024B1B68DB6874
:1056F000019308BD1802030008B5024B1B685B69E3
:10570000019308BD1802030008B5024B1B685B6CCF
:10571000019308BD4802030008B5024B1B685B6992
:10572000019308BD6402030008B5024B1B68DB68E7
:10573000019308BD3C02030008B5024B1B681B69BE
:10574000019308BD3C02030008B5024B1B685B696E
:10575000019308BD3C02030008B5024B1B689B691E
:10576000019308BD3C02030008B5024B1B68DB69CE
:10577000019308BD3C02030008B5024B1B681B6A7D
:10578000019308BD3C02030008B5024B1B689B6AED
:10579000019308BD3C02030008B5024B1B681B6C5B
:1057A000019308BD3C02030008B5024B1B68DB688F
:1057B000019308BD2802030008B5024B1B689B69D2
:1057C000019308BD2802030008B5024B1B68DB6982
:1057D000019308BD2802030008B5024B1B681B6A31
:1057E000019308BD2802030008B5024B1B685B6AE1
:1057F000019308BD2802030008B5024B1B689B6A91
:10580000019308BD2802030008B5024B1B68DB6A40
:10581000019308BD2802030008B5024B1B681B6BEF
:10582000019308BD2802030008B5024B1B685B6B9F
:10583000019308BD2802030008B5024B1B681B6CCE
:10584000019308BD2802030008B5024B1B681B6DBD
:10585000019308BD2802030008B5024B1B681B68B2
:10586000019308BD3002030008B5024B1B689B681A
:10587000019308BD3002030008B5024B1B68DB68CA
:10588000019308BD3002030008B5024B1B681B6979
:10589000019308BD3002030008B5024B1B685B6929
:1058A000019308BD3002030008B5024B1B68DB6999
:1058B000019308BD3002030008B5024B1B681B6A48
:1058C000019308BD3002030008B5024B1B685B6AF8
:1058D000019308BD3002030008B5024B1B68DB6B67
:1058E000019308BD3002030008B5024B1B681B6C16
:1058F000019308BD3002030008B5024B1B685B6CC6
:10590000019308BD3002030008B5024B1B681B69F8
:10591000019308BD2402030008B5024B1B685B69B4
:10592000019308BD2402030008B5024B1B689B6964
:10593000019308BD2402030008B5024B1B681B68D5
:10594000019308BD4C02030008B5024B1B685B685D
:10595000019308BD4C02030008B5024B1B681B698C
:10596000019308BD4C02030008B5024B1B685B693C
:10597000019308BD4C02030008B5024B1B689B69EC
:10598000019308BD4C02030008B5024B1B68DB699C
:10599000019308BD4C02030008B5024B1B681B6A4B
:1059A000019308BD4C02030008B5024B1B685B6BFA
:1059B000019308BD6002030008B5024B1B685B68D9
:1059C000019308BD2002030008B5024B1B685B6908
:1059D000019308BD2002030008B5024B1B68DB6C75
:1059E000019308BD2002030008B5024B1B685B6DE4
:1059F000019308BD2002030008B5034B1B68D3F8D0
:105A00008830019308BD00002002030008B5034B55
:105A10001B68D3F89430019308BD000020020300F6
:105A200008B5024B1B685B68019308BD4002030088
:105A300008B5024B1B689B68019308BD4002030038
:105A400008B5024B1B68DB68019308BD40020300E8
:105A500008B5024B1B681B69019308BD4002030097
:105A600008B5024B1B685B69019308BD4002030047
:105A700008B5024B1B689B69019308BD40020300F7
:105A800008B5024B1B68DB69019308BD40020300A7
:105A900008B5024B1B681B6A019308BD4002030056
:105AA00008B5024B1B681B6B019308BD4002030045
:105AB00008B5024B1B685B6B019308BD40020300F5
:105AC00008B5024B1B681B6C019308BD4002030024
:105AD00008B5024B1B685B6C019308BD40020300D4
:105AE00008B5024B1B68DB68019308BD4402030044
:105AF00008B5024B1B685B69019308BD44020300B3
:105B000008B5024B1B681B6A019308BD44020300E1
:105B100008B5024B1B68DB6B019308BD4402030010
:105B200008B5024B1B681B68019308BD1C020300EB
:105B300008B5024B1B685B68019308BD1C0203009B
:105B400008B5024B1B689B68019308BD1C0203004B
:105B500008B5024B1B685B6A019308BD1C02030079
:105B600008B5024B1B68DB6A019308BD1C020300E9
:105B700008B5024B1B681B6B019308BD1C02030098
:105B800008B5024B1B681B6C019308BD1C02030087
:105B900008B5024B1B685B6C019308BD1C02030037
:105BA000002240681146FFF773BF0022406811468B
:105BB000FFF77EBF40680022FFF772BF40680022F7
:105BC00081F00101FFF75CBF002340681A461946C7
:105BD000FFF74EBF002340681A461946FFF740BF43
:105BE000002240681146FFF733BF0022406811468B
:105BF000FFF71EBF406800220221FFF721BF0023EC
:105C000040681A46FFF70CBF024B03225A60024A53
:105C10001A607047C4E6032094830B000021FFF74D
:105C20006BBE0021FFF760BE10B504460846217028
:105C3000FFF73AFE00236360204610BD13B504460B
:105C40000078FFF7EEFF58B9207801904FF6FF710A
:105C5000FFF702FE019802B0BDE81040FFF7DEBF7B
:105C600002B010BD13B5044600780191FFF7D9FFCB
:105C7000019948B920780190FFF7F6FD019802B02C
:105C8000BDE81040FFF7CABF02B010BD13B504460F
:105C900000780191FFF7C5FF019948B9207801907C
:105CA000FFF7EAFD019802B0BDE81040FFF7B6BF6C
:105CB00002B010BD0078FFF7B1BF0000400830B55A
:105CC0001860002418688842E5B206D90134082C0F
:105CD00002D040081860F5E70725024B5B5D1370A2
:105CE00030BD00BFC8830B002DE9F04306468FB0DE
:105CF00000780C46FFF795FF00281BDB357814224F
:105D0000002109A801F014FF0B23002209A928464D
:105D1000ADF82430FFF7D8FD9DF82D3013B19DF874
:105D20002C5055B10027B946B846012523795DB1FD
:105D3000C3B100200FB0BDE8F083DDF830809DF8DE
:105D400034909DF83570F1E7002B35D1A3684345B9
:105D500008D18DF820908DF82170BDF82020A389FE
:105D60009A42E6D00023A1688DF80F300A9804AB60
:105D70000DF10F02FFF7A2FF217985B989B9A36858
:105D800043450ED38DF820908DF82170BDF820206A
:105D9000A3899A4205D1049B434502D1C9E7002952
:105DA000F9D100230193637B00939DF80F20237B9F
:105DB0003078FFF791FDBCE7CDE900552B462A4628
:105DC0000121F5E72DE9F04188B000230446007871
:105DD00002930E461746FFF724FF054600BB94F8D2
:105DE00000800146142203A801F0A2FE0B232A46DC
:105DF00003A94046ADF80C30FFF766FD04988DF816
:105E0000075002AB0DF1070207FB06F1FFF756FF43
:105E100020789DF80710FFF737FD2078FFF7FEFE8A
:105E2000029808B0BDE8F08138B5044600780D4608
:105E3000FFF7F7FE0346D0B9616899B10C4A12F832
:105E4000010B854202D00133082BF8D10133DBB2BC
:105E50000122D9402046FFF7B5FF2078BDE8384041
:105E6000FFF7DCBE20782946FFF70EFDF5E738BDC9
:105E7000C8830B0008B50078FFF70EFDC0B208BD5F
:105E8000B0F90020531C0BD0438880888B4203D884
:105E90008842034628BF0B46194690B2FFF744BD1F
:105EA000704713B504460846B4F90610B4F9082043
:105EB000884210DB9042A8BF1046A38800936388F5
:105EC00000F0F2F9E168014489B2204602B0BDE871
:105ED0001040FFF7D5BF0846EFE70000044A4FF433
:105EE0001663C0E90023B42303810023C360704715
:105EF000FFFF200208B5FFF7F1FF08BD10B504460B
:105F0000B0F90000431C07D080B2FFF705FD204622
:105F1000FFF7E4FF012010BD0020FCE72DE9F04170
:105F20000D4604460221284690461F46FFF7ACFB6B
:105F3000022803D000263046BDE8F081284601F053
:105F40001BF806460028F5D0B4F90030013302D022
:105F50002046FFF7D3FFBDF91830E380BDF91C30B0
:105F60002580A4F80280A78023812846FFF7CCFC77
:105F7000E1E70000054B02221A60054B054A9A60D2
:105F80000020C3E90000FFF717BD00BFD8E60320DB
:105F9000CCE603200000FFFF10B504460068FFF7C1
:105FA000C7FD204610BD10B50446006808B1FFF7D4
:105FB000BFFD0023C4E90133236010BD38B504469A
:105FC0000D4600680131FFF7BBFD10B1C4E90005C3
:105FD000012038BD10B50368044623B143688B42E5
:105FE00001D3012010BD2046FFF7E8FF0028F9D0BB
:105FF000A368002BF5D122681370F2E737B50D4680
:10600000114601920446FFF7E5FF019A28B92046A0
:10601000FFF7C9FF204603B030BDA26029462068C3
:1060200001F078FD2268A3680021D154F2E7002333
:1060300013B5C0E9003304468360037341B10846D9
:10604000019101F0D0FD019902462046FFF7D6FFED
:10605000204602B010BD38B5054600680C4668B150
:106060006A688B689A4207D3096801F097FDA368B4
:10607000AB600023A36038BDFFF75AFD23682B6097
:1060800063686B60A368AB600023C4E90033F1E789
:10609000884210B5044601D0FFF7DDFF204610BD51
:1060A0000EB470B587B00BAD044655F8042B0192C1
:1060B0002B46052104A80395FFF74AFD0B49064628
:1060C0002046FFF7B4FF31462046FFF783FF2068E4
:1060D00030B1019A03952B46711CFFF739FDA06082
:1060E000204607B0BDE8704003B07047627D0B00EA
:1060F00010B58368044613B1032201469847204631
:1061000010BD10B54368013B0446436063B90368A2
:106110009B689847A368013BA3602BB9236820467E
:10612000DB68BDE81040184710BD10B50446006894
:1061300008B1FFF7E6FF204610BD13B50B46024637
:10614000D0E900016C4684E8030093E8030082E88C
:10615000030094E8030083E8030002B010BD0000D0
:10616000024800230360FFF7CFBA00BFDCE603203C
:10617000F8B506460D468F180024BD420CD0336892
:1061800015F8011B9B6830469847031E01DB1C4431
:10619000F3E7002C08BF1C462046F8BD13B50446A3
:1061A000084659B1019101F01EFD23680199DB6891
:1061B0000246204602B0BDE81040184702B010BDAC
:1061C00008B5FFF7EBFF08BD03689B68184738B5B3
:1061D0000D210546FFF7F8FF0A2104462846FFF780
:1061E000F3FF204438BD30B58BB00023012A8DF871
:1061F000243098BF0A2209AC0D46B1FBF2F101FB35
:10620000125303F0FF03092B94BF30333733DBB253
:10621000AA4204F8013DEFD92146FFF7BFFF0BB0BA
:1062200030BD2DE9F04186B000AF05460E46381D61
:10623000142114463B60FFF78BFC13280ED8391D40
:106240002846FFF7ABFF04461EB12846FFF7BFFF05
:10625000044420461837BD46BDE8F08100F108032C
:1062600023F00703E846ADEB030D2246411C3B68D3
:106270006846FFF76DFC69462846FFF78FFF044626
:10628000C546E1E7014B024A1A607047E0E6032089
:10629000D0830B00024B1A68024B1A60704700BF94
:1062A00098E50320E4E603208A4210B507D0441A9B
:1062B0000298C01A4443501A94FBF0F0184410BDE1
:1062C0002DE9F04F55EC114B57EC126B85B011EEE8
:1062D000102A12EE100A2B4639468DED020B8DED79
:1062E000004B5BEC13AB01F08DFB9DED020B38BB5B
:1062F00051EC100B22462B4600F064FF52468046BC
:1063000089465B46DDE9000100F05CFF02460B4672
:106310004046494601F00EF92246804689462B4602
:106320003046394600F04EFF02460B46404649468D
:1063300001F02AFA52465B4600F046FF41EC100B92
:1063400005B0BDE8F08F0021FFF73EBB014B0022F6
:106350009A607047E8E60320014B1860704700BF61
:106360009CE5032008B50B4B43B100F0FFFB03682D
:106370001B699847002801DDAFF30080064B43B14D
:1063800000F0B2FE03681B699847002801DDAFF3F7
:10639000008008BD000000000000000008B5FFF705
:1063A000E1FFFFF7A9F9014B186008BD40E70320A2
:1063B0000548064A064908B5121A01F0ABFB054B21
:1063C000054A1A6008BD00BF00F4032004F403204E
:1063D00004860B0000F403201E1C279A07B5002337
:1063E00000931A466FF07701FFF710FB03B05DF8DA
:1063F00004FB000007B543880A2B08D0502B0BD1B3
:10640000094B1B684BB103B05DF804EB1847FFF76D
:10641000E5FF03B05DF804FB002300931A466FF01C
:106420007701FFF7F3FAF4E7FCE6032010B5124812
:106430000021FFF7ADFB114B1A68114B9A42114B2B
:106440000CBF012200221A7001D0FFF7B1FFFFF745
:1064500043F9044601F074FB0B4B13B12046AFF334
:10646000008000210848FFF753FBBDE810400748B3
:106470000021FFF7C1BA00BF59630B0000F40320ED
:106480001E1C279AF8E6032000000000F5630B00AD
:1064900070470020704710B510210446FDF7FFFD3E
:1064A000204610BD08B5FFF7F6FF08BD30B5002245
:1064B0004FF69C74026084808D888C800C68858087
:1064C00004600A6030BD10B504460068FFF730FB79
:1064D000204610BD38B5C468F4B12378022B03D12F
:1064E00004F10C00FFF7EFFF656835B12846FFF7B0
:1064F000FFFD10212846FDF7D2FDA56835B12846DD
:10650000FFF7F6FD10212846FDF7C9FD20461421AE
:10651000BDE83840FDF7C3BD38BD0B6803604B686C
:10652000436013B15A6801325A60704737B5044668
:1065300068460D46FFF7F1FF009B019A23606260F9
:10654000002301A801930093FFF7EFFD35B1281D4B
:10655000FFF7EBFD08212846FDF7A1FD204603B01B
:1065600030BD826810B50AB900F024FEBDE81040C5
:10657000C368184708B5006800F11001FFF7F1FF84
:1065800008BD826810B50AB900F014FEBDE81040DD
:10659000C368184708B5006800F11001FFF7F1FF64
:1065A00008BD000038B500230446036010200D46E6
:1065B000FDF771FD28B10123C0E90133024B0360EF
:1065C000C5602060204638BDF8830B0038B5002335
:1065D00083608B6804460D462BB102229847EB6816
:1065E000E360AB68A360204638BD0000F0B589B019
:1065F00004686846FFF75AFF4FF00203D4E84F2FB4
:10660000002A03D1C4E8413F0029F7D125D104F184
:106610000C0569462846FFF749FFBFF35B8F01234E
:106620006370002004F10803BFF35B8F53E8006F31
:1066300043E80002002AF9D1BFF35B8F6EB1FFF788
:10664000CBF978B129463046FFF78BFF3046FFF78C
:106650004FFD10213046FDF722FD6846FFF733FF5E
:1066600009B0F0BD314602A8FFF7B0FFE068B4F909
:10667000105008B101F09AFA06901020ADF81C50A5
:10668000FDF709FD0546E8B1002787601820FDF7F2
:1066900002FD044688B10146876002A8FFF74DFD60
:1066A000049BA268A360059B049206A9E268E360CC
:1066B00004F110000592FFF7F9FE084BEB60084B60
:1066C0002C60AB6006A8FFF7FEFE02A8FFF710FDE6
:1066D000002229460348FFF787F9B7E775650B00E5
:1066E000F9670B005D6C0B002DE9F04F8BB0054690
:1066F0009DF850A00F4690469946FFF7F9F907AE6E
:10670000834638BB4FF62E73059005A93046ADF889
:106710001830FFF7CBFE1420FDF7BDFC044648B14E
:10672000022303700123C0E901BB437031460C30E2
:10673000FFF7BCFE2846214640F8044BFFF732FF26
:106740003046FFF7C0FE05A8FFF7BDFE28460BB098
:10675000BDE8F08F0C2300241420CDE908440793F2
:10676000FDF799FC014618B1C0E90144047044707A
:1067700004A80391FFF716FF1E4B08930820FDF7AE
:106780008AFC044610B103A9FFF7C7FE00965FFA22
:106790008AF34A46414638460994FFF7B1F9B8B939
:1067A000039B5B7803F0FF0293B94FF69C7305A936
:1067B00003A80592ADF81830FFF718FF05A8FFF7FA
:1067C00082FE05A80999FFF7B1FE06A8FFF7ADFC08
:1067D00003A905A8FFF7A1FE059B069A2B606A6036
:1067E000002306A806930593FFF79FFC04A8FFF774
:1067F0009CFCABE775680B00012AF8B5054603D190
:106800000B6803600020F8BD022A10D0032AF9D1DA
:106810000468002CF6D004F11000FFF754FE204667
:10682000FFF766FC18212046FDF739FCEAE718203F
:106830000E68FDF730FC044650B13146FFF7C6FE46
:106840003069B6F9147008B101F0B0F92061A7827F
:106850002C60D7E738B5002383608B6804460D466B
:106860002BB102229847EB68E360AB68A360204637
:1068700038BD0000F0B589B004460D4601A81146A8
:10688000FFF754FEA4B124B21DB1284601F08EF9E1
:10689000054601A803A90395ADF81040FFF7A6FE31
:1068A00003A8FFF710FE02A8FFF73FFC09B0F0BDF8
:1068B000019D0123D5E84F2F002A03D1C5E8413FB0
:1068C0000029F7D1EFD12B73BFF35B8F6B702B1DBA
:1068D000BFF35B8F53E8006F43E80042002AF9D111
:1068E000BFF35B8F002EDED02046FFF775F807461A
:1068F00060B105F10C013046FFF743FE3046FFF76B
:10690000F7FB10213046FDF7CAFBCCE7314603A860
:10691000FFF7A0FF2B7B8DF81C301020FDF7BBFB91
:106920000546D0B187601420FDF7B5FB044678B169
:106930008760014603A8FFF700FC059BA268A360DF
:10694000069B0592E268E3609DF81C300692237472
:10695000064BEB60064B2C60AB6003A8FFF7C8FB4F
:10696000002229460348FFF73FF8C7E795650B006B
:1069700079690B005D6C0B00012A70B5044603D1E8
:106980000B680360002070BD022A0CD0032AF9D1E5
:106990000468002CF6D02046FFF7AAFB14212046FD
:1069A000FDF77DFBEEE714200E68FDF774FB05464E
:1069B00020B13146FFF74EFF337C2B742560E1E7B1
:1069C000704710B518210446FDF769FB204610BD3D
:1069D000F0B5037D062B8DB00E4600F104074FF095
:1069E000000412D000F1080515F8011D0A223046F6
:1069F000FFF7F9FBAF42044419D0002CF4D02E214C
:106A00003046FFF7E1FB0444EEE72F236A463946A0
:106A10000A208DF80040FEF77FFE684601F0E3F89B
:106A200033680246DB68694630469847044620468C
:106A30000DB0F0BD10B5054B0446112240F8043BE3
:106A4000002101F075F8204610BD00BF14840B0032
:106A50000346074A10B543F8042B01F1100251F820
:106A6000044B43F8044B9142F9D10A781A7010BDD7
:106A700014840B0010B59DF8084044EA032343EA50
:106A8000024242EA016104234160037510BD000027
:106A900007B5064B0360CB7800938B784A7809786A
:106AA000FFF7E8FF03B05DF804FB00BF14840B00A0
:106AB000417470477047704708B50021007CFEF7AD
:106AC0005BFF40EAE07008BD08B50121007CFEF7DD
:106AD00053FF40EAE07008BD08B5007CFEF744FFB4
:106AE00020EAE07008BD08B5007CFEF735FF20EA1B
:106AF000E07008BD13B50446007C0191FEF734FF39
:106B00000028019901DC607C20B1207CFEF73CFF6D
:106B100020EAE07002B010BD007CFEF73DBF10B56A
:106B200014210446FDF7BBFA204610BD10B54FF402
:106B30007A73044608460021C4E90113044B23601C
:106B40000123207463741146FEF7F6FE204610BD43
:106B500028840B00007C0022FEF7F6BE10B514223C
:106B60000446002100F0E4FF204610BD10B50F4C94
:106B700088B003A8FFF7F2FF2178BFF35B8F11F015
:106B800001010FD120460191FDF798FA019948B112
:106B900003AA0748FFF7CAFF2046FDF794FA054805
:106BA00000F0B2FF024808B010BD00BF00E70320AC
:106BB00004E70320B56A0B0070474174704708B5BD
:106BC000007CFEF7E1FD20EAE07008BD08B5007C1E
:106BD000FEF7B2FD20EAE07008BD08B5007CFEF7C4
:106BE000BBFD40EAE07008BD08B5007CFEF7ACFDD7
:106BF00040EAE07008BD007CFEF7B6BD37B5457CC5
:106C000004462DB1207C03B0BDE83040FEF78CBDBA
:106C1000007C0191FEF7B8FD00280199F2DC2846BE
:106C200003B030BD10B514210446FDF738FA2046F4
:106C300010BD000010B54FF47A73044608461146A3
:106C40000022C4E90123044B2360012320746374F0
:106C5000FEF7A2FD204610BD58840B0010B58368D6
:106C600004460BB900F0A6FAC3689847A3681BB1A5
:106C7000032221462046984720461021BDE81040B7
:106C8000FDF70DBA7047F8B5064615460C468F1845
:106C9000BC4206D0336814F8011B9B683046984705
:106CA000F6E72846F8BD007C0022FEF795BD007C83
:106CB0000021FEF799BD007C0021FEF79DBD007C00
:106CC0000021FEF7A1BD007C0021FEF7A5BD10B597
:106CD00014210446FDF7E3F9204610BD38B50446FB
:106CE00015464FF47A730022C4E90123094B21743D
:106CF000084623602946FEF79FFDBF3008D16B6927
:106D0000DB0705D56868FEF713FFE868FEF710FF9C
:106D1000204638BD88840B000023007C1A461946A3
:106D2000FEF742BD7FB500221423CDE90122ADF864
:106D300004300B788DF808304B680393CB680493CC
:106D4000007C0B7A059301A9FEF77EFD07B05DF884
:106D500004FB1FB5003B8DF800104FF06401039158
:106D600018BF0123694601928DF80830FFF7DAFF5A
:106D700005B05DF804FB0123FFF7EBBF007C0022A8
:106D8000FEF71ABDC9B2FFF7F9BF007C0022FEF77B
:106D90001BBD0121FFF7F9BF002240681146FEF735
:106DA00057BE002240681146FEF772BE00224068BE
:106DB0001146FEF77DBE40680022FEF771BE4068B6
:106DC000002281F00101FEF75BBE002340681A46F5
:106DD0001946FEF74DBE002340681A461946FEF7D5
:106DE0003FBE002240681146FEF722BE40680022E6
:106DF0000221FEF725BE002340681A46FEF710BEAA
:106E0000024B04225A60024A1A60704718E70320B6
:106E1000B0840B00002340681A46FEF701BE4068AC
:106E200000220221FEF70CBE002240681146FEF748
:106E3000FFBD002240681146FEF70ABE00234068ED
:106E40001A461946FEF70CBE002340681A4619463A
:106E5000FEF70EBE40680021FEF732BE40680021FA
:106E6000FEF736BE4068002281F00101FEF708BE41
:106E700040680022FEF714BE002240681146FEF76B
:106E800017BE002240681146FEF702BE2DE9F0430E
:106E900095B014460D460746FFF7CCFD00211C2295
:106EA0000DA8009100F044FE40230C9320466B4651
:106EB0000CAA0021FEF7E0FB044600284BD1024655
:106EC00001216868FEF7C4FD0221804622466868F9
:106ED000FEF7BEFD009E81462146002E3BD00029D4
:106EE00039D17368022B03D00A2B11D0F669F4E76D
:106EF000B8F1000FFAD0716906A8043107ADFFF7A9
:106F0000C7FD0FCD3C1D0FC42B6823704146EDE734
:106F1000B9F1000FEAD07469102201A800F008FE50
:106F200006238DF8143001AD04F1080318341868F5
:106F300059682A4603C20833A3421546F7D101A96E
:106F400006A807ADFFF784FD0FCD3C1D0FC42B68CD
:106F500023704946CAE70098FEF786FB384615B00D
:106F6000BDE8F083024B034A1A6000225A60704762
:106F700020E70320EC840B00232813B502D900205E
:106F800002B010BDA0F10B03022B1AD8174C2178C8
:106F9000BFF35B8F11F001010BD120460191FDF78A
:106FA0008DF8019928B11248FEF73EFE2046FDF704
:106FB0008AF80F4B1878FEF77FFC0028DFD10120FC
:106FC000DEE7012809D800F0CFF80021007CFEF7A9
:106FD0002BFC80F00100C0B2D2E709380128EED8BE
:106FE00000F082F8007CFEF7C7FBF2E7B8E603206A
:106FF000BCE60320232838B504460D460AD8FF29ED
:1070000008D0FFF7B9FF28B129462046BDE838402F
:10701000FEF742BB38BD38B504460D46FEF744FBCB
:10702000FF2810D0062804D84D2323FA00F0C30708
:1070300009D42046FFF7A0FF28B129462046BDE825
:107040003840FEF739BB38BD10B50446FEF72CFBBF
:10705000031FDBB2012B08D92046FFF78DFF20B1BB
:107060002046BDE81040FEF72FBB002010BD2DE9E3
:10707000F04190461F46072406460D46C4F107011D
:10708000B8F1000F12D147FA01F101F001013046C9
:10709000FFF7C1FF01212846FFF7BDFF0021284669
:1070A000FFF7B9FF013CE9D2BDE8F08147FA04F1EE
:1070B000EBE7704738B5044614252A46002100F056
:1070C00037FD25804025074925812846258200F087
:1070D0006FF804496060284600F06AF8E0602046D6
:1070E00038BD00BF20850B0030B50E4D2978BFF3A9
:1070F0005B8F11F0010487B011D12846FCF7DEFF49
:1071000068B101A8FFF7D6FF01AA21460648FFF79C
:1071100091FD2846FCF7D7FF044800F0F5FC024833
:1071200007B030BD28E703202CE70320B3700B0025
:107130007047000038B50A4B0360012304464361E1
:107140000849202000F034F8202560600549A5603A
:10715000284600F02DF8C4E90305204638BD00BFDD
:107160001800010020850B0030B50E4D2978BFF3C3
:107170005B8F11F0010487B011D12846FCF79EFF08
:1071800068B16846FFF7D6FF6A4621460648FFF712
:10719000A5FD2846FCF797FF044800F0B5FC02481F
:1071A00007B030BD44E7032048E7032031710B00EE
:1071B000FCF773BF08B5FEF7D3FC000081F0004177
:1071C00002E000BF83F0004330B54FEA41044FEACC
:1071D000430594EA050F08BF90EA020F1FBF54EA67
:1071E000000C55EA020C7FEA645C7FEA655C00F003
:1071F000E2804FEA5454D4EB5555B8BF6D420CDDD4
:107200002C4480EA020281EA030382EA000083EA56
:10721000010180EA020281EA0303362D88BF30BDF6
:1072200011F0004F4FEA01314FF4801C4CEA11314C
:1072300002D0404261EB410113F0004F4FEA0333AB
:107240004CEA133302D0524263EB430394EA050F36
:1072500000F0A780A4F10104D5F1200E0DDB02FAA5
:107260000EFC22FA05F2801841F1000103FA0EF239
:10727000801843FA05F359410EE0A5F120050EF1FF
:10728000200E012A03FA0EFC28BF4CF0020C43FA30
:1072900005F3C01851EBE37101F0004507D54FF03D
:1072A000000EDCF1000C7EEB00006EEB0101B1F58D
:1072B000801F1BD3B1F5001F0CD349085FEA3000D3
:1072C0004FEA3C0C04F101044FEA445212F5800FDE
:1072D00080F09A80BCF1004F08BF5FEA500C50F17B
:1072E000000041EB045141EA050130BD5FEA4C0C5E
:1072F000404141EB0101013C28BFB1F5801FE9D2BB
:1073000091F0000F04BF01460020B1FA81F308BFDD
:107310002033A3F10B03B3F120020CDA0C3208DDA9
:1073200002F1140CC2F10C0201FA0CF021FA02F184
:107330000CE002F11402D8BFC2F1200C01FA02F1F4
:1073400020FA0CFCDCBF41EA0C019040E41AA2BF19
:1073500001EB0451294330BD6FEA04041F3C1CDAE1
:107360000C340EDC04F11404C4F1200220FA04F001
:1073700001FA02F340EA030021FA04F345EA0301AB
:1073800030BDC4F10C04C4F1200220FA02F001FA6D
:1073900004F340EA0300294630BD21FA04F02946EF
:1073A00030BD94F0000F83F4801306BF81F4801188
:1073B0000134013D4EE77FEA645C18BF7FEA655CFB
:1073C00029D094EA050F08BF90EA020F05D054EACD
:1073D000000C04BF1946104630BD91EA030F1EBFD2
:1073E0000021002030BD5FEA545C05D140004941D6
:1073F00028BF41F0004130BD14F580043CBF01F5C9
:10740000801130BD01F0004545F0FE4141F47001AE
:107410004FF0000030BD7FEA645C1ABF1946104689
:107420007FEA655C1CBF0B46024650EA013406BF8A
:1074300052EA033591EA030F41F4002130BD00BF49
:1074400090F0000F04BF0021704730B54FF4806406
:1074500004F132044FF000054FF0000150E700BF87
:1074600090F0000F04BF0021704730B54FF48064E6
:1074700004F1320410F0004548BF40424FF00001D3
:107480003EE700BF42004FEAE2014FEA31014FEA16
:1074900002701FBF12F07F4393F07F4F81F0605165
:1074A000704732F07F4208BF704793F07F4F04BFB0
:1074B00041F40021704730B54FF4607401F000458D
:1074C00021F000411CE700BF50EA010208BF7047ED
:1074D00030B54FF000050AE050EA010208BF7047DE
:1074E00030B511F0004502D5404261EB41014FF447
:1074F000806404F132045FEA915C3FF4D8AE4FF04F
:1075000003025FEADC0C18BF03325FEADC0C18BF31
:10751000033202EBDC02C2F1200300FA03FC20FA82
:1075200002F001FA03FE40EA0E0021FA02F11444CF
:10753000BDE600BF70B54FF0FF0C4CF4E06C1CEAE8
:1075400011541DBF1CEA135594EA0C0F95EA0C0F59
:1075500000F0DEF82C4481EA030621EA4C5123EACC
:107560004C5350EA013518BF52EA033541F48011FB
:1075700043F4801338D0A0FB02CE4FF00005E1FBAE
:1075800002E506F00042E0FB03E54FF00006E1FBF8
:1075900003569CF0000F18BF4EF0010EA4F1FF043B
:1075A000B6F5007F64F5407404D25FEA4E0E6D417B
:1075B00046EB060642EAC62141EA55514FEAC5208C
:1075C00040EA5E504FEACE2EB4F1FD0C88BFBCF508
:1075D000E06F1ED8BEF1004F08BF5FEA500E50F1B9
:1075E000000041EB045170BD06F0004646EA01017F
:1075F00040EA020081EA0301B4EB5C04C2BFD4EBB1
:107600000C0541EA045170BD41F480114FF0000EA9
:10761000013C00F3AB8014F1360FDEBF002001F017
:10762000004170BDC4F10004203C35DA0C341BDC91
:1076300004F11404C4F1200500FA05F320FA04F063
:1076400001FA05F240EA020001F0004221F0004197
:1076500010EBD37021FA04F642EB06015EEA430E0A
:1076600008BF20EAD37070BDC4F10C04C4F120053A
:1076700000FA04F320FA05F001FA04F240EA0200ED
:1076800001F0004110EBD37041F100015EEA430EBE
:1076900008BF20EAD37070BDC4F1200500FA05F2DE
:1076A0004EEA020E20FA04F301FA05F243EA02035D
:1076B00021FA04F001F0004121FA04F220EA02006C
:1076C00000EBD3705EEA430E08BF20EAD37070BDB2
:1076D00094F0000F0FD101F00046400041EB010192
:1076E00011F4801F08BF013CF7D041EA060195F074
:1076F000000F18BF704703F00046520043EB03032E
:1077000013F4801F08BF013DF7D043EA060370471A
:1077100094EA0C0F0CEA135518BF95EA0C0F0CD025
:1077200050EA410618BF52EA4306D1D181EA03016B
:1077300001F000414FF0000070BD50EA410606BF65
:107740001046194652EA430619D094EA0C0F02D1AA
:1077500050EA013613D195EA0C0F05D152EA0336EF
:107760001CBF104619460AD181EA030101F000410D
:1077700041F0FE4141F470014FF0000070BD41F056
:10778000FE4141F4780170BD70B54FF0FF0C4CF430
:10779000E06C1CEA11541DBF1CEA135594EA0C0F4F
:1077A00095EA0C0F00F0A7F8A4EB050481EA030E9C
:1077B00052EA03354FEA013100F088804FEA033383
:1077C0004FF0805545EA131343EA12634FEA022251
:1077D00045EA111545EA10654FEA00260EF0004112
:1077E0009D4208BF964244F1FD0404F5407402D264
:1077F0005B084FEA3202B61A65EB03055B084FEAF5
:1078000032024FF480104FF4002CB6EB020E75EBF1
:10781000030E22BFB61A754640EA0C005B084FEA19
:107820003202B6EB020E75EB030E22BFB61A754696
:1078300040EA5C005B084FEA3202B6EB020E75EBE1
:10784000030E22BFB61A754640EA9C005B084FEA59
:107850003202B6EB020E75EB030E22BFB61A754666
:1078600040EADC0055EA060E18D04FEA051545EA55
:1078700016754FEA06164FEAC30343EA52734FEAFE
:10788000C2025FEA1C1CC0D111F4801F0BD141EA77
:1078900000014FF000004FF0004CB6E711F4801FDC
:1078A00004BF01430020B4F1FD0C88BFBCF5E06FBC
:1078B0003FF6AFAEB5EB030C04BFB6EB020C5FEACC
:1078C000500C50F1000041EB045170BD0EF0004E21
:1078D0004EEA113114EB5C04C2BFD4EB0C0541EA53
:1078E000045170BD41F480114FF0000E013C90E650
:1078F00045EA060E8DE60CEA135594EA0C0F08BF14
:1079000095EA0C0F3FF43BAF94EA0C0F0AD150EA12
:1079100001347FF434AF95EA0C0F7FF425AF1046A5
:1079200019462CE795EA0C0F06D152EA03353FF4CD
:10793000FDAE1046194622E750EA410618BF52EA4A
:1079400043067FF4C5AE50EA41047FF40DAF52EA1E
:1079500043057FF4EBAE12E74FF0FF3C06E000BFBB
:107960004FF0010C02E000BF4FF0010C4DF804CDC8
:107970004FEA410C7FEA6C5C4FEA430C18BF7FEA88
:107980006C5C1BD001B050EA410C0CBF52EA430CB6
:1079900091EA030F02BF90EA020F0020704710F136
:1079A000000F91EA030F58BF994208BF90422CBFC5
:1079B000D8176FEAE37040F0010070474FEA410CBE
:1079C0007FEA6C5C02D150EA013C07D14FEA430CDC
:1079D0007FEA6C5CD6D152EA033CD3D05DF8040B4D
:1079E000704700BF8446104662468C46194663467F
:1079F00000E000BF01B5FFF7B7FF002848BF10F156
:107A0000000F01BD4DF808EDFFF7F4FF0CBF01209A
:107A100000205DF808FB00BF4DF808EDFFF7EAFF16
:107A200034BF012000205DF808FB00BF4DF808EDD1
:107A3000FFF7E0FF94BF012000205DF808FB00BFC6
:107A40004DF808EDFFF7CEFF94BF012000205DF850
:107A500008FB00BF4DF808EDFFF7C4FF34BF01205D
:107A600000205DF808FB00BF4FEA4102B2F1E0439D
:107A700024BFB3F5001CDCF1FE5C0DD901F0004C15
:107A80004FEAC0024CEA5070B2F1004F40EB830065
:107A900008BF20F00100704711F0804F21D113F191
:107AA0003872BCBF01F00040704741F480114FEACA
:107AB0005252C2F11802C2F1200C10FA0CF320FA53
:107AC00002F018BF40F001004FEAC1234FEAD32370
:107AD00003FA0CFC40EA0C0023FA02F34FEA4303DA
:107AE000CCE77FEA625307D150EA01331EBF4FF063
:107AF000FE4040F44000704701F0004040F0FE407E
:107B000040F40000704700BF002301461A461846A3
:107B100000F072B80A44914200F1FF3300D170477F
:107B200010B511F8014B03F8014F9142F9D110BD86
:107B300002440346934200D1704703F8011BF9E762
:107B400038B5104B1D68AB6B0446B3B91820FDF770
:107B5000E7FF0246A86320B90B4B0C484221FEF711
:107B60000FF80B490B4BC0E900130B4B83600B2341
:107B7000838100210120C2E90401AB6B00221C615A
:107B80005A6138BD9CE5032021850B0038850B0028
:107B90000E33CDAB34126DE6ECDE0500034611F872
:107BA000012B03F8012B002AF9D17047024B014643
:107BB000186800F003B800BF9CE5032037B5044601
:107BC00008460D4600F00FF8421C1146204601926F
:107BD000FDF7CEFF044618B1019A2946FFF79AFF38
:107BE000204603B030BD034613F8012B002AFBD119
:107BF000181A0138704700002DE9F843DFF8B88003
:107C00000646D8F800001F460D46914600F056F88B
:107C1000254B1C6834B9254C1C60254B13B11B68DF
:107C2000C4F8883063681F2B07DDD8F8000000F027
:107C300047F84FF0FF30BDE8F8834EB3D4F8880022
:107C400088B91C4B23B9D8F8000000F038F8F0E7E9
:107C50004FF48470FDF764FF0028F4D00023C0E9DE
:107C60004033C4F88800636840F8239001229A40AA
:107C700000EB8301D0F800311343C0F80031022E2D
:107C8000C1F8807002BFD0F804311343C0F804314A
:107C90006368D8F800005A1C0233626044F823502D
:107CA00000F00EF80020C6E7E8E703205CE70320B9
:107CB00000000000215B0B0000E6032070477047C6
:107CC0007047000021400B005D400B0085400B0019
:107CD00089400B000000000043616C6C206F6E2037
:107CE00070757265207669727475616C00424D45DD
:107CF000323830206174206164647265737320309F
:107D00007825303258206661696C656420746F2074
:107D10007374617274004E6F74207075626C697355
:107D200068696E673A20004E6F7420636F6E6E65EF
:107D3000637465642C2062757420776F756C6420A1
:107D40007075626C6973683A20005075626C697373
:107D500068696E672074656D70463A2000252E3282
:107D6000660A00252E32660074656D704600436C0D
:107D70006F7365642E2E2E0A543A20252E326646E5
:107D80000A52483A252E3266252520004F70656E2E
:107D900028736868290A543A20252E3266460A520A
:107DA000483A252E3266252520004F70656E210A3F
:107DB000543A20252E3266460A52483A252E32661B
:107DC0002525200025730064656661756C742000AC
:107DD0004D5342004C5342003C5350495365747418
:107DE000696E67732064656661756C743E003C5310
:107DF000504953657474696E677320257325752027
:107E00002573204D4F444525753E000000000000BD
:107E100000000000A5440B0095440B0097440B00A4
:107E20000000000000000000E14E0B00714F0B004D
:107E3000DD550B0071610B00E54E0B00F5520B0098
:107E40006D4D0B00FD4B0B00B3530B0051540B0059
:107E500087540B00A3540B0000000000003E5B4F52
:107E60005B3E3E6B4F6B3E1C3E7C3E1C183C7E3C9A
:107E7000181C577D571C1C5E7F5E1C00183C1800A8
:107E8000FFE7C3E7FF0018241800FFE7DBE7FF3038
:107E9000483A060E2629792926407F050507407FA6
:107EA00005253F5A3CE73C5A7F3E1C1C08081C1C19
:107EB0003E7F14227F22145F5F005F5F06097F010F
:107EC0007F006689956A606060606094A2FFA294FA
:107ED00008047E040810207E201008082A1C0808C8
:107EE0001C2A08081E101010100C1E0C1E0C303816
:107EF0003E3830060E3E0E06000000000000005F17
:107F000000000007000700147F147F14242A7F2A32
:107F100012231308646236495620500008070300F4
:107F2000001C2241000041221C002A1C7F1C2A0840
:107F3000083E0808008070300008080808080000A3
:107F400060600020100804023E5149453E00427F17
:107F5000400072494949462141494D331814127F66
:107F60001027454545393C4A494931412111090706
:107F70003649494936464949291E00001400000087
:107F80004034000000081422411414141414004159
:107F900022140802015909063E415D594E7C121116
:107FA000127C7F494949363E414141227F4141414E
:107FB0003E7F494949417F090909013E41415173C9
:107FC0007F0808087F00417F41002040413F017F3A
:107FD000081422417F404040407F021C027F7F0402
:107FE00008107F3E4141413E7F090909063E41514B
:107FF000215E7F09192946264949493203017F013B
:10800000033F4040403F1F2040201F3F4038403F3B
:10801000631408146303047804036159494D430051
:108020007F4141410204081020004141417F040288
:10803000010204404040404000030708002054541F
:1080400078407F28444438384444442838444428FD
:108050007F385454541800087E090218A4A49C7850
:108060007F0804047800447D40002040403D007FAC
:108070001028440000417F40007C047804787C088C
:108080000404783844444438FC1824241818242460
:1080900018FC7C08040408485454542404043F4445
:1080A000243C4040207C1C2040201C3C4030403C74
:1080B00044281028444C9090907C4464544C4400D4
:1080C0000836410000007700000041360800020138
:1080D0000204023C2623263C1EA1A161123A404024
:1080E000207A3854545559215555794121545478A2
:1080F00041215554784020545579400C1E5272123B
:1081000039555555593954545459395554545800C2
:1081100000457C410002457D420001457C40F0293C
:108120002429F0F0282528F07C545545002054548B
:108130007C547C0A097F49324949493232484848CF
:1081400032324A4848303A4141217A3A4240207816
:10815000009DA0A07D39444444393D4040403D3C11
:1081600024FF2424487E4943662B2FFC2F2BFF0934
:1081700029F620C0887E0903205454794100004428
:108180007D413048484A32384040227A007A0A0A13
:10819000727D0D19317D2629292F28262929292686
:1081A00030484D4020380808080808080808382FCB
:1081B00010C8ACBA2F102834FA00007B0000081455
:1081C0002A142222142A1408AA005500AAAA55AA81
:1081D00055AA000000FF00101010FF00141414FF37
:1081E000001010FF00FF1010F010F0141414FC0029
:1081F0001414F700FF0000FF00FF1414F404FC1433
:108200001417101F10101F101F1414141F0010102B
:1082100010F0000000001F101010101F10101010A0
:10822000F010000000FF101010101010101010FFC0
:1082300010000000FF140000FF00FF00001F1017D7
:108240000000FC04F414141710171414F404F400C0
:1082500000FF00F714141414141414F700F7141486
:1082600014171410101F101F141414F4141010F00D
:1082700010F000001F101F0000001F14000000FC81
:10828000140000F010F01010FF10FF141414FF146D
:108290001010101F00000000F010FFFFFFFFFFF0A4
:1082A000F0F0F0F0FFFFFF0000000000FFFF0F0FF5
:1082B0000F0F0F38444438447C2A2A3E147E0202B1
:1082C0000606027E027E0263554941633844443CFF
:1082D00004407E201E2006027E020299A5E7A59991
:1082E0001C2A492A1C4C7201724C304A4D4D3030C8
:1082F00048784830BC625A463D3E494949007E01B3
:1083000001017E2A2A2A2A2A44445F444440514AD1
:10831000444040444A51400000FF0103E080FF0018
:108320000008086B6B083612362436060F090F0654
:10833000000018180000001010003040FF0101007C
:108340001F01011E00191D1712003C3C3C3C00009F
:10835000000000000000000000000000000000001D
:1083600000000000DD550B0071610B00A5400B0003
:10837000F5520B001B540B0037540B00B3530B008A
:1083800051540B0087540B00A3540B000000000055
:1083900000000000FF5B0B00F55B0B00EB5B0B00CC
:1083A000E15B0B00D55B0B00C95B0B00556E0B004E
:1083B0005D6E0B00BD5B0B00B55B0B00AB5B0B0098
:1083C000A15B0B008D6E0B000008101820283038C0
:1083D0006170700025592D256D2D25645425483A6E
:1083E000254D3A2553257A0061736374696D6500E4
:1083F000000000000000000091640B0097640B0077
:10840000D5640B00A5640B0093640B000000000012
:1084100000000000D1690B00C1690B00C3690B00AB
:108420000000000000000000B76A0B001F6B0B008B
:10843000F56A0B0071610B00E76A0B00B96A0B006B
:10844000C96A0B00196B0B00D96A0B00B16A0B00EB
:108450000000000000000000B96B0B00256C0B0051
:10846000FD6B0B0071610B00CD6B0B00E96B0B001A
:10847000DB6B0B00F76B0B00BB6B0B00BF6B0B00D8
:108480000000000000000000856C0B00CF6C0B00AA
:10849000A76C0B00876C0B00AF6C0B00B76C0B006C
:1084A000BF6C0B00C76C0B00000000000000000058
:1084B000F76D0B00ED6D0B00E36D0B00996D0B007C
:1084C000D76D0B00CB6D0B00556E0B005D6E0B0076
:1084D000BF6D0B00B76D0B00AD6D0B00A36D0B00F6
:1084E0008D6E0B000000000000000000156E0B00F8
:1084F0001F6E0B00296E0B00336E0B003D6E0B00E0
:10850000496E0B00556E0B005D6E0B00656E0B0027
:10851000716E0B00796E0B00836E0B008D6E0B007D
:10852000005245454E54206D616C6C6F632073752D
:1085300063636565646564002F6D6E742F776F7279
:108540006B73706163652F776F726B7370616365B6
:108550002F4743432D31302D706970656C696E650E
:108560002F6A656E6B696E732D4743432D31302D35
:10857000706970656C696E652D34385F32303230E9
:10858000313132345F313630363138303634312F94
:108590007372632F6E65776C69622F6E65776C6995
:1085A000622F6C6962632F7374646C69622F7261ED
:1085B0006E642E63000000003D440B00095C0B005C
:1085C000755F0B0061610B0085620B0095620B000B
:1085D0004D630B00016E0B00656F0B000000000087
:1085E000040000001400000003000000474E550086
:1085F000D95EDD44BD7CF65B65231396EB0E6D1FE3
:048600006504F21506
:048604000000000072
:1086080001000103070F1F3F7F0080C0E0F0F8FC66
:10861800FE00000000000000000000000000000054
:108628000000000000000000000000000000000042
:108638000000000000000000000000000000000032
:108648000000000000000000000000000000000022
:108658008080800000000000000000000000000092
:1086680000008080C0C00000000000000000000082
:1086780000000000000000000000000000000000F2
:1086880000000000000000000000000000000000E2
:1086980000000000000000000000000000000000D2
:1086A800000000000080C0E0F0F8FCF8E0000000E6
:1086B80000000000000000000000000000008080B2
:1086C80080808000808000000000808080808000A2
:1086D800FFFFFF0000000080808080000080800095
:1086E8000080FFFF80800080800080808080008084
:1086F800800000000000808000008C8E84000080D4
:10870800F8F8F880000000000000000000000000F9
:1087180000F0F0F0F0F0F0F0F0F0F0F0F0E0E0C091
:108728008000E0FCFEFFFFFF7FFFFFFFFFFF000070
:10873800000000000000000000000000FEFFC7016C
:1087480001010183FFFF00007CFEC70101010183D5
:10875800FFFFFF0038FEC78301010183C7FFFF0049
:108768000001FFFF010100FFFF0701010100007F79
:10877800FF80000000FFFF7F0000FFFFFF000001F7
:10878800FFFFFF01000000000000000000000000E3
:1087980000030F3F7F7FFFFFFFFFFFFFFFE7C7C714
:1087A8008F8F9FBFFFFFC3C0F0FFFFFFFFFFFCFCE1
:1087B800FCFCFCFCFCFCF8F8F0F0E0C00001030352
:1087C8000303030103030000000001030303030183
:1087D8000103010000000103030303010103030077
:1087E8000000030300000003030000000000000075
:1087F800010303030303010000000103010000005B
:108808000303010000000000000000000000000059
:108818000000000080C0E0F0F9FFFFFFFFFF3F1FEE
:108828000F87C7F7FFFF1F1F3DFCF8F8F8F87C7D9E
:10883800FFFFFFFFFFFFFFFF7F3F0F070030300004
:108848000000000000000000000000000000000020
:108858000000000000FEFEFC000000000000000018
:108868000000000000000000000000000000E0C060
:108878000000000000000000000000303000000090
:1088880000000000000000000000000000000000E0
:108898000000C0FEFFFFFFFFFFFFFFFFFF7F7F3FDE
:1088A8001F0F071F7FFFFFF8F8FFFFFFFFFFFEF80E
:1088B800E0000000010000000000000000FEFE00D3
:1088C8000000FCFEFC0C06060EFCF80000F0F81C8C
:1088D8000E0606060CFFFFFF0000FEFE000000006B
:1088E800FCFEFC00183C7E66E6CE84000006FFFF16
:1088F8000606FCFEFC0C0606060000FEFE0000C094
:10890800F8FC4E4646464E7C7840183C76E6CECC7F
:1089180080000000000000000000000000000000CF
:10892800000000000001070F1F1F3F3F3F3F1F0FC0
:10893800030000000000000000000000000F0F000E
:1089480000000F0F0F000000000F0F000003070EBC
:108958000C18180C060F0F0F0000010F0E0C180C46
:108968000F070100040E0C180C0F070000000F0F72
:1089780000000F0F0F0000000000000F0F000000A4
:1089880007070C0C181C0C060600040E0C180C0F1C
:1089980007000000000000000000000000000000C8
:1089A80000000000000000000000000000000000BF
:1089B80000000000000000000000000000000000AF
:1089C800000000000000000000000000000000009F
:1089D800000000000000000000000000000000008F
:1089E800000000000000000000000000000000007F
:1089F800000000000000000000000000000000006F
:108A0800000000000000000000000000000000005E
:108A180000000000E8830B00A0E503200000000030
:108A2800000000000000000000000000000000003E
:108A3800000000000000000000000000000000002E
:108A4800000000000000000000000000000000001E
:108A5800000000000000000000000000000000000E
:108A680000000000000000000000000000000000FE
:108A7800000000000000000000000000ECE70320F8
:108A8800FFFFFFFF00000102030405060708090AAB
:108A98000B0C0D0E0F101112131415161718191AA6
:088AA8001B1C1D1E1F202800ED
:048AB00078563412AE
:04000003B0004020E9
:00000001FF
