:02000002B0004C
:1040000000400B002C8F0B00000006000C00050286
:084010000401A60F00000000EE
:044018002C810B00EC
:1040200009480A49884208B505D0094A824202D0A7
:10403000121A03F0A3FF0748074A0021121A03F0DF
:10404000ABFF014808BD00BFD0E00320888A0B0009
:104050004CE5032050E50320F1E7032070B5074E3F
:10406000074C02F069FBA41BA4080025AC4200D158
:1040700070BD56F8043B98470135F7E7348A0B00CA
:10408000588A0B0000F05EBB08B500F039FABDE8B5
:10409000084002F009BB01F035BF01F033BF01F069
:1040A00039BF000008B5034A03490C2001F05EFE49
:1040B000FEE700BFDD5A0B0040810B000078B0FA2C
:1040C00080F04009704701230370704708B5044B26
:1040D000D3E9000103F0D4FE6423584308BD00BFB8
:1040E00020E603202F2810B504460DD9094A0A49B5
:1040F0000A2001F03BFE094B04F01F04D3F8100521
:10410000E04000F0010010BD1F28F4D84FF0A0439C
:10411000F4E700BFDD5A0B0055810B00000300508F
:104120002DE9F843DFF82C81876898F80030484D76
:10413000BFF35B8F13F0010F044609D14046FFF730
:10414000BDFF28B101F08AFC28604046FFF7BBFFA5
:10415000BFB22B683F01DE5D98F80030BFF35B8F84
:10416000D9074FEA461909D43A48FFF7A7FF28B103
:1041700001F074FC28603748FFF7A5FF2B683B442B
:104180005E7806F01F0646EA09063046FFF7AAFFEA
:104190003046FFF7A7FFE76898F80030BFF35B8F62
:1041A000DA07C6B209D42B48FFF788FF28B101F01F
:1041B00055FC28602748FFF786FFBFB22B683F01F8
:1041C00013F8079098F80030BFF35B8FDB074FEAD6
:1041D000491909D41F48FFF771FF28B101F03EFCCF
:1041E00028601C48FFF76FFF2B681F447D7805F09F
:1041F0001F0545EA09052846FFF774FF2846FFF723
:1042000071FF237CC0B203F003030EB143F004033B
:1042100008B143F008039A08013B22740D2B0BD818
:10422000DFE803F0070C0F0C0A120707120A0C0F45
:104230000C07636901336361BDE8F8836369013B7F
:10424000F9E763690233F6E76369023BF3E700BF0E
:1042500054E5032050E5032010B403685A689968B8
:104260001B68541001EB6200D20748BF0A595DF881
:10427000044B48BFD3581847012A38B5044602D129
:104280000B68236003E0022A03D0032A0DD000202C
:1042900038BD0C200D68FFF7FEFE03460028F0D065
:1042A00095E8070083E80700EBE700680028EED0F8
:1042B0000C21FFF7F4FEEAE7F0B58DB002AD85E81A
:1042C0000600064695E8030005AC84E805001F4695
:1042D0000C2000230A93FFF7DEFE024620B194E88B
:1042E000030082E8030097600B4B0B930B4B0A9380
:1042F0009DF85030089200939DF848209DF94C306D
:1043000008A9304602F032FE0A9B1BB108A903221D
:10431000084698470DB0F0BD59420B0079420B009A
:104320000EB403B503AB002153F8042B019302F044
:104330000AF902B05DF804EB03B070472DE9F04FC5
:104340000F460446164689B00221384603F05EF84F
:104350000221304603F05AF8DFF858B1E660002336
:10436000C4E90137236063614FF4FA6001F0B6FBE2
:10437000D4F808A09BF800304D4DBFF35B8F13F0CD
:10438000010F09D15846FFF799FE28B101F066FBED
:1043900028605846FFF797FE1FFA8AFA2B684FEA03
:1043A0000A1A13F80A809BF80030BFF35B8FD90715
:1043B0004FEA481909D43F48FFF780FE28B101F0C1
:1043C0004DFB28603B48FFF77EFE2B68534493F873
:1043D000018008F01F0848EA09084046FFF782FEFE
:1043E0004046FFF77FFED4F80CA09BF80030BFF3E7
:1043F0005B8FB0F1000818BF4FF00108DA0709D44D
:104400002C48FFF75BFE28B101F028FB2860294803
:10441000FFF759FE1FFA8AFA2B684FEA0A1A13F8B7
:104420000A909BF80030BFF35B8FDB074FEA491916
:1044300009D42048FFF742FE28B101F00FFB2860A5
:104440001C48FFF740FE2B689A449AF8015005F08B
:104450001F0545EA09052846FFF744FE2846FFF7F1
:1044600041FE08B148F00208DFF84C9084F8108053
:1044700000254FF0FF3823462A4649463846CDE905
:1044800000580295CDF810900595FFF715FFCDE97E
:104490000695CDE90185009508AA304612E9060087
:1044A0002346FFF709FF204609B0BDE8F08F00BFA3
:1044B00054E5032050E5032021410B0010B558B10D
:1044C000012817D00121082002F0B1FF01210720A7
:1044D00002F0ADFF002108E00146082002F0A7FF2E
:1044E0000121072002F0A3FF0121BDE810400620B2
:1044F00002F09DBF0146082002F099FF0021F0E77D
:1045000030B5714C8BB001F0F1FA2368C01A47F254
:104510003053984240F2A68001F0E8FA20606B48E0
:104520006B4C6C4D00F076FC10EE100A03F0B6F9FF
:10453000C4E90001654800F09DFC9FED5B4B9FEDD9
:104540005C3B9FED5D2B9FED5E1B85ED000A94EDBE
:10455000000B02F03BF851EC100B03F0B9FC5E4C81
:10456000206003F09BF902460B462868CDE9022340
:1045700003F094F9DDE90223CDE90001574906A8CB
:1045800001F020FF06A9564801F014FF06A801F02B
:104590007BFE01F0ABFA534B1B68C01A0A2829D9DD
:1045A000206803F07BF902460B4628684E4DCDE9A2
:1045B000022303F073F9DDE90223CDE900014B4941
:1045C00006A801F0FFFE06A9284601F0F3FE06A8A2
:1045D00001F05AFE464800F0D3FE4548052200216E
:1045E00001F018FA2A6843494148FFF799FE40480C
:1045F00000F022FF01F06EFC00284DD102F062FCB9
:104600003D49FFF78DFE02F05DFC354B3B491A68D2
:10461000FFF786FE206803F041F902460B4606A824
:10462000374901F0CFFE374B069A1B788DF80030E2
:1046300035493C2304A802F003FA059C7CB1636869
:10464000013B63605BB9236820469B689847A36879
:10465000013BA3601BB923682046DB68984706A886
:1046600001F012FE294C01F041FA2368C01AFA2821
:1046700018D9032002F0F4FEA0B101F037FA244A61
:104680002060137883F0010313704BB102200BB04C
:10469000BDE83040FFF712BF02F014FC1D49B0E73F
:1046A0000120F4E70BB030BD0000000000806A403C
:1046B00000000000000040400000000000005940E1
:1046C000000000000000000014E60320C4E5032001
:1046D00020E603200CE6032028E6032079810B0066
:1046E00068E5032008E6032058E5032083810B00DA
:1046F000A0E5032097810B009A810B00CE810B006F
:104700007E810B009CE50320E1810B001CE6032069
:1047100010E60320C1810B0008B50121082002F03A
:1047200075FE0121072002F071FE0121062002F032
:104730006DFE0321084602F069FEBDE80840012035
:10474000FFF7BCBE08B5FFF7E7FF02F0BBFB21494E
:10475000FFF7E6FD02F0B6FB4FF4165102F0A6FBA0
:1047600000231D491D48092201F09CFB1C4A1D49DC
:104770001D4802F06EF801F0A5FB02F001FF02F007
:10478000D7FC1A48762100F018FC194B187028B98C
:1047900002F098FB17497622FFF7C2FD3C2216482B
:1047A000022100F0B9FE1448012101F03BF9022179
:1047B000114801F032F9104800F0E2FD0E4800F017
:1047C0003BFE01F087FB20B102F07CFB0B49FFF7B9
:1047D000A7FD08BDE7810B0020E60320E1810B0067
:1047E00007820B00CD400B0027680B00C4E50320B7
:1047F00018E603200F820B00A0E5032038820B008F
:1048000008B5114B02201870104B0022C3E900229A
:10481000A2F580329A6001F0B1FA09210C4800F04B
:1048200099FD0C4800F052F8042205210A48FFF7D0
:1048300085FD0A490A4801F072FDBDE808400749B4
:10484000084801F06CBD00BF9CE5032078E503201B
:10485000A0E50320C4E5032084E5032043820B0088
:1048600068E5032058E50320704710B51021044681
:10487000FFF715FC204610BD73B5044608462279A3
:10488000A36832B1A3B90B4902B0BDE8704001F092
:1048900029BE094A267B094D0949647B012E18BFB0
:1048A0002946CDE900140749FFF73AFD02B070BD73
:1048B000054AEFE755820B0043820B0051820B0043
:1048C0004D820B006B820B0044820B004FF0FF33D4
:1048D0000361704713B50B4C2178BFF35B8F11F068
:1048E00001010BD120460191FFF7E8FB019928B1A6
:1048F000054801F08BFB2046FFF7E5FB024802B0BC
:1049000010BD00BF2CE6032030E6032008B5FFF7FA
:10491000E1FFBDE8084001F0BFBB07B50190FFF71C
:10492000D9FF019903B05DF804EB01F0CFBB2DE98D
:10493000F04190F91330013305460F4606D1FFF7D9
:10494000C9FF3946BDE8F04101F086BC00240726C6
:104950004FF0010895F91300002180B202F067FDC5
:1049600095F9110008FA06F1394080B202F05FFDB6
:1049700095F91300012180B202F059FD95F912005A
:10498000640080B2E4B202F06BFD08B144F00104AF
:10499000013EDFD22046BDE8F08100007FB590F9EE
:1049A0001030013304460E46154613D101790068D4
:1049B00002F0F0FB2068036831469B689847206846
:1049C000036829469B689847206804B0BDE870409A
:1049D00002F0EBBB90F9133001330CD1164B00936E
:1049E00000238DF80430154B029368460123ADF87F
:1049F0000C30FFF792FF94F91000002180B202F012
:104A000016FD06F07F012046FFF791FF294620465C
:104A1000FFF78DFF94F91000012180B202F007FD2D
:104A200094F91330013304D104B0BDE87040FFF7AE
:104A30006DBF04B070BD00BF90820B0020A10700C5
:104A4000F8B5DB0002F0070203F03803134343EA32
:104A500081139DF8186080F83C3090F840309DF844
:104A60001C509DF8207066F3471380F84030ED002D
:104A700090F8383007F0070705F0380523F03F03BA
:104A80003D4304461D4380F8385006F00702F221EA
:104A9000FFF784FF94F83820C2F3C20302F0070145
:104AA0009B0043EA411343EAD2122046F521FFF767
:104AB00075FF94F83C20C2F3C20302F007019B008B
:104AC00043EA411343EA92122046F421BDE8F8403C
:104AD000FFF764BF30B590F91030013385B004465C
:104AE0000D4618D10179006802F054FB2068036874
:104AF00029469B689847206802F057FB2179206877
:104B0000012202F044FB206803685B699847C5B244
:104B1000284605B030BD90F9133001330CD1154B48
:104B2000009300238DF80430134B02936846012351
:104B3000ADF80C30FFF7F1FE94F91000002180B2BF
:104B400002F075FC45F080012046FFF7F0FE0021E1
:104B50002046FFF7ECFE054694F91000012180B2D3
:104B600002F065FC94F913300133D1D1FFF7CEFE8A
:104B7000CEE700BF90820B0020A1070008B5F3210B
:104B8000FFF7A8FF00F0010008BD000030B590F964
:104B90001030013385B004460D461FD101790068FD
:104BA00002F0F8FA2068036829469B689847206855
:104BB00002F0FBFA21792068022202F0E8FA20686C
:104BC00003685B6998470546206803685B699847F6
:104BD00040EA052085B2284605B030BD90F9133073
:104BE00001330CD1184B009300238DF80430174B80
:104BF000029368460123ADF80C30FFF78EFE94F95E
:104C00001000002180B202F012FC45F08001204625
:104C1000FFF78DFE00212046FFF789FE00210546A3
:104C20002046FFF784FE40EA052085B294F9100083
:104C3000012180B202F0FBFB94F913300133CAD199
:104C4000FFF764FEC7E700BF90820B0020A10700BA
:104C500008B5FFF79BFF40BA80B208BD38B5882180
:104C60000446FFF7F5FF8A21A0822046FFF7F0FFF8
:104C70008C21E0822046FFF7EBFF8E212083204627
:104C8000FFF7E6FF902160832046FFF7E1FF9221C6
:104C9000A0832046FFF7DCFF9421E0832046FFF746
:104CA000D7FF962120842046FFF7D2FF9821608409
:104CB0002046FFF7CDFF9A21A0842046FFF7C8FFCA
:104CC0009C21E0842046FFF7C3FF9E2120852046DB
:104CD000FFF7BEFFA12160852046FFF7FBFEE12123
:104CE00084F82C002046FFF7B3FFE321E08520463F
:104CF000FFF7F0FEE42184F830002046FFF7EAFEDB
:104D0000E52105462046FFF7E5FE00F00F0343EAE4
:104D100005106086E6212046FFF7DCFEE52105460A
:104D20002046FFF7D7FEC0F3071343EA0510A0861D
:104D3000E7212046FFF7CEFE84F8360038BD00009C
:104D400030B590F91030013385B004460D4623D1BB
:104D50000179006802F01EFA2068036829469B6802
:104D60009847206802F021FA21792068032202F096
:104D70000EFA206803685B6998470502206803689B
:104D80005B69984728430502206803685B69984778
:104D90000543284605B030BD90F9133001330CD1DE
:104DA0001A4B009300238DF80430194B0293684688
:104DB0000123ADF80C30FFF7B0FD94F9100000218D
:104DC00080B202F034FB45F080012046FFF7AFFDD2
:104DD00000212046FFF7ABFD002105022046FFF72A
:104DE000A6FD2843050200212046FFF7A0FD05434C
:104DF00094F91000012180B202F019FB94F91330EC
:104E00000133C6D1FFF782FDC3E700BF90820B00DC
:104E100020A1070010B5FA210446FFF791FFB0F575
:104E2000000F1FD0A18A9FED117A4B00C1EB202209
:104E3000C3EBE011B4F91630594302FB02F3B4F9A5
:104E400018201B1353439B1303EBE123E36003EB95
:104E5000830380331B1207EE903AF8EEE77A87EE71
:104E6000870A10BD9FED020AFBE700BF0000C842A1
:104E70000000C07F38B50446FFF7CCFFFD21204677
:104E8000FFF784FEB0F5004F38D0E168B4F9342064
:104E9000A1F59635B4F932100905C1EB803305FB55
:104EA000123303F58043DA1394F8303094F9361056
:104EB0006B43DB126943891203F500434B439B129A
:104EC000B4F92E1003F500134B4303F500539B1365
:104ED0005343DA1394F82C105243D2114A43A3EBF4
:104EE000221323EAE373B3F1C85FA8BF4FF0C8539E
:104EF0001B1300EE103ABAEECB0A38BD9FED010A43
:104F0000FBE700BF0000C07F30B5044690F91000F9
:104F1000421C85B019D1206802F00AF9D021204640
:104F2000FFF7D8FD6028A06045D12046B622E021D9
:104F3000FFF734FD4FF4967001F08BFB2046FFF72E
:104F40001DFE054628B36420F6E7012180B202F079
:104F50006EFA94F91000012180B202F057FA94F928
:104F60001300431C04D1FFF7B5FC01F059F8D5E755
:104F7000012180B202F04AFA94F91100012180B2B5
:104F800002F044FA94F91200002180B202F03EFAD5
:104F9000C4E72046FFF762FE052300931A4603216B
:104FA0002046CDE90155FFF74BFD642001F051FB90
:104FB000012005B030BD0020FBE710B501710446AB
:104FC00002F0DEFA20602046BDE81040FFF79CBFEB
:104FD000F0B5457EBDF81440022D69D0032D00F0D8
:104FE0009980012D6CD10589D2432A4412B2002A3E
:104FF0005DDBB0F90850954259DD0029BEBF5B1852
:105000001BB20021B0F90A00CD188542C4BF431A73
:105010001BB2002B4BDDC1F3C400DFF820C102EB53
:10502000C01211F00701DBB20CEB02001AD0C1F183
:105030000805404EEDB2AB42775D3FBFA5EB030ED6
:10504000FF2646FA0EF637401CF80260012C0CBF12
:105050003E43BE43AB420CF8026028D308390B44F0
:10506000DBB28030072B19D9012C4FF0FF3518BF68
:105070000025EDB200F180011A46083AD2B2072AA3
:1050800001F8805C01F18001F7D8A3F10802C2F3B6
:10509000C402013200EBC21003F007033BB1264A01
:1050A000D25C0378012C0CBF134393430370F0BD13
:1050B0004589D2432A44CD180189491B12B209B24D
:1050C000002AF4DBB0F90A509542F0DD0029BEBF9A
:1050D0005B181BB20021B0F90870CE18BE42C4BFE5
:1050E0006B1A1BB2002BE2DDD010802510FB0511DE
:1050F0001248014402F0070001228240012CD2B282
:105100000B440CD18B42D2D011F8010B104301F8A3
:10511000010CF7E7CD184189491B09B267E7D24373
:10512000D2B28B42C3D011F8010B104001F8010C30
:10513000F7E700BFD8E00320D0E00320E0E0032041
:10514000F0B5457EBDF81440022D34D0032D00F09B
:105150009B80012D37D1D5180289521B12B200292C
:10516000C0F29180B0F90A508D4240F38C80002A41
:10517000BEBF9B181BB20022B0F90870D618BE4201
:10518000C4BFAB1A1BB2002B7DDDC810802510FBFD
:1051900005224548024401F0070001218140012C0D
:1051A000C9B2134475D19A426DD012F8010B08436D
:1051B00002F8010CF7E70589C9432944D51842894B
:1051C000521B09B212B200295DDBB0F908508D42C2
:1051D00059DD002ABEBF9B181BB20022B0F90A009D
:1051E000D5188542C4BF831A1BB2002B4BDDC2F316
:1051F000C400DFF8B4C001EBC01112F00702DBB24B
:105200000CEB01001AD0C2F10805284EEDB2AB42FA
:10521000775D3FBFA5EB030EFF2646FA0EF637403B
:105220001CF80160012C0CBF3E43BE43AB420CF89E
:10523000016028D3083A1344DBB28030072B19D918
:10524000012C4FF0FF3518BF0025EDB200F18001B1
:105250001A46083AD2B2072A01F8805C01F18001AF
:10526000F7D8A3F10802C2F3C402013200EBC21066
:1052700003F007033BB10E4AD25C0378012C0CBF4C
:10528000134393430370F0BD4589C943294409B2D0
:1052900065E7C943C9B29A42F5D012F8010B08403C
:1052A00002F8010CF7E700BFE0E00320D8E003209C
:1052B000D0E0032070470000F8B50D1E06461446E6
:1052C0001F462DDB00F0B3FBA84229DD002C27DBB5
:1052D000304600F0AFFBA04222DD304600F0A5FBD7
:1052E00002281ED0032825D0012804D13389E243A7
:1052F0001A442C4615B2002C2246B8BFE21DD2102B
:10530000802112FB01550E49012204F007044B577E
:1053100002FA04F464B297420CBF2343A3434B55F3
:10532000F8BD318972890139E4434D1B14442DB213
:1053300024B2E0E77389013B5B1B25461CB2DAE728
:10534000E0E0032010B524210446FEF7A8FE204625
:1053500010BD000038B5402204460D46802100F003
:105360008BFA064B2360FF2384F8213063774FF6D6
:10537000FF73E38384F82050204638BDA4820B00DD
:1053800002484FF48062002102F006BEE0E00320F4
:1053900007B590F8223043B10191FFF79BFA0199CC
:1053A00003B05DF804EB00F057BF0B46817F407FF0
:1053B000012203B05DF804EB02F065B838B590F94E
:1053C0001D30013304460D461DD090F92100012106
:1053D00080B202F02CF894F91F00002180B202F094
:1053E00026F894F92100002180B202F020F8294625
:1053F0002046FFF7CDFF94F921000121BDE8384098
:1054000080B202F014B802F0BBF894F91B1001F05E
:10541000C5FE02F0B5F8036800219B68984702F0CA
:10542000AFF8036829469B68984702F0A9F8BDE8E1
:10543000384001F0BABE0000F8B521210446FFF75C
:10544000BDFF00212046FFF7B9FF7F212046FFF76F
:10545000B5FF22212046FFF7B1FF00212046FFF7CC
:10546000ADFF07212046FFF7A9FF94F91D30294F12
:1054700001332AD094F92100012180B201F0D7FF35
:1054800094F91F00012180B201F0D1FF94F92100AD
:10549000002180B201F0CBFF012000F01FFB4FF490
:1054A0008065013D17F8011B2046ADB2FFF770FF84
:1054B000002DF6D1012000F011FB94F9210001210B
:1054C000BDE8F84080B201F0B2BF002502F058F804
:1054D00094F91B1001F062FE02F052F803684021BB
:1054E0009B68984705F11006B6B202F049F80368C8
:1054F000795D9B6898476B1C9DB2AE42F5D102F076
:105500003FF801F052FEB6F5806F00D1F8BD354688
:10551000DCE700BFE0E0032038B590F91D300177EB
:10552000013304460D46C27600F0C98090F91F0091
:10553000012180B201F06AFF94F92100012180B2BB
:1055400001F064FF94F82230002B00F0A68094F95B
:105550002100012180B201F06AFFFFF7BBF90121B0
:1055600000F072FDFFF7B6F9102100F04FFEFFF7D3
:10557000B1F9002100F07CFDFFF7ACF900F050FD1F
:1055800094F92000012180B201F040FF94F920003D
:10559000012180B201F04BFF012001F05AF894F98B
:1055A0002000002180B201F042FF0A2001F051F8F2
:1055B00094F92000012180B201F039FF2046AE218C
:1055C000FFF7FCFE2046D521FFF7F8FE204680219C
:1055D000FFF7F4FE2046A821FFF7F0FE20463F210A
:1055E000FFF7ECFE2046D321FFF7E8FE204600211E
:1055F000FFF7E4FE20464021FFF7E0FE8D21204624
:10560000FFF7DCFE012D0CBF102114212046FFF70F
:10561000D5FE20462021FFF7D1FE20460021FFF7CE
:10562000CDFE2046A121FFF7C9FE2046C821FFF785
:10563000C5FE2046DA21FFF7C1FE20461221FFF702
:10564000BDFE81212046FFF7B9FE012D0CBF9F2131
:10565000CF212046FFF7B2FED9212046FFF7AEFE4C
:10566000012D0CBF2221F1212046FFF7A7FE204685
:10567000DB21FFF7A3FE20464021FFF79FFE2046D7
:10568000A421FFF79BFE2046A621FFF797FE2046A8
:10569000AF21BDE83840FFF791BE94F91D0001210C
:1056A00080B201F0B3FE94F91E00012180B201F036
:1056B000ADFE94F82230002B3FF462AF47E701F0D3
:1056C0005FFF01F035FD5BE72DE9F04F85B01F4628
:1056D000BDF93880BDF83C30A8EB0209A7EB010A00
:1056E000B9F1000FB8BFC9F10009BAF1000FB8BF96
:1056F000CAF1000AD14583460C46154604DD3A46F8
:105700002C4647460D469046BC4205DD2A46454696
:10571000904622463C4617463E1BB2B20092A8EB8A
:10572000050282EAE271A1EBE271C6F3C03202FA2D
:1057300086F64545B4BF01224FF0FF320191761045
:105740000292BC421CDCDBF800200393D145D2F866
:105750001080C7BF294622462A4621465846C047E0
:10576000019A039BB61AB1B236B2002E05DA029A3C
:105770001544009A56182DB236B2013424B2E0E72F
:1057800005B0BDE8F08F2DE9F347BDF82C80076820
:10579000BDF92890CDF800800446FF6916468A4678
:1057A0001D46B8472368CDF8008009F1FF32324426
:1057B000DF6951462B46204612B2B8472368CDF820
:1057C00000809F6932464B4651462046B8476B1EC3
:1057D00003EB0A012368CDF828809D6932464B46C9
:1057E00009B22046AC4602B0BDE8F047604737B585
:1057F000013B13440468BDF8185001951BB2009397
:1058000064690B46A04703B030BD37B5BDF81850EA
:105810000468CDE90025013B0B4464691BB2A04735
:1058200003B030BD2DE9F347BDF92890BDF82C80B9
:10583000054692460C46CE18B4420BDA2B68CDF8DA
:1058400000809F6921464B46524628460134B8479E
:1058500024B2F1E702B0BDE8F08713B50268019108
:10586000B0F90E100091546AB0F90C3000221146C4
:10587000A04702B010BD704730B54281C2814FF0E1
:10588000FF320024054D4261012244600560018120
:10589000818104610283827630BD00BFD8870B000E
:1058A0002DE9F04F2DED028B8DB007460491BDF828
:1058B00060100591BDF864100691B0F90C100498C1
:1058C0009DF86850814252DDB7F90E1091424EDDCD
:1058D000062111FB0504002C49DD02EBC504002C58
:1058E00045DD03EB83030B9393B2079308339BB21D
:1058F000089100240993052C1CBF2C4B0B9A079E82
:1059000016BF1B1900239B5C0393049AABB20A9346
:1059100004FB05F313FA82F31BB204EB020A08EE50
:10592000103AB0460FFA85F90FFA8AFA039BDB07A3
:105930002FD5012D3B681FD1D3F810B0059B32B293
:1059400051463846D847039B5B0803930A9B0136B0
:105950009844099BB6B2B3421FFA88F8E6D1089B77
:10596000013B013413F0FF0364B20893C3D10DB0BF
:10597000BDEC028BBDE8F08F059ACDE9009218EEE0
:10598000101AD3F824B00FFA88F24B463846D8479D
:10599000D9E7DDE905239342D5D0012D3B6803D13A
:1059A000D3F810B0069BCAE7069AE6E7D4820B004C
:1059B00030B50A2985B0044607D1027E638A03EB1D
:1059C000C20363820023238221E00D291FD0037EBE
:1059D0000293C38A0193838A0093B0F912200B4685
:1059E000B0F91010FFF75CFF207E238A00EB400126
:1059F00003EB4103A17E1BB20246238239B1B4F905
:105A00000C106FF0050505FB00118B42D6DC012060
:105A100005B030BD018242827047012938BF0121A3
:105A200001767047C18281827047407E7047B0F92D
:105A30000C007047B0F90E007047000008B5024B2B
:105A40001B689B68019308BD6802030008B5024B00
:105A50001B68DB68019308BD6802030008B5024BB0
:105A60001B681B68019308BD2C02030008B5024B9C
:105A70001B689B68019308BD2C02030008B5024B0C
:105A80001B68DB68019308BD2C02030008B5024BBC
:105A90001B681B69019308BD2C02030008B5024B6B
:105AA0001B685B69019308BD2C02030008B5024B1B
:105AB0001B689B69019308BD2C02030008B5024BCB
:105AC0001B68DB69019308BD2C02030008B5024B7B
:105AD0001B685B68019308BD1802030008B5024B00
:105AE0001B68DB68019308BD1802030008B5024B70
:105AF0001B685B69019308BD1802030008B5024BDF
:105B00001B685B6C019308BD4802030008B5024B9B
:105B10001B685B69019308BD6402030008B5024B72
:105B20001B68DB68019308BD3C02030008B5024B0B
:105B30001B681B69019308BD3C02030008B5024BBA
:105B40001B685B69019308BD3C02030008B5024B6A
:105B50001B689B69019308BD3C02030008B5024B1A
:105B60001B68DB69019308BD3C02030008B5024BCA
:105B70001B681B6A019308BD3C02030008B5024B79
:105B80001B689B6A019308BD3C02030008B5024BE9
:105B90001B681B6C019308BD3C02030008B5024B57
:105BA0001B68DB68019308BD2802030008B5024B9F
:105BB0001B689B69019308BD2802030008B5024BCE
:105BC0001B68DB69019308BD2802030008B5024B7E
:105BD0001B681B6A019308BD2802030008B5024B2D
:105BE0001B685B6A019308BD2802030008B5024BDD
:105BF0001B689B6A019308BD2802030008B5024B8D
:105C00001B68DB6A019308BD2802030008B5024B3C
:105C10001B681B6B019308BD2802030008B5024BEB
:105C20001B685B6B019308BD2802030008B5024B9B
:105C30001B681B6C019308BD2802030008B5024BCA
:105C40001B681B6D019308BD2802030008B5024BB9
:105C50001B681B68019308BD3002030008B5024BA6
:105C60001B689B68019308BD3002030008B5024B16
:105C70001B68DB68019308BD3002030008B5024BC6
:105C80001B681B69019308BD3002030008B5024B75
:105C90001B685B69019308BD3002030008B5024B25
:105CA0001B68DB69019308BD3002030008B5024B95
:105CB0001B681B6A019308BD3002030008B5024B44
:105CC0001B685B6A019308BD3002030008B5024BF4
:105CD0001B68DB6B019308BD3002030008B5024B63
:105CE0001B681B6C019308BD3002030008B5024B12
:105CF0001B685B6C019308BD3002030008B5024BC2
:105D00001B681B68019308BD4C02030008B5024BD9
:105D10001B685B68019308BD4C02030008B5024B89
:105D20001B681B69019308BD4C02030008B5024BB8
:105D30001B685B69019308BD4C02030008B5024B68
:105D40001B689B69019308BD4C02030008B5024B18
:105D50001B68DB69019308BD4C02030008B5024BC8
:105D60001B681B6A019308BD4C02030008B5024B77
:105D70001B685B6B019308BD6002030008B5024B12
:105D80001B685B68019308BD2002030008B5024B45
:105D90001B685B69019308BD2002030008B5024B34
:105DA0001B68DB6C019308BD2002030008B5024BA1
:105DB0001B685B6D019308BD2002030008B5034B0F
:105DC0001B68D3F88830019308BD0000200203004F
:105DD00008B5034B1B68D3F89430019308BD00004D
:105DE0002002030008B5024B1B685B68019308BDE5
:105DF0004002030008B5024B1B689B68019308BD75
:105E00004002030008B5024B1B68DB68019308BD24
:105E10004002030008B5024B1B681B69019308BDD3
:105E20004002030008B5024B1B685B69019308BD83
:105E30004002030008B5024B1B689B69019308BD33
:105E40004002030008B5024B1B68DB69019308BDE3
:105E50004002030008B5024B1B681B6A019308BD92
:105E60004002030008B5024B1B681B6B019308BD81
:105E70004002030008B5024B1B685B6B019308BD31
:105E80004002030008B5024B1B681B6C019308BD60
:105E90004002030008B5024B1B685B6C019308BD10
:105EA0004002030008B5024B1B681B68019308BD44
:105EB0004402030008B5024B1B685B68019308BDF0
:105EC0004402030008B5024B1B68DB68019308BD60
:105ED0004402030008B5024B1B685B69019308BDCF
:105EE0004402030008B5024B1B681B6A019308BDFE
:105EF0004402030008B5024B1B68DB6B019308BD2D
:105F00004402030008B5024B1B681B68019308BDDF
:105F10001C02030008B5024B1B685B68019308BDB7
:105F20001C02030008B5024B1B689B68019308BD67
:105F30001C02030008B5024B1B685B6A019308BD95
:105F40001C02030008B5024B1B68DB6A019308BD05
:105F50001C02030008B5024B1B681B6B019308BDB4
:105F60001C02030008B5024B1B681B6C019308BDA3
:105F70001C02030008B5024B1B685B6C019308BD53
:105F80001C020300002240681146FFF763BF002295
:105F900040681146FFF76EBF40680022FFF762BFFE
:105FA0004068002281F00101FFF74CBF00234068E8
:105FB0001A461946FFF73EBF002340681A461946A5
:105FC000FFF730BF002240681146FFF723BF0022D1
:105FD00040681146FFF70EBF406800220221FFF71C
:105FE00011BF002340681A46FFF7FCBE024B032294
:105FF0005A60024A1A60704738E6032010880B0086
:106000000021FFF773BE0021FFF768BE10B50446FC
:1060100008462170FFF742FE00236360204610BD52
:1060200013B504460078FFF7EEFF58B920780190C9
:106030004FF6FF71FFF70AFE019802B0BDE810406D
:10604000FFF7DEBF02B010BD13B504460078019122
:10605000FFF7D9FF019948B920780190FFF7FEFDBD
:10606000019802B0BDE81040FFF7CABF02B010BDF2
:1060700013B5044600780191FFF7C5FF019948B9AF
:1060800020780190FFF7F2FD019802B0BDE81040C2
:10609000FFF7B6BF02B010BD0078FFF7B1BF000038
:1060A000400830B51860002418688842E5B206D967
:1060B0000134082C02D040081860F5E70725024B90
:1060C0005B5D137030BD00BF44880B002DE9F043C9
:1060D00006468FB000780C46FFF795FF00281BDBC3
:1060E00035781422002109A801F056FF0B23002265
:1060F00009A92846ADF82430FFF7E0FD9DF82D30C2
:1061000013B19DF82C5055B10027B946B84601256A
:1061100023795DB1C3B100200FB0BDE8F083DDF895
:1061200030809DF834909DF83570F1E7002B35D123
:10613000A368434508D18DF820908DF82170BDF8F3
:106140002020A3899A42E6D00023A1688DF80F3061
:106150000A9804AB0DF10F02FFF7A2FF217985B970
:1061600089B9A36843450ED38DF820908DF821702E
:10617000BDF82020A3899A4205D1049B434502D152
:10618000C9E70029F9D100230193637B00939DF8AF
:106190000F20237B3078FFF799FDBCE7CDE9005550
:1061A0002B462A460121F5E72DE9F04188B000236E
:1061B0000446007802930E461746FFF724FF054673
:1061C00000BB94F800800146142203A801F0E4FE0D
:1061D0000B232A4603A94046ADF80C30FFF76EFDAD
:1061E00004988DF8075002AB0DF1070207FB06F18A
:1061F000FFF756FF20789DF80710FFF73FFD207846
:10620000FFF7FEFE029808B0BDE8F08138B50446FD
:1062100000780D46FFF7F7FE0346D0B9616899B1E3
:106220000C4A12F8010B854202D00133082BF8D139
:106230000133DBB20122D9402046FFF7B5FF2078B9
:10624000BDE83840FFF7DCBE20782946FFF716FD91
:10625000F5E738BD44880B0008B50078FFF716FD58
:10626000C0B208BD054B02221A60054B054A9A6070
:106270000020C3E90000FFF781BD00BF4CE603200A
:1062800040E603200000FFFF10B504460068FFF75A
:1062900041FE204610BD10B50446006808B1FFF766
:1062A00039FE0023C4E90133236010BD38B504462C
:1062B0000D4600680131FFF735FE10B1C4E9000555
:1062C000012038BD10B50368044623B143688B42F2
:1062D00001D3012010BD2046FFF7E8FF0028F9D0C8
:1062E000A368002BF5D122681370F2E737B50D468D
:1062F000114601920446FFF7E5FF019A28B92046AE
:10630000FFF7C9FF204603B030BDA26029462068D0
:1063100001F034FE2268A3680021D154F2E7002383
:1063200013B5C0E9003304468360037341B10846E6
:10633000019101F08CFE019902462046FFF7D6FF3D
:10634000204602B010BD38B5054600680C4668B15D
:106350006A688B689A4207D3096801F053FEA36804
:10636000AB600023A36038BDFFF7D4FD23682B602A
:1063700063686B60A368AB600023C4E90033F1E796
:10638000884210B5044605D00B682BB18A681946BF
:10639000FFF7ACFF204610BDFFF77DFFFAE710B511
:1063A00000230446C0E9003383600373FFF7E8FF6E
:1063B000204610BD884210B5044601D0FFF7C3FF48
:1063C000204610BD0EB470B587B00BAD044655F82D
:1063D000042B01922B46052104A80395FFF7AAFD83
:1063E0000B4906462046FFF79AFF31462046FFF745
:1063F00069FF206830B1019A03952B46711CFFF7A5
:1064000099FDA060204607B0BDE8704003B070471A
:1064100043820B0010B58368044613B10322014682
:106420009847204610BD10B54368013B04464360C1
:1064300063B903689B689847A368013BA3602BB9C5
:1064400023682046DB68BDE81040184710BD10B532
:106450000446006808B1FFF7E6FF204610BD13B5FB
:106460000B460246D0E900016C4684E8030093E83D
:10647000030082E8030094E8030083E8030002B00D
:1064800010BD0000024800230360FFF737BB00BFC8
:1064900050E60320F8B506460D468F180024BD428D
:1064A0000CD0336815F8011B9B6830469847031ED3
:1064B00001DB1C44F3E7002C08BF1C462046F8BD56
:1064C00013B50446084659B1019101F0C0FD236897
:1064D0000199DB680246204602B0BDE8104018472B
:1064E00002B010BD08B5FFF7EBFF08BD03689B685D
:1064F000184738B50D210546FFF7F8FF0A21044675
:106500002846FFF7F3FF204438BD30B58BB0002399
:10651000012A8DF8243098BF0A2209AC0D46B1FB40
:10652000F2F101FB125303F0FF03092B94BF303348
:106530003733DBB2AA4204F8013DEFD92146FFF719
:10654000BFFF0BB030BD2DE9F04186B000AF05466E
:106550000E46381D142114463B60FFF7EBFC132850
:106560000ED8391D2846FFF7ABFF04461EB128465A
:10657000FFF7BFFF044420461837BD46BDE8F08151
:1065800000F1080323F00703E846ADEB030D2246B4
:10659000411C3B686846FFF7CDFC69462846FFF77B
:1065A0008FFF0446C546E1E7014B024A1A60704777
:1065B00054E603204C880B00024B1A68024B1A6009
:1065C000704700BFE0E4032058E603202DE9F04FB8
:1065D00055EC114B57EC126B85B011EE102A12EEF0
:1065E000100A2B4639468DED020B8DED004B5BEC0E
:1065F00013AB01F013FC9DED020B38BB51EC100BFB
:1066000022462B4600F0EAFF5246804689465B460A
:10661000DDE9000100F0E2FF02460B464046494634
:1066200001F094F92246804689462B463046394689
:1066300000F0D4FF02460B464046494601F0B0FA4E
:1066400052465B4600F0CCFF41EC100B05B0BDE8B4
:10665000F08F0021FFF79ABB014B00229A60704730
:106660005CE60320014B1860704700BFE4E40320A0
:1066700008B50B4B43B100F025FC03681B69984734
:10668000002801DDAFF30080064B43B100F038FF76
:1066900003681B699847002801DDAFF3008008BD3F
:1066A000000000000000000008B5FFF7E1FFFFF761
:1066B0001DFA014B186008BD44E703200548064A4F
:1066C000064908B5121A01F059FC054B054A1A6033
:1066D00008BD00BF00F4032004F40320848A0B00EB
:1066E00000F403201E1C279A07B5002300931A46C6
:1066F0006FF07701FFF76CFB03B05DF804FB00005F
:1067000007B543880A2B08D0502B0BD1094B1B68C7
:106710004BB103B05DF804EB1847FFF7E5FF03B09A
:106720005DF804FB002300931A466FF07701FFF732
:106730004FFBF4E770E6032010B512480021FFF785
:1067400019FC114B1A68114B9A42114B0CBF0122D4
:1067500000221A7001D0FFF7B1FFFFF7B7F9044626
:1067600001F022FC0B4B13B12046AFF30080002157
:106770000848FFF7BFFBBDE8104007480021FFF7BE
:106780001DBB00BF65660B0000F403201E1C279A8A
:106790006CE603200000000001670B00704700203A
:1067A000704710B510210446FDF779FC204610BD56
:1067B00008B5FFF7F6FF08BD30B500224FF69C7410
:1067C000026084808D888C800C68858004600A60FB
:1067D00030BD10B504460068FFF79CFB204610BD95
:1067E00038B5C468F4B12378022B03D104F10C004E
:1067F000FFF7EFFF656835B12846FFF70BFE102164
:106800002846FDF74CFCA56835B12846FFF702FE87
:1068100010212846FDF743FC20461421BDE83840EE
:10682000FDF73DBC38BD10B588B004466846FFF79B
:1068300076FD694604A8FFF7B2FD04A8A047044608
:1068400004A8FFF721FD6846FFF71EFD204608B0AB
:1068500010BD1FB50023CDE90201019210241A4694
:1068600069461846ADF80230ADF80040FFF722FB4C
:1068700004B010BD0B6803604B68436013B15A68E5
:1068800001325A60704737B5044668460D46FFF737
:10689000F1FF009B019A23606260002301A801932D
:1068A0000093FFF7D4FD35B1281DFFF7D0FD082177
:1068B0002846FDF7F4FB204603B030BD826810B5D2
:1068C0000AB900F083FEBDE81040C368184708B558
:1068D000006800F11001FFF7F1FF08BD826810B5F4
:1068E0000AB900F073FEBDE81040C368184708B548
:1068F000006800F11001FFF7F1FF08BD38B5002373
:106900000446036010200D46FDF7C5FB28B10123A6
:10691000C0E90133024B0360C5602060204638BDEA
:1069200074880B0038B5002383608B6804460D46DD
:106930002BB102229847EB68E360AB68A360204666
:1069400038BD0000F0B589B004686846FFF734FF31
:106950004FF00203D4E84F2F002A03D1C4E8413F8F
:106960000029F7D125D104F10C0569462846FFF727
:1069700023FFBFF35B8F01236370002004F1080342
:10698000BFF35B8F53E8006F43E80002002AF9D1A0
:10699000BFF35B8F6EB1FFF701FA78B1294630463D
:1069A000FFF78CFF3046FFF735FD10213046FDF72D
:1069B00076FB6846FFF70DFF09B0F0BD314602A82F
:1069C000FFF7B0FFE068B4F9105008B101F022FB06
:1069D00006901020ADF81C50FDF75DFB0546E8B1B0
:1069E000002787601820FDF756FB044688B1014652
:1069F000876002A8FFF733FD049BA268A360059B94
:106A0000049206A9E268E36004F110000592FFF722
:106A1000D3FE084BEB60084B2C60AB6006A8FFF779
:106A2000D8FE02A8FFF7F6FC002229460348FFF72C
:106A3000BDF9B7E7CF680B00516B0B0075700B0009
:106A40002DE9F04F8BB005469DF850A00F469046BB
:106A50009946FFF73FFA07AE834638BB4FF62E73D1
:106A6000059005A93046ADF81830FFF7A5FE1420B3
:106A7000FDF711FB044648B1022303700123C0E96E
:106A800001BB437031460C30FFF796FE2846214685
:106A900040F8044BFFF732FF3046FFF79AFE05A897
:106AA000FFF797FE28460BB0BDE8F08F0C230024BB
:106AB0001420CDE908440793FDF7EDFA014618B11B
:106AC000C0E901440470447004A80391FFF716FF65
:106AD0001E4B08930820FDF7DEFA044610B103A907
:106AE000FFF7C8FE00965FFA8AF34A4641463846E9
:106AF0000994FFF7F7F9B8B9039B5B7803F0FF023D
:106B000093B94FF69C7305A903A80592ADF8183008
:106B1000FFF718FF05A8FFF75CFE05A80999FFF726
:106B2000B2FE06A8FFF793FC03A905A8FFF7A2FE93
:106B3000059B069A2B606A60002306A806930593BE
:106B4000FFF785FC04A8FFF782FCABE7CD6B0B00D9
:106B5000012AF8B5054603D10B6803600020F8BD93
:106B6000022A10D0032AF9D10468002CF6D004F1CF
:106B70001000FFF72EFE2046FFF74CFC18212046A0
:106B8000FDF78DFAEAE718200E68FDF784FA04464F
:106B900050B13146FFF7C6FE3069B6F9147008B13E
:106BA00001F038FA2061A7822C60D7E738B50023BE
:106BB00083608B6804460D462BB102229847EB6830
:106BC000E360AB68A360204638BD0000F0B589B033
:106BD00004460D4601A81146FFF755FEA4B124B2A4
:106BE0001DB1284601F016FA054601A803A9039530
:106BF000ADF81040FFF7A6FE03A8FFF7EAFD02A8D4
:106C0000FFF725FC09B0F0BD019D0123D5E84F2F0A
:106C1000002A03D1C5E8413F0029F7D1EFD12B73FA
:106C2000BFF35B8F6B702B1DBFF35B8F53E8006F5F
:106C300043E80042002AF9D1BFF35B8F002EDED07B
:106C40002046FFF7ABF8074660B105F10C0130466E
:106C5000FFF744FE3046FFF7DDFB10213046FDF71D
:106C60001EFACCE7314603A8FFF7A0FF2B7B8DF877
:106C70001C301020FDF70FFA0546D0B187601420B4
:106C8000FDF709FA044678B18760014603A8FFF7CB
:106C9000E6FB059BA268A360069B0592E268E360A1
:106CA0009DF81C3006922374064BEB60064B2C605B
:106CB000AB6003A8FFF7AEFB002229460348FFF7AD
:106CC00075F8C7E7EF680B00D16C0B0075700B000F
:106CD000012A70B5044603D10B680360002070BD23
:106CE000022A0CD0032AF9D10468002CF6D02046E1
:106CF000FFF790FB14212046FDF7D1F9EEE71420B1
:106D00000E68FDF7C8F9054620B13146FFF74EFF82
:106D1000337C2B742560E1E7704710B518210446D9
:106D2000FDF7BDF9204610BDF0B5037D062B8DB0F3
:106D30000E4600F104074FF0000412D000F10805E0
:106D400015F8011D0A223046FFF7DFFBAF4204446D
:106D500019D0002CF4D02E213046FFF7C7FB044495
:106D6000EEE72F236A4639460A208DF80040FEF7E9
:106D7000CDFE684601F06BF933680246DB68694670
:106D800030469847044620460DB0F0BD10B5054B7F
:106D90000446112240F8043B002101F0FDF8204692
:106DA00010BD00BF90880B000346074A10B543F89A
:106DB000042B01F1100251F8044B43F8044B9142AB
:106DC000F9D10A781A7010BD90880B0010B59DF8A3
:106DD000084044EA032343EA024242EA01610423F1
:106DE0004160037510BD000007B5064B0360CB780A
:106DF00000938B784A780978FFF7E8FF03B05DF8D5
:106E000004FB00BF90880B004174704770477047C7
:106E100008B50021007CFEF791FF40EAE07008BD54
:106E200008B50121007CFEF789FF40EAE07008BD4B
:106E300008B5007CFEF77AFF20EAE07008BD08B5CF
:106E4000007CFEF76BFF20EAE07008BD13B5044636
:106E5000007C0191FEF76AFF0028019901DC607C4B
:106E600020B1207CFEF772FF20EAE07002B010BD76
:106E7000007CFEF773BF10B514210446FDF70FF92F
:106E8000204610BD10B54FF47A7304460846002121
:106E9000C4E90113044B2360012320746374114679
:106EA000FEF72CFF204610BDA4880B00007C0022BA
:106EB000FEF72CBF10B514220446002101F06CF837
:106EC000204610BD10B50F4C88B003A8FFF7F2FFA5
:106ED0002178BFF35B8F11F001010FD120460191A2
:106EE000FDF7ECF8019948B103AA0748FFF7CAFF7C
:106EF0002046FDF7E8F8054801F03AF8024808B0E6
:106F000010BD00BF74E6032078E603200D6E0B0071
:106F1000826810B50AB900F059FBBDE81040C3689B
:106F200018470000F8B5104F57F8204006460D46A8
:106F300034B12046FFF76EFA10212046FDF7AFF876
:106F40001020FDF7A8F8044650B100238360AB6819
:106F500033B1022229469847EB68E360AB68A3602F
:106F600047F826402046F8BD8CE60320F0B587B0F0
:106F70000546039117461E46FEF7A0FD03992846D5
:106F8000FFF7D0FF0446E8B100218E424FF0040322
:106F9000ADF815108DF817108DF81430A2BF05A9A3
:106FA0009DF830308DF81630009102460749A8BF91
:106FB0008DF815603B462846FEF778FD10B100209D
:106FC00007B0F0BD201E18BF0120F9E7116F0B00BC
:106FD00070474174704708B5007CFEF7CFFD20EA8A
:106FE000E07008BD08B5007CFEF7A0FD20EAE07067
:106FF00008BD08B5007CFEF7A9FD40EAE07008BDB9
:1070000008B5007CFEF79AFD40EAE07008BD007C00
:10701000FEF7A4BD37B5457C04462DB1207C03B0F6
:10702000BDE83040FEF77ABD007C0191FEF7A6FD79
:1070300000280199F2DC284603B030BD10B51421B8
:107040000446FDF72CF8204610BD000010B54FF4A3
:107050007A730446084611460022C4E90123044B12
:107060002360012320746374FEF790FD204610BD59
:10707000D4880B0010B5836804460BB900F0A6FA5B
:10708000C3689847A3681BB103222146204698474E
:1070900020461021BDE81040FDF701B87047F8B553
:1070A000064615460C468F18BC4206D0336814F8C5
:1070B000011B9B6830469847F6E72846F8BD007CE0
:1070C0000022FEF783BD007C0021FEF787BD007C17
:1070D0000021FEF78BBD007C0021FEF78FBD007CF8
:1070E0000021FEF793BD10B514210446FCF7D7FF2D
:1070F000204610BD38B5044615464FF47A73002279
:10710000C4E90123094B2174084623602946FEF790
:107110008DFDBF3008D16B69DB0705D56868FEF7C8
:10712000F9FEE868FEF7F6FE204638BD04890B003C
:107130000023007C1A461946FEF730BD7FB50022B9
:107140001423CDE90122ADF804300B788DF8083016
:107150004B680393CB680493007C0B7A059301A9D9
:10716000FEF76CFD07B05DF804FB1FB5003B8DF822
:1071700000104FF06401039118BF0123694601928A
:107180008DF80830FFF7DAFF05B05DF804FB012346
:10719000FFF7EBBF007C0022FEF708BDC9B2FFF786
:1071A000F9BF007C0022FEF709BD0121FFF7F9BFFE
:1071B000002240681146FEF72DBE002240681146AD
:1071C000FEF748BE002240681146FEF753BE4068F5
:1071D0000022FEF747BE4068002281F00101FEF761
:1071E00031BE002340681A461946FEF723BE00232D
:1071F00040681A461946FEF715BE0022406811463F
:10720000FEF7F8BD406800220221FEF7FBBD002317
:1072100040681A46FEF7E6BD024B04225A60024A55
:107220001A6070471CE703202C890B00002340687C
:107230001A46FEF7D7BD406800220221FEF7E2BDE4
:10724000002240681146FEF7D5BD00224068114675
:10725000FEF7E0BD002340681A461946FEF7E2BD7E
:10726000002340681A461946FEF7E4BD4068002135
:10727000FEF708BE40680021FEF70CBE4068002201
:1072800081F00101FEF7DEBD40680022FEF7EABD95
:10729000002240681146FEF7EDBD0022406811460D
:1072A000FEF7D8BD2DE9F04395B014460D460746CC
:1072B000FFF76CFD00211C220DA8009100F06CFE70
:1072C00040230C9320466B460CAA0021FEF7BEFB20
:1072D000044600284BD1024601216868FEF79AFD5A
:1072E0000221804622466868FEF794FD009E814692
:1072F0002146002E3BD0002939D17368022B03D0E0
:107300000A2B11D0F669F4E7B8F1000FFAD07169D1
:1073100006A8043107ADFFF767FD0FCD3C1D0FC474
:107320002B6823704146EDE7B9F1000FEAD074698C
:10733000102201A800F030FE06238DF8143001ADB4
:1073400004F108031834186859682A4603C2083340
:10735000A3421546F7D101A906A807ADFFF724FD02
:107360000FCD3C1D0FC42B6823704946CAE7009817
:10737000FEF764FB384615B0BDE8F083024B034AC4
:107380001A6000225A60704724E7032068890B00C6
:10739000232813B502D9002002B010BDA0F10B03C1
:1073A000022B1AD8174C2178BFF35B8F11F0010123
:1073B0000BD120460191FCF781FE019928B11248BA
:1073C000FEF724FE2046FCF77EFE0F4B1878FEF7F2
:1073D0006DFC0028DFD10120DEE7012809D800F08C
:1073E000CFF80021007CFEF719FC80F00100C0B24C
:1073F000D2E709380128EED800F082F8007CFEF7C9
:10740000B5FBF2E72CE6032030E60320232838B54D
:1074100004460D460AD8FF2908D0FFF7B9FF28B166
:1074200029462046BDE83840FEF720BB38BD38B5B8
:1074300004460D46FEF722FBFF2810D0062804D88C
:107440004D2323FA00F0C30709D42046FFF7A0FF1D
:1074500028B129462046BDE83840FEF717BB38BDA5
:1074600010B50446FEF70AFB031FDBB2012B08D957
:107470002046FFF78DFF20B12046BDE81040FEF703
:107480000DBB002010BD2DE9F04190461F4607249A
:1074900006460D46C4F10701B8F1000F12D147FAB4
:1074A00001F101F001013046FFF7C1FF012128463B
:1074B000FFF7BDFF00212846FFF7B9FF013CE9D2E5
:1074C000BDE8F08147FA04F1EBE7704738B50446B0
:1074D00014252A46002100F05FFD2580402507493C
:1074E00025812846258200F06FF80449606028460F
:1074F00000F06AF8E060204638BD00BF9C890B00B0
:1075000030B50E4D2978BFF35B8F11F0010487B0C1
:1075100011D12846FCF7D2FD68B101A8FFF7D6FFCC
:1075200001AA21460648FFF791FD2846FCF7CBFD4E
:10753000044800F01DFD024807B030BD2CE70320D1
:1075400030E70320CB740B007047000038B50A4BBE
:1075500003600123044643610849202000F034F809
:10756000202560600549A560284600F02DF8C4E993
:107570000305204638BD00BF180001009C890B00A0
:1075800030B50E4D2978BFF35B8F11F0010487B041
:1075900011D12846FCF792FD68B16846FFF7D6FF87
:1075A0006A4621460648FFF7A5FD2846FCF78BFDF5
:1075B000044800F0DDFC024807B030BD48E7032076
:1075C0004CE7032049750B00FCF767BD08B5FEF7D3
:1075D000B9FC000081F0004102E000BF83F00043ED
:1075E00030B54FEA41044FEA430594EA050F08BF5E
:1075F00090EA020F1FBF54EA000C55EA020C7FEA22
:10760000645C7FEA655C00F0E2804FEA5454D4EB9E
:107610005555B8BF6D420CDD2C4480EA020281EA68
:10762000030382EA000083EA010180EA020281EAA0
:107630000303362D88BF30BD11F0004F4FEA0131F2
:107640004FF4801C4CEA113102D0404261EB410101
:1076500013F0004F4FEA03334CEA133302D0524287
:1076600063EB430394EA050F00F0A780A4F1010443
:10767000D5F1200E0DDB02FA0EFC22FA05F280187D
:1076800041F1000103FA0EF2801843FA05F3594163
:107690000EE0A5F120050EF1200E012A03FA0EFCE2
:1076A00028BF4CF0020C43FA05F3C01851EBE3710C
:1076B00001F0004507D54FF0000EDCF1000C7EEB29
:1076C00000006EEB0101B1F5801F1BD3B1F5001F67
:1076D0000CD349085FEA30004FEA3C0C04F1010486
:1076E0004FEA445212F5800F80F09A80BCF1004FAF
:1076F00008BF5FEA500C50F1000041EB045141EA31
:10770000050130BD5FEA4C0C404141EB0101013CF9
:1077100028BFB1F5801FE9D291F0000F04BF0146E8
:107720000020B1FA81F308BF2033A3F10B03B3F1BA
:1077300020020CDA0C3208DD02F1140CC2F10C024A
:1077400001FA0CF021FA02F10CE002F11402D8BFA8
:10775000C2F1200C01FA02F120FA0CFCDCBF41EA74
:107760000C019040E41AA2BF01EB0451294330BD43
:107770006FEA04041F3C1CDA0C340EDC04F1140420
:10778000C4F1200220FA04F001FA02F340EA0300F7
:1077900021FA04F345EA030130BDC4F10C04C4F13D
:1077A000200220FA02F001FA04F340EA030029461D
:1077B00030BD21FA04F0294630BD94F0000F83F467
:1077C000801306BF81F480110134013D4EE77FEA4A
:1077D000645C18BF7FEA655C29D094EA050F08BF96
:1077E00090EA020F05D054EA000C04BF1946104677
:1077F00030BD91EA030F1EBF0021002030BD5FEABB
:10780000545C05D14000494128BF41F0004130BDE2
:1078100014F580043CBF01F5801130BD01F0004536
:1078200045F0FE4141F470014FF0000030BD7FEAA9
:10783000645C1ABF194610467FEA655C1CBF0B46A4
:10784000024650EA013406BF52EA033591EA030FBB
:1078500041F4002130BD00BF90F0000F04BF0021B3
:10786000704730B54FF4806404F132044FF00005E6
:107870004FF0000150E700BF90F0000F04BF00215F
:10788000704730B54FF4806404F1320410F00045C5
:1078900048BF40424FF000013EE700BF42004FEAC0
:1078A000E2014FEA31014FEA02701FBF12F07F433D
:1078B00093F07F4F81F06051704732F07F4208BFF4
:1078C000704793F07F4F04BF41F40021704730B5FB
:1078D0004FF4607401F0004521F000411CE700BF47
:1078E00050EA010208BF704730B54FF000050AE0CA
:1078F00050EA010208BF704730B511F0004502D5CB
:10790000404261EB41014FF4806404F132045FEACC
:10791000915C3FF4D8AE4FF003025FEADC0C18BF75
:1079200003325FEADC0C18BF033202EBDC02C2F167
:10793000200300FA03FC20FA02F001FA03FE40EAF9
:107940000E0021FA02F11444BDE600BF70B54FF0FD
:10795000FF0C4CF4E06C1CEA11541DBF1CEA1355DB
:1079600094EA0C0F95EA0C0F00F0DEF82C4481EA43
:10797000030621EA4C5123EA4C5350EA013518BF63
:1079800052EA033541F4801143F4801338D0A0FB50
:1079900002CE4FF00005E1FB02E506F00042E0FBFD
:1079A00003E54FF00006E1FB03569CF0000F18BF03
:1079B0004EF0010EA4F1FF04B6F5007F64F54074AB
:1079C00004D25FEA4E0E6D4146EB060642EAC6213E
:1079D00041EA55514FEAC52040EA5E504FEACE2EAB
:1079E000B4F1FD0C88BFBCF5E06F1ED8BEF1004FAE
:1079F00008BF5FEA500E50F1000041EB045170BD2A
:107A000006F0004646EA010140EA020081EA03016D
:107A1000B4EB5C04C2BFD4EB0C0541EA045170BD69
:107A200041F480114FF0000E013C00F3AB8014F1E3
:107A3000360FDEBF002001F0004170BDC4F100042C
:107A4000203C35DA0C341BDC04F11404C4F12005AD
:107A500000FA05F320FA04F001FA05F240EA020008
:107A600001F0004221F0004110EBD37021FA04F63E
:107A700042EB06015EEA430E08BF20EAD37070BDF8
:107A8000C4F10C04C4F1200500FA04F320FA05F057
:107A900001FA04F240EA020001F0004110EBD37059
:107AA00041F100015EEA430E08BF20EAD37070BDC9
:107AB000C4F1200500FA05F24EEA020E20FA04F3A2
:107AC00001FA05F243EA020321FA04F001F0004151
:107AD00021FA04F220EA020000EBD3705EEA430EC2
:107AE00008BF20EAD37070BD94F0000F0FD101F0F1
:107AF0000046400041EB010111F4801F08BF013C2A
:107B0000F7D041EA060195F0000F18BF704703F067
:107B10000046520043EB030313F4801F08BF013DEE
:107B2000F7D043EA0603704794EA0C0F0CEA1355AA
:107B300018BF95EA0C0F0CD050EA410618BF52EA64
:107B40004306D1D181EA030101F000414FF000006A
:107B500070BD50EA410606BF1046194652EA430678
:107B600019D094EA0C0F02D150EA013613D195EAEC
:107B70000C0F05D152EA03361CBF104619460AD134
:107B800081EA030101F0004141F0FE4141F470013E
:107B90004FF0000070BD41F0FE4141F4780170BD2E
:107BA00070B54FF0FF0C4CF4E06C1CEA11541DBF93
:107BB0001CEA135594EA0C0F95EA0C0F00F0A7F895
:107BC000A4EB050481EA030E52EA03354FEA0131C2
:107BD00000F088804FEA03334FF0805545EA1313D5
:107BE00043EA12634FEA022245EA111545EA10659D
:107BF0004FEA00260EF000419D4208BF964244F134
:107C0000FD0404F5407402D25B084FEA3202B61A52
:107C100065EB03055B084FEA32024FF480104FF426
:107C2000002CB6EB020E75EB030E22BFB61A75469A
:107C300040EA0C005B084FEA3202B6EB020E75EB2D
:107C4000030E22BFB61A754640EA5C005B084FEA95
:107C50003202B6EB020E75EB030E22BFB61A754662
:107C600040EA9C005B084FEA3202B6EB020E75EB6D
:107C7000030E22BFB61A754640EADC0055EA060E2E
:107C800018D04FEA051545EA16754FEA06164FEA71
:107C9000C30343EA52734FEAC2025FEA1C1CC0D11D
:107CA00011F4801F0BD141EA00014FF000004FF0AA
:107CB000004CB6E711F4801F04BF01430020B4F16B
:107CC000FD0C88BFBCF5E06F3FF6AFAEB5EB030C23
:107CD00004BFB6EB020C5FEA500C50F1000041EB20
:107CE000045170BD0EF0004E4EEA113114EB5C04ED
:107CF000C2BFD4EB0C0541EA045170BD41F48011C0
:107D00004FF0000E013C90E645EA060E8DE60CEAC7
:107D1000135594EA0C0F08BF95EA0C0F3FF43BAFE4
:107D200094EA0C0F0AD150EA01347FF434AF95EA9B
:107D30000C0F7FF425AF104619462CE795EA0C0F7F
:107D400006D152EA03353FF4FDAE1046194622E74C
:107D500050EA410618BF52EA43067FF4C5AE50EA26
:107D600041047FF40DAF52EA43057FF4EBAE12E716
:107D70004FF0FF3C06E000BF4FF0010C02E000BFF7
:107D80004FF0010C4DF804CD4FEA410C7FEA6C5CDA
:107D90004FEA430C18BF7FEA6C5C1BD001B050EA7D
:107DA000410C0CBF52EA430C91EA030F02BF90EA68
:107DB000020F0020704710F1000F91EA030F58BF27
:107DC000994208BF90422CBFD8176FEAE37040F089
:107DD000010070474FEA410C7FEA6C5C02D150EA27
:107DE000013C07D14FEA430C7FEA6C5CD6D152EAE2
:107DF000033CD3D05DF8040B704700BF84461046A7
:107E000062468C461946634600E000BF01B5FFF7A5
:107E1000B7FF002848BF10F1000F01BD4DF808ED75
:107E2000FFF7F4FF0CBF012000205DF808FB00BF46
:107E30004DF808EDFFF7EAFF34BF012000205DF8A0
:107E400008FB00BF4DF808EDFFF7E0FF94BF0120ED
:107E500000205DF808FB00BF4DF808EDFFF7CEFFEE
:107E600094BF012000205DF808FB00BF4DF808ED2D
:107E7000FFF7C4FF34BF012000205DF808FB00BFFE
:107E80004FEA410212F5001215D211D56FF4787342
:107E9000B3EB625212D94FEAC12343F0004343EAE5
:107EA000505311F0004F23FA02F018BF40427047C0
:107EB0004FF00000704750EA013005D111F000404A
:107EC00008BF6FF0004070474FF00000704700BFE0
:107ED0004FEA4102B2F1E04324BFB3F5001CDCF1EC
:107EE000FE5C0DD901F0004C4FEAC0024CEA507024
:107EF000B2F1004F40EB830008BF20F00100704753
:107F000011F0804F21D113F13872BCBF01F0004055
:107F1000704741F480114FEA5252C2F11802C2F187
:107F2000200C10FA0CF320FA02F018BF40F0010008
:107F30004FEAC1234FEAD32303FA0CFC40EA0C00BA
:107F400023FA02F34FEA4303CCE77FEA625307D1F7
:107F500050EA01331EBF4FF0FE4040F4400070472E
:107F600001F0004040F0FE4040F40000704700BFC8
:107F7000002301461A46184600F072B80A4491429E
:107F800000F1FF3300D1704710B511F8014B03F831
:107F9000014F9142F9D110BD02440346934200D1F2
:107FA000704703F8011BF9E738B5104B1D68AB6B40
:107FB0000446B3B91820FDF7A5FF0246A86320B90F
:107FC0000B4B0C484221FDF7CDFF0B490B4BC0E991
:107FD00000130B4B83600B23838100210120C2E936
:107FE0000401AB6B00221C615A6138BDE4E403203C
:107FF0009D890B00B4890B000E33CDAB34126DE6B6
:10800000ECDE0500034611F8012B03F8012B002AD2
:10801000F9D17047024B0146186800F003B800BF61
:10802000E4E4032037B5044608460D4600F00FF897
:10803000421C114620460192FDF78CFF044618B100
:10804000019A2946FFF79AFF204603B030BD034648
:1080500013F8012B002AFBD1181A013870470000D1
:108060002DE9F843DFF8B8800646D8F800001F462F
:108070000D46914600F056F8254B1C6834B9254C46
:108080001C60254B13B11B68C4F8883063681F2B34
:1080900007DDD8F8000000F047F84FF0FF30BDE8EA
:1080A000F8834EB3D4F8880088B91C4B23B9D8F8AC
:1080B000000000F038F8F0E74FF48470FDF722FF7D
:1080C0000028F4D00023C0E94033C4F88800636876
:1080D00040F8239001229A4000EB8301D0F8003150
:1080E0001343C0F80031022EC1F8807002BFD0F8EF
:1080F00004311343C0F804316368D8F800005A1CF7
:108100000233626044F8235000F00EF80020C6E706
:10811000ECE7032060E7032000000000055F0B0090
:1081200048E50320704770477047000021400B006E
:108130005D400B0085400B0089400B0000000000F3
:1081400043616C6C206F6E20707572652076697269
:108150007475616C00417373657274696F6E46610A
:10816000696C757265202A705F70696E203C2028EA
:108170003332202B2031362900252E32663B252E26
:10818000326600543A20252E3266460A52483A2575
:108190002E3266252520002573004E6F7420636FF4
:1081A0006E6E65637465642C2062757420747279D8
:1081B000696E6720746F207075626C6973683A200D
:1081C000005075626C697368696E673A200050757B
:1081D000626C697368537472696E673A2025730A1A
:1081E0000074656D70430041626F757420746F2078
:1081F000617474656D707420746F20636F6E6E654A
:1082000063742E2E2E0A0067657454656D700042EB
:108210004D45323830206174206164647265737337
:1082200020307825303258206661696C656420748E
:108230006F20737461727400436F6E6E6563746552
:1082400064210A0064656661756C7420004D5342B8
:10825000004C5342003C53504953657474696E6737
:10826000732064656661756C743E003C53504953DD
:10827000657474696E6773202573257520257320D6
:108280004D4F444525753E000000000000000000F1
:1082900079480B0069480B006B480B000000000098
:1082A00000000000B5520B0045530B00B1590B0004
:1082B00095640B00B9520B00C9560B0041510B00DD
:1082C000D14F0B0087570B0025580B005B580B0054
:1082D00077580B0000000000003E5B4F5B3E3E6B9A
:1082E0004F6B3E1C3E7C3E1C183C7E3C181C577D50
:1082F000571C1C5E7F5E1C00183C1800FFE7C3E79C
:10830000FF0018241800FFE7DBE7FF30483A060EAD
:108310002629792926407F050507407F05253F5AF4
:108320003CE73C5A7F3E1C1C08081C1C3E7F142264
:108330007F22145F5F005F5F06097F017F0066890F
:10834000956A606060606094A2FFA29408047E0455
:108350000810207E201008082A1C08081C2A08087B
:108360001E101010100C1E0C1E0C30383E3830063B
:108370000E3E0E06000000000000005F0000000737
:10838000000700147F147F14242A7F2A1223130865
:10839000646236495620500008070300001C224141
:1083A000000041221C002A1C7F1C2A08083E0808E5
:1083B0000080703000080808080800006060002095
:1083C000100804023E5149453E00427F4000724978
:1083D0004949462141494D331814127F102745451C
:1083E00045393C4A49493141211109073649494932
:1083F00036464949291E00001400000040340000A0
:108400000008142241141414141400412214080208
:10841000015909063E415D594E7C1211127C7F497B
:108420004949363E414141227F4141413E7F4949D0
:1084300049417F090909013E414151737F080808FC
:108440007F00417F41002040413F017F08142241CD
:108450007F404040407F021C027F7F0408107F3E27
:108460004141413E7F090909063E4151215E7F0994
:10847000192946264949493203017F01033F4040FB
:10848000403F1F2040201F3F4038403F63140814E6
:108490006303047804036159494D43007F4141411E
:1084A0000204081020004141417F040201020440FF
:1084B00040404040000307080020545478407F2883
:1084C0004444383844444428384444287F38545479
:1084D000541800087E090218A4A49C787F0804049C
:1084E0007800447D40002040403D007F102844003B
:1084F00000417F40007C047804787C0804047838CC
:1085000044444438FC1824241818242418FC7C08FB
:10851000040408485454542404043F44243C404078
:10852000207C1C2040201C3C4030403C442810282B
:10853000444C9090907C4464544C44000836410074
:108540000000770000004136080002010204023CEE
:108550002623263C1EA1A161123A4040207A3854BD
:108560005455592155557941215454784121555438
:10857000784020545579400C1E5272123955555589
:1085800059395454545939555454580000457C4174
:108590000002457D420001457C40F0292429F0F08D
:1085A000282528F07C545545002054547C547C0ADE
:1085B000097F4932494949323248484832324A48AB
:1085C00048303A4141217A3A42402078009DA0A0AB
:1085D0007D39444444393D4040403D3C24FF2424FF
:1085E000487E4943662B2FFC2F2BFF0929F620C01C
:1085F000887E090320545479410000447D4130486D
:10860000484A32384040227A007A0A0A727D0D19AF
:10861000317D2629292F28262929292630484D4011
:1086200020380808080808080808382F10C8ACBA0D
:108630002F102834FA00007B000008142A1422228C
:10864000142A1408AA005500AAAA55AA55AA00007F
:1086500000FF00101010FF00141414FF001010FF92
:1086600000FF1010F010F0141414FC001414F700A4
:10867000FF0000FF00FF1414F404FC141417101F73
:1086800010101F101F1414141F00101010F0000001
:1086900000001F101010101F10101010F01000001C
:1086A00000FF101010101010101010FF100000002C
:1086B000FF140000FF00FF00001F10170000FC0463
:1086C000F414141710171414F404F40000FF00F746
:1086D00014141414141414F700F7141414171410A9
:1086E000101F101F141414F4141010F010F00000D8
:1086F0001F101F0000001F14000000FC140000F0F9
:1087000010F01010FF10FF141414FF141010101F9D
:1087100000000000F010FFFFFFFFFFF0F0F0F0F0AE
:10872000FFFFFF0000000000FFFF0F0F0F0F0F38CB
:10873000444438447C2A2A3E147E02020606027E05
:10874000027E0263554941633844443C04407E2024
:108750001E2006027E020299A5E7A5991C2A492A35
:108760001C4C7201724C304A4D4D303048784830C4
:10877000BC625A463D3E494949007E0101017E2ABC
:108780002A2A2A2A44445F444440514A44404044EF
:108790004A51400000FF0103E080FF000008086B21
:1087A0006B083612362436060F090F06000018181B
:1087B0000000001010003040FF0101001F01011EE9
:1087C00000191D1712003C3C3C3C0000000000005A
:1087D0000000000000000000000000000000000099
:1087E000B1590B0095640B00A5400B00C9560B0056
:1087F000EF570B000B580B0087570B0025580B0049
:108800005B580B0077580B000000000000000000D0
:10881000E35F0B00D95F0B00CF5F0B00C55F0B0060
:10882000B95F0B00AD5F0B006D720B0075720B0032
:10883000A15F0B00995F0B008F5F0B00855F0B0042
:10884000A5720B00000810182028303861707000E5
:1088500025592D256D2D25645425483A254D3A2559
:1088600053257A0061736374696D65000000000030
:10887000000000009D670B00A3670B00E1670B0081
:10888000B1670B009F670B000000000000000000B4
:10889000296D0B00196D0B001B6D0B000000000013
:1088A000000000000F6E0B00776E0B004D6E0B008A
:1088B00095640B003F6E0B00116E0B00216E0B00D8
:1088C000716E0B00316E0B00096E0B000000000092
:1088D00000000000D16F0B003D700B0015700B0005
:1088E00095640B00E56F0B0001700B00F36F0B003C
:1088F0000F700B00D36F0B00D76F0B000000000050
:10890000000000009D700B00E7700B00BF700B00B3
:108910009F700B00C7700B00CF700B00D7700B005F
:10892000DF700B0000000000000000000F720B0061
:1089300005720B00FB710B00B1710B00EF710B00A6
:10894000E3710B006D720B0075720B00D7710B0099
:10895000CF710B00C5710B00BB710B00A5720B0032
:1089600000000000000000002D720B0037720B00A9
:1089700041720B004B720B0055720B0061720B00C1
:108980006D720B0075720B007D720B0089720B000B
:1089900091720B009B720B00A5720B0000524545B3
:1089A0004E54206D616C6C6F6320737563636565F5
:1089B000646564002F6D6E742F776F726B737061D6
:1089C00063652F776F726B73706163652F474343E5
:1089D0002D31302D706970656C696E652F6A656E1A
:1089E0006B696E732D4743432D31302D706970656F
:1089F0006C696E652D34385F32303230313132344B
:108A00005F313630363138303634312F7372632F60
:108A10006E65776C69622F6E65776C69622F6C6921
:108A200062632F7374646C69622F72616E642E636B
:108A30000000000001480B00ED5F0B0065620B00B9
:108A400085640B00A9650B00B9650B0059660B0026
:108A500019720B007D730B00000000000000000085
:108A6000040000001400000003000000474E550001
:108A7000378D04213F8BD8570D64C899DC7032C301
:048A8000B0DF74A44B
:048A840000000000EE
:108A8800000103070F1F3F7F0080C0E0F0F8FCFEE5
:108A980000000000000000000000000000000000CE
:108AA80000000000000000000000000000000000BE
:108AB80000000000000000000000000000000000AE
:108AC800000000000000000000000000000000801E
:108AD800808000000000000000000000000000008E
:108AE800008080C0C00000000000000000000000FE
:108AF800000000000000000000000000000000006E
:108B0800000000000000000000000000000000005D
:108B1800000000000000000000000000000000004D
:108B28000000000080C0E0F0F8FCF8E00000000061
:108B380000000000000000000000000000808080AD
:108B4800808000808000000000808080808000FF9E
:108B5800FFFF00000000808080800000808000000F
:108B680080FFFF808000808000808080800080807F
:108B78000000000000808000008C8E84000080F8D7
:108B8800F8F880000000000000000000000000006D
:108B9800F0F0F0F0F0F0F0F0F0F0F0F0E0E0C0808D
:108BA80000E0FCFEFFFFFF7FFFFFFFFFFF0000006C
:108BB8000000000000000000000000FEFFC70101E7
:108BC800010183FFFF00007CFEC70101010183FF53
:108BD800FFFF0038FEC78301010183C7FFFF0000C4
:108BE80001FFFF010100FFFF0701010100007FFFF6
:108BF80080000000FFFF7F0000FFFFFF000001FF73
:108C0800FFFF01000000000000000000000000005D
:108C1800030F3F7F7FFFFFFFFFFFFFFFE7C7C78F00
:108C28008F9FBFFFFFC3C0F0FFFFFFFFFFFCFCFCEF
:108C3800FCFCFCFCFCF8F8F0F0E0C00001030303C6
:108C48000303010303000000000103030303010100
:108C580003010000000103030303010103030000F3
:108C680000030300000003030000000000000001EF
:108C780003030303030100000001030100000003D4
:108C880003010000000000000000000000000000D8
:108C980000000080C0E0F0F9FFFFFFFFFF3F1F0F5B
:108CA80087C7F7FFFF1F1F3DFCF8F8F8F87C7DFF2A
:108CB800FFFFFFFFFFFFFF7F3F0F0700303000007F
:108CC800000000000000000000000000000000009C
:108CD80000000000FEFEFC00000000000000000094
:108CE80000000000000000000000000000E0C000DC
:108CF800000000000000000000003030000000000C
:108D0800000000000000000000000000000000005B
:108D180000C0FEFFFFFFFFFFFFFFFFFF7F7F3F1F3A
:108D28000F071F7FFFFFF8F8FFFFFFFFFFFEF8E0C8
:108D3800000000010000000000000000FEFE00002E
:108D480000FCFEFC0C06060EFCF80000F0F81C0EF9
:108D58000606060CFFFFFF0000FEFE00000000FCF8
:108D6800FEFC00183C7E66E6CE84000006FFFF0687
:108D780006FCFEFC0C0606060000FEFE0000C0F81D
:108D8800FC4E4646464E7C7840183C76E6CECC8073
:108D980000000000000000000000000000000000CB
:108DA8000000000001070F1F1F3F3F3F3F1F0F0339
:108DB8000000000000000000000000000F0F00008D
:108DC800000F0F0F000000000F0F000003070E0C2C
:108DD80018180C060F0F0F0000010F0E0C180C0FBF
:108DE800070100040E0C180C0F070000000F0F00FD
:108DF800000F0F0F0000000000000F0F0000000719
:108E0800070C0C181C0C060600040E0C180C0F0797
:108E1800000000000000000000000000000000004A
:108E2800000000000000000000000000000000003A
:108E3800000000000000000000000000000000002A
:108E4800000000000000000000000000000000001A
:108E5800000000000000000000000000000000000A
:108E680000000000000000000000000000000000FA
:108E780000000000000000000000000000000000EA
:108E880000000000000000000000000000000000DA
:108E980064880B00E8E403200000000000000000E4
:108EA80000000000000000000000000000000000BA
:108EB80000000000000000000000000000000000AA
:108EC800000000000000000000000000000000009A
:108ED800000000000000000000000000000000008A
:108EE800000000000000000000000000000000007A
:0C8EF8000000000000000000F0E7032074
:108F0400FFFFFFFF00000102030405060708090A2A
:108F14000B0C0D0E0F101112131415161718191A25
:088F24001B1C1D1E1F2028006C
:048F2C00785634122D
:04000003B0004020E9
:00000001FF
